:100000000C9464090C9481090C9481090C94CA2DF8
:100010000C9481090C9481090C9481090C94810938
:100020000C9481090C9481090C94982A0C94802BCF
:100030000C94C6150C9481090C9481090C948109C7
:100040000C9481090C9481090C9481090C94810908
:100050000C9481090C94742A0C9481090C948109E4
:100060000C9481090C9481090C9481090C948109E8
:100070000C9481090C9481090C9481090C948109D8
:100080000C9481090C9481090C9481090C948109C8
:100090000C9481090C9481090C9481090C948109B8
:1000A0000C9481090C9481090C94810900AF00AE75
:1000B00005010902A10185020901A1000509190133
:1000C00029081500250195087501810205010930EF
:1000D00009311581257F950275088106093815813A
:1000E000257F950175088106050C0A3802158125C2
:1000F0007F950175088106C0C005010980A10185B1
:100100000319012AB700150126B700950175108162
:1001100000C0050C0901A101850419012AA00215DE
:100120000126A002950175108100C005010906A1F4
:1001300001050719E029E7150025019508750181DA
:10014000029501750881010507190029FF15002690
:10015000FF0095067508810005081901290515009D
:100160002501950575019102950175039101C0095D
:10017000023B00020100A0FA090400000103010192
:100180000009211101000122440007058103080034
:10019000010904010001030000000921110100010F
:1001A000227B0007058203200001120100020000EB
:1001B000000832FC87020100010200010C03530019
:1001C0006F0066006C00650000001A034A006F00B3
:1001D0007300650066004100640061006D0063000B
:1001E00069006B0000000403090400000000000027
:1001F0000000000000000000E01C020502240404CE
:1002000002A91EE000000000000000000000000045
:10021000E01008681008040300000000000000025D
:1002200006827C03000000000000000000000000C7
:100230000102040C1010202020283E1C20203E0F1C
:10024000111F00000000000000000000000000007E
:100250000000000000000000E01C0205022404046D
:1002600002A91EE00000000000000000000000E005
:10027000900818601008040300000000000000024D
:100280000E827C030000000000000000000000005F
:100290000102040C1010202020283E1C20203E0FBC
:1002A000111F000000000000000000000000E0102E
:1002B0000808C8B08080808080808040403C140462
:1002C0000890180408B040800000000000000102FF
:1002D000C4A4FC000000008000000000000000003A
:1002E0000080C858282A100F000000000000000EEF
:1002F0000904040404020302010102020408102696
:100300002B320405060000000000000000E0101081
:10031000F0000000000000000080808078280810B5
:100320002030081020408000000000000003040876
:100330001011F9010101010101000000000000009D
:10034000000110B05055201F000000000000000008
:1003500000000001020C10202837021E2020180C7B
:10036000141E0100000000000000000000000080DA
:10037000402010909090A0C0808080700814089059
:10038000101008A4788000000000000000000007A2
:1003900008FC0100000000800000010000000000D7
:1003A000000818EA100F0000000000000000000024
:1003B00000031C20203C0F111F03061820203C0CBA
:1003C000121E0100000000000000000000000000FC
:1003D0008040202020408000000000E010281020F5
:1003E00020201048F0000000000000000000001F66
:1003F00020F80201010101010101030000000001D8
:10040000001030D5201F0000000000000000000098
:10041000003F20300C020509121E021C1408102097
:100420002C3201000000000000000000000000006D
:10043000804040404080000000000000C0404080FC
:1004400000804080000000000000000000001E212D
:10045000F004020202020302020404040301000089
:1004600009018080AB04F8000000000000000000DB
:10047000031C20203C0F111F0206182020380810F2
:100480001804040202010000000000000000000047
:10049000804040408000000000000000E0A02040BC
:1004A00080C02040800000000000000000003E41AD
:1004B000F00402020203020202040402010000002E
:1004C0000400404055827C00000000000000000055
:1004D0003F20300C020509121E04181008102028B5
:1004E0003406020101000000000000C02010D030DE
:1004F000000000000000008080403C1404089018B8
:100500000408B0408000000000000003040810113F
:10051000F90101010101010000000000000080C894
:1005200048282A100F000000000000000000000012
:100530000001020C102028370202040810262B327A
:100540000405060000000000000000E01010F000AC
:1005500000000000000000808040402C140408903F
:10056000180408B0408000000000000304081011C7
:10057000F9010101010101000000000000000080FC
:10058000C048282A100F204A09100000000000006F
:100590000001020C102028370202040810262B321A
:1005A0000405060000000000000042415345200001
:1005B0004C4F574552005241495345004E554D50FE
:1005C000440000C03E01000000C0FCFFFFFF7C7043
:1005D0004040615E80C0BC030000000000000000DD
:1005E00000003C0300000080788700030F3FF8F014
:1005F000F0204080800000010102040810204080AB
:10060000000000000000F887000106186080C03F6D
:1006100003807807000000000000000000000001D7
:1006200002040000F0CF0001061860808079078086
:100630007807000000000000003838380000000093
:100640000000E01E0100030C30C000F907807807AD
:10065000000000000000C02C32220000000000005A
:10066000000007030C30C00000F00F807807000086
:100670000000000000000102000000000000000077
:1006800000001860800000E11E01F08F8080800073
:1006900000000E0E0E000000000000000000000030
:1006A00000000808090E0E01F00F00000000000114
:1006B000011919410A22847800000000000000801E
:1006C000601800000000F00F0202020202020202A3
:1006D0000202010101010000000000000000060903
:1006E00070800000F01F101010101008080804049B
:1006F00002020101010101020202020202020204DD
:10070000020100C03E01000000C0FC0300030C30E9
:10071000C000E11E00C0BC8380808080800000009B
:1007200000003C0300000080788700030C30C0000C
:10073000E01F01C03C030000000000003031054113
:10074000120400000000F887000106186080C03F16
:100750000380780702020202020202020202010181
:1007600003050000F0CF0001061860808079078043
:100770007807000000000000003838380000000052
:100780000000E0FEFFFFFFFCF0C000F907807807E3
:10079000000000000000C02C322200000000000019
:1007A000000007030F3FFF0301030718F8070000CD
:1007B0000000000000000102000000000000000036
:1007C0000000186080000FF000000000033C0000F3
:1007D00000000E0E0E0000000000000000000000EF
:1007E00000000808090E0E01F30F000000000000D1
:1007F0000000000000000000000000000000008079
:10080000601800000000F00F000000000000000071
:1008100000000000000000000000000000000609C9
:1008200070800000F01F1010101010080808040459
:10083000020201010101010202020202020202049B
:10084000020100C03E01000000C0FC0300030C30A8
:10085000C000E11E00C0BC8380808080800000005A
:1008600000003C0300000080788700030C30C000CB
:10087000E01F01C03C0300000000000030310541D2
:10088000120400000000F887000106186080C03FD5
:100890000380780702020202020202020202010140
:1008A00003050000F0CF0001061860808079078002
:1008B0007807000000000000003838380000000011
:1008C0000000E01E0100030C30C000F9078078072B
:1008D000000000000000C02C3222000000000000D8
:1008E000000007030C30C00000F00F807807000004
:1008F00000000000000001020000000000000000F5
:1009000000001860800000E11E01F08F80808000F0
:1009100000000E0E0E0000000000000000000000AD
:1009200000000808090E0E01F00F00000000000191
:10093000011919410A22847800000000000000809B
:10094000601800000000F00F020202020202020220
:100950000202010101010000000000000000060980
:1009600070800000F01F1010101010080808040418
:10097000020201010101010202020202020202045A
:10098000020107087F0807003E6B4F6B3E00C194D1
:10099000B094C1001C3E7C3E1C00183C7E3C1800FC
:1009A0001C577D571C001C5E7F5E1C0000183C1805
:1009B0000000FFE7C3E7FF00001824180000FFE76E
:1009C000DBE7FF0030483A060E0026297929260089
:1009D000407F05050700407F05253F005A3CE73C66
:1009E0005A007F3E1C1C0800081C1C3E7F0014227D
:1009F0007F2214005F5F005F5F0006097F017F00B8
:100A0000006689956A0060606060600094A2FFA241
:100A1000940008047E04080010207E2010000808BE
:100A20002A1C0800081C2A0808001E1010101000BC
:100A30000C1E0C1E0C0030383E383000060E3E0EE8
:100A4000060000000000000000005F00000000073A
:100A500000070000147F147F1400242A7F2A12004C
:100A6000231308646200364956205000000807032B
:100A70000000001C224100000041221C00002A1C32
:100A80007F1C2A0008083E08080000807030000023
:100A90000808080808000000606000002010080432
:100AA00002003E5149453E0000427F40000072492D
:100AB000494946002141494D33001814127F100066
:100AC0002745454539003C4A494931004121110932
:100AD0000700364949493600464949291E000000A9
:100AE00014000000004034000000000814224100FF
:100AF00014141414140000412214080002015909AE
:100B000006003E415D594E007C1211127C007F4967
:100B1000494936003E41414122007F4141413E006A
:100B20007F49494941007F09090901003E4141517E
:100B300073007F0808087F0000417F4100002040CB
:100B4000413F01007F08142241007F4040404000A7
:100B50007F021C027F007F0408107F003E4141415C
:100B60003E007F09090906003E4151215E007F09D0
:100B70001929460026494949320003017F01030033
:100B80003F4040403F001F2040201F003F40384072
:100B90003F006314081463000304780403006159E0
:100BA000494D4300007F41414100020408102000EC
:100BB000004141417F0004020102040040404040E6
:100BC00040000003070800002054547840007F28AC
:100BD00044443800384444442800384444287F00C2
:100BE00038545454180000087E09020018A4A49C2C
:100BF00078007F080404780000447D400000204015
:100C0000403D00007F102844000000417F4000006C
:100C10007C04780478007C08040478003844444458
:100C20003800FC182424180018242418FC007C0820
:100C30000404080048545454240004043F4424008D
:100C40003C4040207C001C2040201C003C403040A8
:100C50003C004428102844004C9090907C00446450
:100C6000544C4400000836410000000077000000AA
:100C70000041360800000201020402003C2623263F
:100C80003C0000000000000000008080E0F0F0FC6C
:100C900070FCF07CF0FC70FCF0F0E0808000000064
:100CA00000000000000080808000000080800000C4
:100CB0000000008080008080000000808000000034
:100CC00000008080808080008080000000000000A4
:100CD0000000000000000000000000000000000014
:100CE0000000000000000000000000000000000004
:100CF00000000000000000000000000000000000F4
:100D000000C0F0F8FC3E1E06010000007F4141419A
:100D10007F007F4141417F000080C0E07E5B4F5BF0
:100D2000FEC00000C000DCD7DEDEDED7DC00C00085
:100D300000000000000000000000000000000000B3
:100D400000000000000000000000AAAAFFFFFFFF53
:100D5000E0DFDF00DFDFE0FFFFFFFFAAAA00000007
:100D6000000000003E7FC1C1C17F3E00FFFF0F3C7D
:100D7000783C0FFFFF00FFFF1C3E77E3C10000003F
:100D80000000FFFF19191900FDFD00FEFC0606001A
:100D9000FEFC0606FCFC0606FEFC001E7CE0780C51
:100DA00078E07C1E0064F692927EFC00FEFC060653
:100DB000003C7ED2D2DE4C000000000000000000AB
:100DC00000030F1F3F3C7870600000007F414141ED
:100DD0007F007F4141417F00307B7F783020203091
:100DE000787F3B0003000F7F0F0F0F7F0F00030082
:100DF00000000000000000000000000000000000F3
:100E00000000000000000000000000000307071FB2
:100E1000071F071F071F071F070703000000000029
:100E200000000000000000000103020000000000BC
:100E300000000000000000000000000000000000B2
:100E400000000000000000000000000000000000A2
:100E50000000000000000000000000000000000092
:100E60000000000000000000000000000000000082
:100E70000000000000000000000000000000000072
:100E80000000000000000000000000000000000062
:100E90000000000000000000000000000000000052
:100EA0000000000000000000000000000000000042
:100EB0000000000000000000000000000000000032
:100EC00000002223252628292A2C2D2F30323335C5
:100ED00036383A3B3D3E4042434547494A4C4E50E6
:100EE00051535557595A5C5E6062646668696B6D10
:100EF0006F71737577797B7D7F81838587898A8C14
:100F00008E90929496989A9C9E9FA1A3A5A7A8AA1A
:100F1000ACAEAFB1B3B4B6B8B9BBBCBEBFC1C2C34F
:100F2000C5C6C7C9CACBCCCDCED0D1D2D2D3D4D5E9
:100F3000D6D7D7D8D9D9DADADBDBDBDCDCDCDCDC12
:100F4000DDDDDDDDDCDCDCDCDCDBDBDBDADAD9D9EA
:100F5000D8D7D7D6D5D4D3D2D2D1D0CECDCCCBCA78
:100F6000C9C7C6C5C3C2C1BFBEBCBBB9B8B6B4B39E
:100F7000B1AFAEACAAA8A7A5A3A19F9E9C9A989634
:100F80009492908E8C8A89878583817F7D7B797707
:100F90007573716F6D6B6968666462605E5C5A59E7
:100FA00057555351504E4C4A4947454342403E3DA8
:100FB0003B3A3836353332302F2D2C2A2928262536
:100FC00023220001010101010101010102020202CB
:100FD00002020202020303030303030303040404E3
:100FE00004040404050505050506060606060707AC
:100FF00007070708080808090909090A0A0A0B0B64
:101000000B0C0C0C0D0D0D0E0E0E0F0F0F10101102
:101010001111121213131414151516161717181888
:1010200019191A1A1B1B1C1D1D1E1E1F20202122F0
:1010300022232424252626272829292A2B2C2D2D36
:101040002E2F30313232333435363738393A3B3C53
:101050003D3E3F404142434445464748494A4C4D46
:101060004E4F50515354555658595A5B5D5E5F610F
:101070006264656668696B6C6D6F707273757778A2
:101080007A7B7D7E8082838587888A8C8E8F919300
:101090009596989A9C9EA0A2A3A5A7A9ABADAFB127
:1010A000B3B5B7BABCBEC0C2C4C6C9CBCDCFD1D40C
:1010B000D6D8DBDDDFE2E4E7E9EBEEF0F3F5F8FAB2
:1010C000FDFF00DA028178D9F1DB20A4A62EAF0063
:1010D000A0C0D30000A1C8D30000AED580A81F4097
:1010E0008D1420001E140A0529001E001F00200078
:1010F000210022002B0014001A0008001500170020
:10110000E10004001600070009000A00E0001D00CD
:101110001B00060019000500E300E200E000407E2D
:101120002C00160A2E00270026002500240023008C
:101130002A00130012000C0018001C0034003300B9
:101140000F000E000D000B00E500380037003600E0
:1011500010001100E700E600E400417E2800A8002E
:101160000100010001000100010001000100010077
:101170000100010001000100E1002F0030002F02FA
:1011800030023102E000000000000000000000001A
:101190000100010001000100010001000100010047
:1011A0000100010001000100010001000100010037
:1011B0000100010000002D022D0035023500310034
:1011C000E500000000000000000000000100010038
:1011D0000100417E0100010000003A003B003C009C
:1011E0003D003E0000000000000000000000000084
:1011F000E1003900160A000000000000E0000000D5
:101200000000000000000000010001000100407E1D
:1012100001000100440043004200410040003F0043
:101220004C0045004D0052004A004B0000000000F9
:101230004F00510050004E00E5000000000000008B
:101240000000000001000100010001000100010098
:1012500001000100010001000100010001002078EF
:101260002178427E25782778E100007C2278437E31
:1012700026782878E000037C00002A78297800008E
:101280000100010001000100010001000100010056
:1012900001000100010001000100000026002500FE
:1012A00024000000010000002300220021000000B3
:1012B000E500270020001F001E00000001000100C3
:1012C000010001000100010011241FBECFEFDAE090
:1012D000DEBFCDBF11E0A0E0B1E0E2E4F0E602C085
:1012E00005900D92AE3CB107D9F726E0AEECB1E027
:1012F00001C01D92A934B207E1F70E9491250C9418
:10130000EB2F0C940000FB018B32914019F481E02B
:101310000995089583E0FCCF292F30E048E0911132
:1013200002C09C0140E0C90164E0969587956A95EA
:10133000E1F7009711F04C5F9C01C90196958795E4
:1013400096958795009711F04E5F9C01C90196957F
:101350008795840F08959093FF058093FE05089567
:101360009A3090F5863080F5E82FF0E086E0989F7F
:10137000E00DF11D11248E2F877041E001C0440F54
:101380008A95EAF783E0F695E7958A95E1F7EE0FFF
:10139000FF1FEE0FFF1FED53FA4F20E030E070E02B
:1013A0005191DF01CB01022E02C0969587950A94D8
:1013B000E2F7817081958527842385278E932F5F9F
:1013C0003F4F2430310561F708959A3078F5863023
:1013D00068F5E82FF0E086E0989FE00DF11D1124FC
:1013E0009E2F977083E0F695E7958A95E1F7EE0FCB
:1013F000FF1FEE0FFF1FED53FA4F40E050E080E07B
:10140000219130E0092E02C0369527950A94E2F723
:1014100021703327042E01C0220F0A94EAF7822B91
:101420004F5F5F4F4430510559F7089580E00895AC
:101430008091070690910606981301C008958F5F6A
:101440008770FACF982F90958091FB058923809320
:10145000FB0508959C01811542E59407B8F58115B7
:1014600060E5960708F0BEC0803E9105E0F48D3C33
:10147000910508F093C0883A910568F4853A910582
:1014800008F07DC08130910521F00497813A9105E3
:1014900038F4C9010895885A91094B9708F473C02C
:1014A00020E030E0F6CF8115904468F4211580E209
:1014B000380708F0AEC0283E310558F3C9019A95A7
:1014C00081159F41E5CF3F70306AE3CF803862E5F8
:1014D0009607C8F5803672E5970708F068C0203493
:1014E00082E53807D0F4203292E5390708F058C079
:1014F000822F8695869540E2849FC0011124237037
:1015000041E050E0BA0102C0660F771F2A95E2F76A
:101510009B01282B392B3D68BCCF822F8695869561
:10152000877070E2879FC0011124237041E050E072
:10153000BA0102C0660F771F2A95E2F79B01282B9C
:10154000392B3C68A6CF803C72E5970760F48F7119
:10155000203A324508F040C090E0982F88279C013F
:10156000246F306A96CF805C9245809708F098CFC0
:10157000322F222722273F71206F306A8ACF2452D0
:101580003109306486CF285AE22FF0E0EE0FFF1FBA
:10159000E856FE4F2081318134647BCF306579CFAE
:1015A0002F7130E0322F2227216F306A72CF86955B
:1015B0008695877040E2849FC0011124237041E02A
:1015C00050E0BA0102C0660F771F2A95E2F79B012F
:1015D000282B392B3A685DCF90E0982F88279C0103
:1015E000306257CF43E0880F991F4A95E1F788276B
:1015F0009F70622F6F71462F50E024FF05C070E18D
:10160000679FA00111245527842B952B9C013069DD
:1016100040CF832F8F71382FE3CF7A30B8F4663004
:10162000A8F48430B0F4E62FF0E096E0799FE00D66
:10163000F11D11249CE3899FE00DF11D1124EE0F93
:10164000FF1FE851FF4E85919591089580E090E04D
:10165000089581E0FCCFA0E0B0E0E1E3FBE00C9472
:10166000F62E8C01E0900006F09001068091FE05B8
:101670009091FF05E82AF92ACFE0D0E0CC24C3946A
:10168000D12CC6010C2E02C0880F991F0A94E2F7D4
:101690008E219F21892B49F4219798F7B12C8B2D0E
:1016A000CDB7DEB7E9E00C94122FBC2EB8018C2F19
:1016B000B4DFD0DE019781F3F2CF0F931F93CF9366
:1016C000FC01858100811181811579F0611569F036
:1016D000C801C1DFC82F682FC80142DEB8018C2FB6
:1016E0009CDFCF911F910F910895C8016EDEC82F26
:1016F000F5CFCF93DF93D82FC92FADDF6D2F7C2F80
:101700008CDFA8DEDF91CF910895FC0184818115E3
:1017100099F080819181EDDF282F92959F7096300E
:1017200099F060F4925F9F70923030F4203FB1F0F6
:1017300038F481E0283E38F080E008959A5FF3CFD6
:1017400081E0243FC9F7089591E0213F09F090E03E
:1017500081E0283E08F080E0892B089581E008951B
:1017600080E00895F894E82FE295EF70F0E041A151
:101770008F7021E030E0B90102C0660F771F8A95B3
:10178000E2F7CB01962F9095942391A392A1892BF8
:1017900082A37894089581E080937B05089508954D
:1017A000CF92DF92EF92FF921F93CF93DF93172F89
:1017B000E82FF0E0EE53F04F71110CC0E4918E2F42
:1017C0007E2F6E2FDF91CF911F91FF90EF90DF90D2
:1017D000CF900895E62EF12CC72ED12CF491EF2F47
:1017E00086E0689F90011124CFEFD0E0C901BE01CF
:1017F0000E94D92EAB01EE0CFF1C65E5649FC00171
:10180000659F900D1124E81AF90A6E2D660F6E0D72
:101810007E01EC18FD08FE9DD001FF9DB00D112446
:101820008B2F169F70011124EF2CFF246E01CE1810
:10183000DF087601FE9D6001FF9DD00C11247E0122
:10184000E61AF108B701169F7001179FF00C1124DA
:10185000EF2CFF24CE19DF09FC9F7001FD9FF00CD7
:1018600011247F2D43305105C1F02C3F334058F4F3
:1018700041305105B1F04230510509F0A2CFEB2FB4
:101880008F2D7F2F9ECF4430510571F0463051058A
:1018900009F497CF7B2F8D2D94CF7D2DEB2F8F2F9C
:1018A00090CF7F2FED2D8DCFEF2D7B2FF8CFCF93C6
:1018B0008091F30580FF03C0B3D3CF910895C09109
:1018C0000E0180910F01C817B8F780910C019C2F71
:1018D000981B892F20E040E060E090E016D1CF5FB8
:1018E000F0CF0F931F93CF93DF93D82F162F042F92
:1018F0008091F305C0910E0180FD10C0DF91CF9162
:101900001F910F91089580910C019C2F981B892F96
:10191000202F412F6D2F90E0F8D0CF5F80910F01E5
:10192000C81788F3C4DFEACFE0EFF5E011828281C7
:10193000846082830895E3EFF5E080818E7F808369
:10194000F3DFE0EFF5E0828181608283B0CFCF9357
:10195000DF93EC01EC81F0E0EE53F14F8491909134
:10196000F30590FF0DC07091F5056091F4058F3679
:1019700008F08EE615DF962F672F482F892FB1DFED
:101980008C818F5F8C83DF91CF91089520912C05FE
:1019900036E0839FC0011124269F800D911D1124E4
:1019A000811522E0920714F080E090E08B5D9C4F5F
:1019B00090932403809323030895EF92FF920F9353
:1019C0001F93CF93DF93A0912303B09124039D0134
:1019D00025523340620F731F613042E0740710F0EC
:1019E00060E072E04091210350912203FC01EE245B
:1019F000E394F12C2617370748F0509322034093C5
:101A00002103CDB7DEB7E6E00C94152F84919D91AC
:101A10009817A1F08D0101501109E8018883C901CF
:101A2000C5E096958795CA95E1F7E70102C0CC0F0E
:101A3000DD1F8A95E2F7CE014C2B592B2F5F3F4FCC
:101A40003196D8CF90915E05292F30E070915F05D7
:101A5000A9014F5F5F4F437055277417150689F032
:101A6000245A3A4F60FB87F9F90184839F5F937092
:101A700090935E0580915C058F5F80935C0581E0AB
:101A8000089580E0089590E06115E9F08F5E9E4F23
:101A9000FC0180818F3FB1F0E82FE295EF70F0E01C
:101AA00041A18F7021E030E0B90102C0660F771FBD
:101AB0008A95E2F7CB01962F9095942391A392A15A
:101AC000892B82A308958E5E9E4FE2CF90E0611530
:101AD000A9F08F5E9E4FFC0120812F3F91F0E22FF5
:101AE000E295EF70E05EF0E0808190E02F7002C040
:101AF000959587952A95E2F7817008958E5E9E4FA1
:101B0000EACF80E00895539A0895FC01EE0FFF1F7D
:101B1000E80FF91FE250FE4F61834083228308954E
:101B2000FC01680F791F8FEF41E39191892728E02D
:101B300030E0982F990F87FF09C0892F8427215003
:101B40003040B9F7E617F70781F70895892FF7CFE7
:101B5000282F35EB2303C001112497FF04C08058C0
:101B60009109892F089580589F4FFBCF8091E505FB
:101B700080FD14C081FD14C082FD16C08091E40573
:101B8000811581F08E3180F420E5829FC0011124FF
:101B90006EE170E00E94302F862F089584E1089551
:101BA00088E2089588E0089580E508958091E5052C
:101BB00080FD17C081FD17C082FD19C08091E3052B
:101BC000811599F0883298F428E0829FC001112491
:101BD00068E270E00E94302F6115710551F0862F88
:101BE000089562E0FCCF64E0FACF61E0F8CF68E0EE
:101BF000F6CF81E008958091B505811569F0E091F7
:101C0000B905F091BA05309739F00190F081E02DD7
:101C1000309711F00995089580E00895A3E0B0E0B1
:101C2000E4E1FEE00C94FD2E9C018091FC0190917A
:101C3000FD0182179307B1F03093FD012093FC0161
:101C4000E091B905F091BA05309761F00084F18513
:101C5000E02D309739F083E089833B832A83CE01DE
:101C6000019609952396E2E00C94192FA3E0B0E0C9
:101C7000ECE3FEE00C94FD2E9C018091FA01909122
:101C8000FB0182179307B1F03093FB012093FA0117
:101C9000E091B905F091BA05309761F00084F185C3
:101CA000E02D309739F084E089833B832A83CE018D
:101CB000019609952396E2E00C94192F8091090171
:101CC00008952FB7F8946091F6017091F701809113
:101CD000F8019091F9012FBF0895CF92DF92EF9212
:101CE000FF928091B505811551F0EBDF6B017C010E
:101CF000C701B601FF90EF90DF90CF900895E1DF2C
:101D0000C090B105D090B205E090B305F090B40555
:101D1000C60ED71EE81EF91EEBCF87E797E7909314
:101D200001088093000888E19AE00FB6F894A8951E
:101D3000809360000FBE90936000FFCF0895FC0178
:101D40009B018091EC019091ED018617970740F07F
:101D5000672B29F48091E8008E778093E800C90111
:101D600040E0009741F4411106C08091E80082FFF5
:101D70002FC080E00895209133052115A9F1253069
:101D8000A9F12091E80023FD2DC02091E80022FD5B
:101D9000ECCF2091E80020FFE4CF3091F3002091B8
:101DA000F200009719F02830310558F041E0283052
:101DB000310509F040E02091E8002E772093E800FB
:101DC000D0CF41914093F10001972F5F3F4FE9CF72
:101DD00080913305811541F0853041F08091E80014
:101DE00083FFC3CF81E0089582E0089583E00895E2
:101DF0008091E60187FF13C08091E80082FF06C052
:101E00008091E8008B778093E800089580913305F6
:101E10008111F2CF0895809133058115D9F3809116
:101E2000E80080FFF8CF8091E8008E77ECCF20911A
:101E3000E4003091E50095E6A9012091EC00822FA5
:101E4000817020FF06C08091E80080FF06C080E01E
:101E500008952091E80022FD1AC080913305811574
:101E600089F0853089F08091EB0085FD0FC02091CD
:101E7000E4003091E50042175307F9F29A95E1F634
:101E800084E0089582E0089583E0089581E0089554
:101E9000E8EDF0E080818E7F80831092E200109266
:101EA000DA001092E100A0EEB0E08C9181608C939A
:101EB00080818F77808319BCA7EDB0E08C918E7FF5
:101EC0008C9380818F7E80831092E5010895982FF6
:101ED0009093E900891771F07091EC002091ED006A
:101EE0005091F00021FD09C09F5F973089F78093E2
:101EF000E9000895762F242F50E03091EB003E7FCB
:101F00003093EB003091ED003D7F3093ED00309148
:101F1000EB0031603093EB007093EC002093ED0008
:101F20005093F0002091EE0027FDDECF0895A0E051
:101F3000B0E0EDE9FFE00C94F72EC8EDD0E0888129
:101F40008F7E8883E7EDF0E080818160808384E08C
:101F500082BF81E08093E50188818E7F888302EED5
:101F600010E0F80110821092DA0081EEC82ED12C18
:101F7000F601108288818F778883888180688883C2
:101F800088818F7D888319BC109233051092E401FB
:101F9000109232051092E30190EEE92EF12CF70138
:101FA00080818B7F808388818160888342E060E0CC
:101FB00080E08DDFF60180818E7F8083F801808153
:101FC00081608083808188608083F70180818E7F3B
:101FD0008083888180618883CDB7DEB7E8E00C9488
:101FE000132FE09107069091060627E0E91302C03F
:101FF00080E00895AE2FB0E02E9FF0011124E85F3D
:10200000F94F3181361306C03081381303C0358152
:10201000341304C0FD013196E770E8CF81E00895E4
:102020003BB1377F2BB128604FB7F8948EEF91E02A
:10203000FC010196508168E02BB9000000C057FFF9
:102040003BB9550F000000C000C000C03BB900C044
:102050006A9591F752E0863D950751F74FBF8FE59E
:1020600094E00197F1F700C0000008950F931F93CB
:10207000CF93DF938B01EA0190913305943051F5B2
:102080008093E9008FEF9091E80095FD06C095EDF3
:102090009A95F1F700008A95B1F78091E80085FFE5
:1020A00019C0C5DE811111C08091E80085FD06C010
:1020B0008091E8008E778093E800F3CFF80181915A
:1020C0008F018093F100219779F78091E8008E7756
:1020D0008093E800DF91CF911F910F910895CF93E6
:1020E000DF93D82FC92F48E050E0682F792F81E087
:1020F000BDDF88E0ED2FFC2FAEEEB1E001900D9238
:102100008A95E1F7DF91CF910895BC0146E050E058
:1021100082E0ACCFBC0143E050E082E0A7CFA0E07A
:10212000B0E0E5E9F0E10C94F52E182F092FB62E5A
:10213000A72E7A018091E2019AE0C92ED12C8A3033
:1021400018F0CC24C394D12CC1E0D0E06B2D7A2DB3
:10215000812F902FF7010995811116C02196CC1679
:10216000DD0694F0CC9FC001CD9F900D900D112401
:1021700020E030E045E34A95F1F700002F5F3F4F44
:1021800028173907B9F7E2CFCDB7DEB7EAE00C94EC
:10219000112F8091FB0590910506892B4091FC053C
:1021A000411589F090E022ED31E0F90150812F5F77
:1021B0003F4F51119F5F51E0283D3507B1F7911115
:1021C0001092FC05842B8093D00148E050E06BEB2B
:1021D00075E080ED91E00E94952F892BB9F088E0A1
:1021E000E0EDF1E0ABEBB5E001900D928A95E1F7FF
:1021F000E091B905F091BA05309741F00280F38182
:10220000E02D309719F080ED91E009950895811542
:1022100031F09091FB05892B8093FB05BACF08958F
:10222000811511F00FD9B5CF0895811531F0909136
:102230000506892B80930506ACCF0895811539F0EA
:10224000809590910506892380930506A2CF089575
:10225000A0E0B0E0EEE2F1E10C94F72EFA016901A2
:102260007801C82F880FDD0B3097B9F0DE0193E0BD
:10227000AA0FBB1F9A95E1F7A35EBE4F11968D91F1
:102280009C91129782579A4F2C91422F50E0E2175F
:10229000F10508F4AF010E94A22FCE010E946B2E1F
:1022A000182F8115D9F0E114F104C1F083E0CC0FAF
:1022B000DD1F8A95E1F7FE01E35EFE4F8381482F23
:1022C00050E0E816F10408F4A701C35EDE4F6C810C
:1022D0007D8162577A4FC6010E94A22F812FCDB710
:1022E000DEB7E8E00C94132FA1E0B0E0EAE7F1E1FB
:1022F0000C94ED2E762E4A015901680101E010E0A0
:102300009E012F5F3F4F40E050E060E070E0A0DFB3
:10231000182F811599F1F40120803180428053807B
:10232000D0DC6980621973098409950964367105E6
:102330008105910528F4B701C601F2DB8615F1F09D
:102340008701950140E050E060E070E0872D80DF7C
:10235000082FB701C601E4DB10E086110AC0102F78
:10236000117000FF06C0ADDCF401608371838283CD
:102370009383812F2196E2E10C94092FA701B601E6
:10238000C5010E94A22FF5CFA5E0B0E0EAECF1E193
:102390000C94F72E6B0185E0E82EF12C0FE815E088
:1023A0009E012F5F3F4F4AE855E061E080E09CDFEF
:1023B000811549F095E0FE013196A5E8B5E0019060
:1023C0000D929A95E1F795E0E5E8F5E0D6010190E8
:1023D0000D929A95E1F72596E8E00C94132F4F9211
:1023E0005F926F927F92AF92BF92CF92DF92EF9205
:1023F000FF920F931F93CF93DF93F82EEB01A42E40
:10240000D22EE32EB02EC12E488059806A807B8068
:1024100058DC6419750986099709643671058105C8
:10242000910510F4A11489F000E010E020E030E004
:102430004B2D5C2D6D2D7E2D8F2D0ADF811531F0FA
:1024400040DC688379838A839B8381E0DF91CF912D
:102450001F910F91FF90EF90DF90CF90BF90AF90C2
:102460007F906F905F904F9008950F931F93CF933D
:10247000DF93D82FC92F45E050E064E975E00E9452
:10248000952F41E0892B09F440E005E010E02D2F65
:102490003C2F61E875E082E0A2DFDF91CF911F91D0
:1024A0000F910895ABE0B0E0E8E5F2E10C94FB2E6B
:1024B00028E0E3EFF5E0CE010196DC0101900D92FA
:1024C0002A95E1F73091F0052091F1055091F20540
:1024D00039872A875B8741E09C01511101C040E0A8
:1024E0000BE010E063E775E087E079DF811110927F
:1024F000F2052B96E4E00C94172FA8E0B0E0E3E897
:10250000F2E10C94F92E88E0E82EF12C0AE915E0AE
:102510009E012F5F3F4F4DE755E064E083E0E4DE2E
:10252000182F8115B1F19091990580917C0598172C
:1025300081F1F12C90919D0580919C05891719F1ED
:10254000E92FF0E0EE56FA4F848587FB662760F9A5
:102550009F5F937090939D0590919B059F5F9093D3
:102560009B058F776FDAF82E8111E4CF00E010E041
:1025700020E030E040E050E060E070E085E068DEC0
:102580001F2D182302C0F110F1CF8091990580937F
:102590007C05812F2896E6E00C94152FA4E0B0E08E
:1025A000E4EDF2E10C94F72EC0907705D090780519
:1025B000E0907905F0907A0584DB6C197D098E092D
:1025C0009F0911E0643671058105910508F185DBED
:1025D000DC01CB010296A11DB11D89839A83AB83D7
:1025E000BC8300E010E020E030E044E050E0BE01B9
:1025F0006F5F7F4F86E02CDE182F811549F061DB7D
:1026000060937705709378058093790590937A05A8
:10261000812F2496E8E00C94132F0F93CF93DF9330
:10262000C3EFD5E0488159816A817B8188E090E0E1
:102630000E94CF2F288139814A815B816C817D8105
:102640008E819F8100E20E94642F622F83E290E0DE
:102650000E94BD2FDF91CF910F910895E3EFF5E038
:1026600085E0808311828FEF82838EE683831482DC
:10267000E0EFF5E082818360828383EF95E0CDCF48
:102680008091F705833018F48F5F8093F70583EF0F
:1026900095E0C3CF8091F705811519F081508093A3
:1026A000F70583EF95E0B9CF0F931F93CF93DF9397
:1026B000182FD62FC42F022F8091F30580FF34C02E
:1026C0009091F405911308C09091F505961304C0FC
:1026D0009091F605941729F09091F20592609093ED
:1026E000F205E82FE695E695F0E0EB58FE4F908175
:1026F0009093F0058C7F8430E1F48C2FCF3608F076
:102700008EE6612F7D2F4CD8962F672F482F892F6B
:10271000E8D81093F405D093F505C093F60501159C
:1027200019F083EF95E079DFDF91CF911F910F9141
:102730000895923071F7C091F605EBCFCF93DF93F8
:10274000D82FC92F58DA81FF0AC020E04FEF6FEF72
:1027500084E2AADF8D2F9C2FDF91CF9108958D2FDA
:102760009C2F0E948C09823081F0833049F08130A7
:1027700089F020E0409148066FEF80914706E9CF4D
:1027800020E04FEF6FEF8AEAE4CF20E04FEF6FEFEA
:1027900085E5DFCF20E04FEF6FEF80E0DACFCEDFCF
:1027A0009093010680930006089521E030E002C076
:1027B000220F331F8A95E2F780910006909101065F
:1027C000822B932BECCF21E030E002C0220F331F8D
:1027D0008A95E2F720953095809100069091010648
:1027E00082239323DCCF90910206809589238093E6
:1027F0000206282F277021110CC0891751F09091E3
:10280000040692FF06C0869586958695DCDF1092B9
:10281000020608959091040692FB222720F92817BA
:1028200071F080FB92F99093040660910306709119
:10283000040684E090E00E94D72F82E0D4CF089570
:10284000E3EFF5E0818121E0438162818B5F2CCF52
:10285000E3EFF5E0818121E043816281855024CF5F
:10286000E3EFF5E0628121E1620F08F46FEF21E010
:102870004381818119CFE3EFF5E0628121E1621BA1
:1028800008F460E021E0438181810ECFE3EFF5E0C1
:10289000438121E1420F08F44FEF21E06281818101
:1028A00003CFE3EFF5E0438121E1421B08F440E070
:1028B00021E062818181F8CEAB0124E630E0BC01E9
:1028C00088E70E949F2C9C0181E0232B09F080E087
:1028D000089580912705811561F080912605811565
:1028E00041F062E070E08EEA90E0E6DF8111109244
:1028F00026050895809127058115E9F0E2D9DC01CC
:10290000CB01805A9541AF4FBF4F809328059093DC
:102910002905A0932A05B0932B05809126058111E6
:102920000AC062E070E08CEA90E0C6DF811519F021
:1029300081E08093260508951F93CF93DF93982F0E
:10294000162F81E09A3019F09D3031F480E084D068
:10295000DF91CF911F910895C0912303D09124035B
:1029600086E0FE01AFE0B3E001900D928A95E1F7B9
:10297000903E90F186E0FE0111928A95E9F7C091B0
:102980002303D0912403111133C046E050E0BE016F
:102990008FE093E00E94952F9E0125523340892BB2
:1029A00091F52A5F3F4F40912C05642F70E0C901DB
:1029B0000E94D92E481B463010F4240F311D2115DA
:1029C00072E0370710F020E030E02B5D3C4F309391
:1029D000240320932303BCCFF6E09F9FB001112472
:1029E0006E57764F46E050E0CE010E947F2FC7CF52
:1029F0009E012A5F3F4FFE012E173F0731F2808173
:102A000080958193F9CFC90145E0969587954A95C0
:102A1000E1F741E050E0BA0102C0660F771F8A95E6
:102A2000E2F7CB016091210370912203862B972B53
:102A3000B9016B5F7F4FE5E076956795EA95E1F721
:102A400002C0440F551F6A95E2F7842B952B909393
:102A5000220380932103A5CFCF93382FE091230346
:102A6000F0912403E552F34020912C05622F70E091
:102A7000CF010E94D92E281B822F311561F066E00C
:102A80000E94242FC82FC15010F4CF91089560E008
:102A900080E252DFF8CF8E0F9F2F911D811522E02B
:102AA000920710F080E090E08B5D9C4F90932403A0
:102AB00080932303EACF1F93CF93DF93EC01162F6C
:102AC000FE018491811104C0DF91CF911F9108957F
:102AD000612F32DF2196F4CF8F929F92AF92BF92F7
:102AE000CF92DF92EF92FF920F93CF93DF9388E024
:102AF00090E00E94B32F4B015C01C3EFD5E06883E7
:102B00009982AA82BB821C821D821E821F8283E25E
:102B100090E00E94AB2F282F30E040E050E060E0D2
:102B200070E080E090E000E20E94492F28293929D6
:102B30004A295B29288339834A835B836C837D839D
:102B40008E839F83DF91CF910F91FF90EF90DF9065
:102B5000CF90BF90AF909F908F9008950F931F9349
:102B6000CF93DF93EC01FC0101900020E9F78F0186
:102B700001501109C017D10728F0DF91CF911F91A3
:102B80000F91089560E08991D7DEF4CF1F921FB6B0
:102B90001F9211248F939F93AF93BF9380912F0522
:102BA000811113C08091F6019091F701A091F80175
:102BB000B091F9014196A11DB11D8093F60190934A
:102BC000F701A093F801B093F901BF91AF919F91E4
:102BD0008F911F901FBE1F9018952FB7F89480916A
:102BE000F6019091F701A091F801B091F9012FBF82
:102BF0000895CF93DF938091B505811521F0EDDF26
:102C0000DF91CF91089569D8EB01862F9D2FF8CFE2
:102C10006091F3056695669570E041E050E087E0CD
:102C200091E00E94882F892B19F481E08093F105AF
:102C3000E0DF90935705809356058091F2058460FC
:102C40008093F20508959091F30590FF31C08115AE
:102C500081F1863080F58F73880F880F9091F3058E
:102C60009370892B8093F3058091F20581608093A6
:102C7000F205611519F083EF95E0CFDC6091F30563
:102C80006695669570E041E050E087E091E00E9433
:102C9000882F892B91F00E94940C81E08093590534
:102CA00020E04091F6056091F5058091F405FCCC9B
:102CB000089581E0D1CF85E0CFCFAADFEECF80911C
:102CC000F305869586958F5F863008F081E061E098
:102CD000BACF8091F305869586958A9509F485E0AB
:102CE00061E0B1CFCF93DF93EC0177DF8C1B9D0BBD
:102CF000DF91CF9108952F923F925F926F927F92D2
:102D00008F929F92AF92BF92CF92DF92EF92FF92FB
:102D10000F931F93CF93DF9380912705811509F4BB
:102D200051C0C0910D03D0910E0357DF8C1B9D0B3A
:102D3000C29748F152DF90930E0380930D0360E039
:102D400080E00E94C60C0E94FB0D8093EC02C090B4
:102D50006A05D0906B05E0906C05F0906D05809150
:102D6000B505811509F440C00E94610E6C197D09FA
:102D70008E099F092091260561367A4E81059105BD
:102D8000B0F12111A6DD8091210390912203892BBE
:102D900009F056C1809126058115A1F00E94610EAF
:102DA000009128051091290520912A0530912B05C5
:102DB000601B710B820B930B6F3F7F4F8F4F9F47B1
:102DC00008F487DDDF91CF911F910F91FF90EF9075
:102DD000DF90CF90BF90AF909F908F907F906F903B
:102DE0005F903F902F9008950E946D0EBFCF2111EC
:102DF00001C080DD8091B505811509F4E5C0C09062
:102E0000E802D090E902E090EA02F090EB020E9422
:102E1000610E6C197D098E099F09693C7105810558
:102E20009105A8F10E94610E6093E8027093E90297
:102E30008093EA029093EB028091EC05811104C02B
:102E400080915D01811139C063E080E00E94C60C71
:102E50008EE591E083DE60E080E00E94C60C81E0B8
:102E600080935D018091D60290E001968170992750
:102E70008093D6020197807699272091EC0221FF5A
:102E800028C060E670E086519B4F0E94DD0C65E033
:102E900080E00E94C60C80910006909101060E947D
:102EA0008C09823009F488C0833089F1813009F4BB
:102EB00087C060E08AEA95E02DC060E080E00E9473
:102EC000C60C8EE591E04ADE61E080E00E94C60C0F
:102ED000C9CF2091EF05211529F060E670E0865DED
:102EE0009B4FD3CF2091EE05211529F060E670E0CD
:102EF00086599C4FCACF2091ED0560E670E0211500
:102F000019F086559D4FC1CF86519E4FBECF60E0D0
:102F10008CEB95E0D0DD6AE080E00E94C60C009169
:102F2000F4051091F505D091F60584E691E016DEE2
:102F30001092E202CAE0802F6C2F0E94242F905D35
:102F40009093E1020E94242F905D9093E002805DB7
:102F50008093DF028FED92E001DE87E691E0FEDDF7
:102F60001092DE02812F6C2F0E94242F905D90938F
:102F7000DD020E94242F905D9093DC02805D80939F
:102F8000DB028BED92E0EADD8AE691E0E7DD10926C
:102F9000DA028D2F6C2F0E94242F905D9093D9021E
:102FA0000E94242F905D9093D802805D8093D70279
:102FB00087ED92E0D3DDE7CE60E086EB95E0AACF27
:102FC00060E080EB95E0A6CFC090E402D090E502EF
:102FD000E090E602F090E7020E94610E6C197D0914
:102FE0008E099F09693C71058105910508F4CBCED6
:102FF0000E94610E6093E4027093E5028093E60202
:103000009093E7028091E30290E0019663E070E024
:103010000E94302F8093E302009739F460E471E05E
:1030200082E498E00E94DD0CAECE019791958195E7
:1030300091098074917060E471E08E539A4FF2CFE1
:1030400080912705811509F4A5CE80912505811170
:10305000A1CE50DC209121033091220321153105AE
:1030600009F498CE10E041E050E0812F90E01A0181
:10307000012E02C0220C331C0A94E2F7B101622334
:103080007323672B11F41F5FF0CF20912D0520FFD4
:1030900094C0912F990F990F990F37E0390F80E065
:1030A00023E0909302018093050130930301209364
:1030B000060124E630E047E050E060E071E088E798
:1030C0000E94552C892B09F065CE60E2169FA00165
:1030D000112480912D0580FF7CC0EDEEF2E080E2AE
:1030E000DF011D928A95E9F7A1E7B1E00DE611E055
:1030F00085E7C82E81E0D82E97E0592E7724739467
:103100008D91E80129918E01240F352F311D2B5D02
:103110003C4FE82FF0E0E351FD4F80E090E0652C5C
:10312000681A872C082E01C0880C0A94EAF77901E6
:10313000A12CE701B9907E01B820662D6A1967704D
:1031400070E0DB2D062E01C0DD0F0A94EAF79D2EFC
:103150007195619571096770772701C0B6946A957A
:10316000EAF79B286081962A9082A39468E0A612D1
:10317000E0CF019631968830910589F6CA16DB06B4
:1031800009F0BECF04E610E020E230E04DEE52E060
:1031900060E488E70E94E52C892B09F0FBCDE10172
:1031A000C095D09580912103909122038C239D237B
:1031B0009093220380932103EDCD96958795969564
:1031C0008795282F912F9295990F90763FE1390F8F
:1031D00068CF4B5D5C4F04E610E020E230E0D8CFD2
:1031E000FCDC2091E8053091E905232B211521F025
:1031F00080937005909371052091EA053091EB055D
:10320000232B211521F080936E0590936F05E0919B
:10321000B905F091BA05309759F00680F781E02D95
:10322000309731F082E08093E60586EE95E00995CF
:103230000895611509F449C0E3E3E80FE33150F460
:10324000F0E0E351F04D0C94432F0E94B60D8195B0
:103250008093E905C5CF0E94B60DFACF0E94B60D46
:1032600081958093E805F6CF0E94B60DFACF0E94B3
:10327000D60D8093EA05EECF0E94D60D8195F9CF49
:103280000E94D60D81958093EB05E4CF0E94D60D68
:10329000FACF815D990B21E030E001C0220F8A95C1
:1032A000EAF78091E705822B8093E705D3CF8091E1
:1032B000E50581608093E505CDCF8091E5058260CD
:1032C000F9CF8091E5058460F5CF4091E8058D3C0C
:1032D00059F48091E90587FF0DC01092E905411569
:1032E00059F41092E40508C08E3C81F48091E90500
:1032F00018169CF3411581F08091EA059091EB0539
:10330000892B8111A7CF1092E305A4CF8F3C41F404
:1033100047FFF0CF1092E8058091E9058115E0CFD5
:10332000803D19F41416B4F3E5CF9091EA05893D78
:1033300029F41916FCF61092EA05DCCF8A3D19F43F
:1033400097FFD8CFF8CF9091EB058B3D29F497FFED
:10335000D1CF1092EB05CECF8C3D19F41916CCF3DA
:10336000C9CF9FE2980F983090F4815D990B21E0CE
:1033700030E0B90102C0660F771F8A95E2F7CB01F2
:1033800080959091E70589238093E705B3CF8D3D24
:1033900031F48091E5058E7F8093E505ABCF8E3DBE
:1033A00021F48091E5058D7FF7CF8F3D09F0A2CF05
:1033B0008091E5058B7FF0CF0F931F93CF93C82F9C
:1033C000811539F18CEF8C0F813AA8F502ED11E0EF
:1033D000F8018191C81709F121E0E83DF207C9F72A
:1033E000EFEF80E0D8019D918D01C91781F0EF3F8B
:1033F00019F4911101C0E82F8F5F863099F7EF3FE4
:1034000031F00E2E000CFF0BE053FE4FC2830E94E2
:10341000C910CF911F910F910895E2EDF1E08191D4
:10342000C81302C0DF011E9231E0E83DF307B9F78F
:103430000E94C910D5CF80E28C0F883068F4C77025
:1034400081E090E001C0880FCA95EAF7C091FB05C2
:10345000C82BC093FB05DBCF8BE58C0F833038F492
:103460002C2F2452330BC9010E940E0ED2CFE8E557
:10347000EC0FEB3150F4F0E0EE0FFF1FE856FE4F7B
:10348000808191810E94360EC4CF83E38C0F8331FB
:1034900008F0BFCF61E08C2FCCDEBBCF8115A9F146
:1034A0009CEF980F913A68F4E2EDF1E09191891365
:1034B00002C0DF011E9291E0E83DF907B9F70C94D4
:1034C000C91090E2980F983050F4877091E001C0D5
:1034D000990F8A95EAF7892F0E94220AF0CF9BE57F
:1034E000980F933020F480E090E00C940E0E98E555
:1034F000980F9B3120F480E090E00C94360E93E31B
:10350000980F933110F460E094CE08950F931F93B9
:10351000CF93DF93D82FC92F8B0165E171E10E9412
:1035200083098BE249DF8FE99FE00197F1F700C043
:10353000000001501040B9F78BE2B0DF6EE171E19D
:103540008D2F9C2F0E948309DF91CF911F910F91A6
:103550000895CF93C82F30DF8FE39CE90197F1F7EF
:1035600000C000008C2F9ADFCF910895CF93DF9396
:1035700080E090915F0520915E052917D1F1E92F38
:10358000F0E0E05AFA4FC081DC2FDF77C7FBCC2791
:10359000C0F99F5F937090935F0580915D058F5F89
:1035A00080935D0580910006909101060E948C0930
:1035B000813031F48EE4C11101C08BE4CADF0BC04D
:1035C000823059F46AE070E08BE291E0C11102C0F0
:1035D0008BE293E09BDF81E0CCCFD11105C08AED77
:1035E000C111ECCF89EDEACF8AEAC111E7CF89EAB0
:1035F000E5CFDF91CF910895CF931092FB05C6E000
:10360000E2EDF1E0DF018C2F1D928A95E9F780E071
:1036100090E00E940E0E80E090E00E94360E109224
:1036200005060E94C910E6EEF5E0DF011D92CA957D
:10363000E9F71092E4051092E3051092E505D0DD5C
:10364000CF910895D9DF88E19AE00FB6F894A89554
:10365000809360000FBE90936000FFCFA0E0B0E0C9
:10366000E4E3FBE10C94F72E7C01FC0184818115DD
:1036700009F46AC061E0C7010E945D0BEC01863E5F
:10368000910509F48AC018F5833E910509F480C0BC
:10369000D8F48C32910509F485C0803E910509F477
:1036A00072C0F7019581911509F4D0C08091FB0596
:1036B0008272FE01E052F847EB30F10508F0C6C017
:1036C000E050F04D0C94432F843E9105E8CF8234B6
:1036D000FEE79F07D9F070F480349E47D1F1C134E2
:1036E0008EE7D807F1F6F7018581811509F447C007
:1036F00082E034C0C3349EE7D90799F6F70185818B
:10370000811599F080914706855007C0F7018581A2
:10371000811559F0809147068B5F8093470620E022
:10372000409148066FEF0E94541380910206877003
:10373000811551F0F7018581811531F080910406E2
:1037400082FF02C082E04FD8CDB7DEB7E8E00C942C
:10375000132FF7018581811579F081E026D88091BA
:103760000006909101069C01267033272630310512
:1037700041F4886014D8D9CF81E025D8F0CF82E019
:10378000FCCF877FF7CFF70185818093EF0589CF45
:10379000F70185818093EE0584CFF70185818093C1
:1037A000ED057FCFF7018581811531F081E08093B0
:1037B000EC0510925D0175CF1092EC0572CF8091EF
:1037C000F30580FF11C08E7F8093F30583EF95E0B2
:1037D0000E940D130E94940C8091F20581608093E9
:1037E000F2050E94570CA1CF81608093F30561E040
:1037F0008695869528DA99CF811521F06ADA95CFDA
:103800008115E1F35CDA91CF811521F021D88DCFBC
:103810008115E1F315D889CF811521F02CD885CFFA
:103820008115E1F31DD881CF811521F03AD87DCFE4
:103830008115E1F32BD879CF811529F00E944A1325
:1038400074CF8115D9F30E9440136FCF9E01205E83
:10385000324520323105A8F4911126C0CF7181E0A4
:1038600090E09C0102C0220F331FCA95E2F7E901E4
:10387000622F83E090E00E94BD2FCE010E94AB0931
:1038800054CF911569F1CB353CE7D30701F1CC3525
:103890008CE7D80799F081E0CA35ECE7DE07A1F0A4
:1038A000C130FCE7DF07D9F0C3302CE7D20789F03D
:1038B000C115DC47A9F4A0DE0E948D0E809104069C
:1038C000002482FF0394802D0E940A142ECF80E0F2
:1038D000FBCF6FEF7FEF80E090E00E94D72FB2DE4A
:1038E000F70100811181911509F446C0C8010E94B9
:1038F0002B0BC82F682FC8010E94B009B8018C2F6C
:103900000E940D0B0E942A0AD82FC92FF701D580DB
:10391000C680C2948FE0C82280910206877081150C
:10392000F9F00D2DD114E9F0892F807F803461F0FA
:1039300080E28D0F8830A0F0892F807E803221F4C4
:10394000D23070F0C11461F08091040682FF08C08B
:1039500082E00E94F31380910206877001E08111DA
:1039600000E0EC2FE295EF70C03C08F068C0F0E09A
:10397000E55FFF4C0C94432FC8010E94E509C82F56
:10398000BDCF1C2F1F70C03110F01295107FD114C5
:10399000B9F0111569F080E28D0F883010F0D11167
:1039A00009C08091FB05812B8093FB050E94C91003
:1039B0008D2F3FC080910506812B80930506F6CFA1
:1039C0008D2F6CDD1115D9F180E28D0F883010F04C
:1039D000D11104C0812F0E94220A06C01095809147
:1039E00005068123809305060E94C91028C01C2F5C
:1039F0001F70C07FC03211F01295107FD11549F0B1
:103A0000D13009F465C0D11409F471C0C11499F121
:103A1000CFCF8091040682FD2AC0D11461F0111528
:103A200039F08091FB05812B8093FB050E94C91022
:103A300080E0C2DC04C080E031DD1111CBCF011584
:103A400009F4C2C08091020680FDBEC0F701158254
:103A50008695869586950E94D513C701FFDD8091D6
:103A600002068695869586950E94E313ADC0D11413
:103A700099F0C11004C0812F0E940711E0CFF1E03E
:103A8000CF12DDCF8091FC05912F98231917B9F241
:103A9000812B8093FC05D3CFC110D1CF812F0E9401
:103AA00010119091FC05812F8923811529F0812F18
:103AB000809589238093FC058091FD05912F9823A3
:103AC000911509F4BCCF109518231093FD05B7CFBD
:103AD000D11429F026E0C21608F0B1CFCCCF35E0E2
:103AE000C31608F0ACCF812F0E941011A8CFC114CB
:103AF000D1F3D93361F48FEF97EEE3E0815090403A
:103B0000E040E1F700C000008D2FC8DC98CF8FE3C4
:103B10009CE90197F1F7F6CF8C2F869586958370F7
:103B2000811569F0813009F08ACF8D2F9C2F937019
:103B3000D11002C080E090E00E94360E80CF8D2F21
:103B40009C2F9370D11002C080E090E00E940E0E76
:103B500076CF6D2D8D2F6DDB72CF8C2F8370811101
:103B600046C0D1102FC04D2F429546954770440F47
:103B7000440F2D2F2F7030E0042E02C0220F331F70
:103B80000A94E2F780E090E0D4FF09C08FE090E073
:103B900002C0880F991F4A95E2F780959095C695C7
:103BA000C695C370C230D1F0C330A9F04091FE0574
:103BB0005091FF05C13069F0822B932B842395230C
:103BC0000E94AB090E94FB0D60E0C7010E945D0BE3
:103BD000BBCD242B352B822B932BF2CF822B932B17
:103BE0002091FE053091FF0582279327E9CFD1145C
:103BF00091F1C0FFE7CF4D2F429546954770440F96
:103C0000440F2D2F2F7030E0042E02C0220F331FDF
:103C10000A94E2F780E090E0D4FF09C08FE090E0E2
:103C200002C0880F991F4A95E2F780959095C69536
:103C3000C695C370C230C1F0C33099F04091000600
:103C400050910106C13059F0822B932B8423952388
:103C50000E94CF13B7CF823008F4B4CFCCCF242B3F
:103C6000352B822B932BF4CF822B932B20910006A4
:103C70003091010682279327EBCFCF70D11439F012
:103C80008C2F0E94D5138D2F0E9407119BCF8D2F53
:103C90000E9410118C2F0E94E31394CFD23FA9F100
:103CA00068F4D03FC1F0D13F89F0D11409F45EC06F
:103CB000C11409F458C08D2F7FDB84CFD33F61F14D
:103CC000D43F99F79091040692FD34C08C2F8F71E8
:103CD000D11409F31EC0D114A9F095E0C91608F05B
:103CE00071CFCF7181E090E0FC0102C0EE0FFF1FA9
:103CF000CA95E2F7EF0180910006909101068E27A8
:103D00009D27A6CFF6E0CF16EACF8C2F8F71D1106A
:103D1000C2CF0E94D51356CF80E090E0D11409F4B1
:103D200097CFCF7181E090E002C0880F991FCA95AC
:103D3000E2F78ECFD11461F08C2F8F7192FFE9CF13
:103D4000982F990F990F990F936090930206E1CFE6
:103D500081E00E94F31322E0C21608F433CF82E020
:103D60000E94F3132FCF8C2F8F71D3CFC11499F0F2
:103D7000D93361F43FEF87EE93E0315080409040BB
:103D8000E1F700C000008D2F89DB1CCFEFE3FCE9D9
:103D90003197F1F7F6CF8C2F8F717DCF809146064A
:103DA000803178F480914506811559F0E09107063D
:103DB00020910606309141064091400657E02E13AF
:103DC00001C008956E2F70E05E9FF0011124DF01A5
:103DD000A85FB94F14968C911497811551F11196E3
:103DE0008C911197831325C08C91841322C0159652
:103DF0008C91159781111DC012968D919C91A09167
:103E00004206B09143068A1B9B0B883C910588F4BF
:103E1000809146068F70806180934606E25FF94F7D
:103E200080818F708061808380E496E017DC0C9441
:103E3000180AFB013196E770C2CFADE0B0E0E3E2D3
:103E4000FFE10C94F22E8C0186E0F801DE01189659
:103E500001900D928A95E1F7F801F580C48080E425
:103E6000882E86E0982E7090440671101FC0C114F1
:103E7000D1F0F11409F415C1C8010E94850B811518
:103E800009F40FC187E0F801D40101900D928A95E1
:103E9000E1F7F1E0CF1206C0809140069091410613
:103EA0000E94790B7BDFFF24F39453C0E080A28053
:103EB000B380D090450680914206909143069501CB
:103EC000281B390BD11409F4B5C0283C310508F082
:103ED0008DC0C11441F390914106C1808091460686
:103EE000803108F056C0C91213C0909140069E114F
:103EF0000FC0F11048C08F7080618093460680E447
:103F000096E0ACDB80914606F8018683F12C21C057
:103F1000F11039C040E06C2D8E2D0E94F10F40E071
:103F20006C2D8E2D0E94F10FF82E8111EFCF888518
:103F300099850E94790B292F22952F70903470F467
:103F40009F70223098F09115A9F0F8019681903178
:103F500088F48F2D2D96EDE00C940E2F2A5F2F7094
:103F6000223060F0C8017ADBFD2CF3CF911511F0FF
:103F7000811579F3805E883060F3F4CF803F48F399
:103F8000815F8330F9CF8091460681608093460639
:103F9000BDCFC91207C0909140069E1103C0F11415
:103FA00009F469C0C8010E94850B811509F479C024
:103FB000F11409F476C080914606803270F02091A9
:103FC0004006309141063A832983BC82AB827D82D0
:103FD0001E828F83CE01019641DB87E0F801A0E4C9
:103FE000B6E001900D928A95E1F75CCF809146068C
:103FF000803148F480E496E031DB87E0F4011192EF
:104000008A95E9F783CFC11409F44DCF2091410679
:1040100091812913C7CF909140069E11C3CFF11013
:10402000C1CF8683C8011ADB87E0F40111928A951B
:10403000E9F739CF283C310500F7C11409F433CF33
:10404000F11479F1909141068181981320C08091FB
:1040500040068E111CC08091460680FD0FC0803145
:1040600068F08683807F803F39F08681982F907F2B
:10407000905F8F70892B8683C801F0DA87E0F801A2
:10408000A0E4B6E001900D928A95E1F70CCFC8014B
:104090000E94850B8111A1CF80914606816080939B
:1040A0004606C801DBDAFFCEABE1B0E0EAE5F0E2BC
:1040B0000C94FB2E4E8B5F8B688F798F8A8F192F14
:1040C0009B8F9111109205061D8A86E0FE0176965F
:1040D000DE011F9601900D928A95E1F70A8D011578
:1040E00061F00B8B1C8B61E0CE010F960E945D0B83
:1040F00061E0CE010F960E945D0B0B8B1C8B87E05D
:10410000FE013F96DE01189601900D928A95E1F727
:10411000CE01089692DE811128C0209106063091CA
:10412000070687E0FE013896DE01119601900D9298
:104130008A95E1F78C858115C1F0822F90E0019678
:104140008770992738171906D9F097E0929FD00108
:104150001124A85FB94FFE01319601900D929A95F6
:10416000E1F7809306060E94180A17E0809107067F
:1041700090910606891311C06B96E4E00C94172FFA
:104180003BDA109206061092070687E0E0E4F6E0BC
:10419000DF011D928A95E9F7E8CF189FC00111242D
:1041A000885F994F4ADE811539F38091070690E0C8
:1041B00001968770992780930706D8CFA6E0B0E0D4
:1041C000E4EEF0E20C94FB2E0E94ED158C01809140
:1041D000B7059091B8058017910771F019821A827E
:1041E0000E94ED15BC0149815A8180E090E05CDFBE
:1041F0001093B8050093B7052696E4E00C94172FAA
:10420000AAE2B0E0E6E0F1E20C94FC2E86EE91E04A
:10421000FC0101962091F100208321E08E3E92075F
:10422000B9F78091E701893009F459C0C8F48230A8
:1042300009F4B5C0833009F484C0813089F18091DC
:10424000E80083FFE9C08091E6019091E7019A3090
:1042500008F0E2C0E92FF0E0E95EFF4C0C94432F38
:104260008A3009F48BC08B3051F78091E60181329E
:1042700031F78091EA019091EB01892B01F7809150
:10428000E800877F8093E8000E94F80E81E090911B
:10429000E801911101C080E080930A01ADD9CFCF30
:1042A0008091E601813A59F68091E800877F8093FA
:1042B000E8008091EA019091EB01892B61F060E0C8
:1042C00080E090E070E00E949F0E8091E8008B7784
:1042D0008093E800B4CF68E08EEE91E0F3CF809158
:1042E000E601813209F0ABCF8091EA019091EB01B8
:1042F000029708F0A4CF8091E800877F8093E800C0
:104300008091E80082FF18C09091F3008091F20044
:10431000029731F48091F100813011F0863021F460
:104320008091F100809309018091E8008B77809360
:10433000E8000E94F80E83CF809133058111E0CF11
:104340007ECF8091E601813A09F079CF8091EA0130
:104350009091EB01892B09F072CF8091E800877F63
:104360008093E8008091E80080FFFCCF80910A01F3
:104370008093F1008091E8008E77D9CF8091E6019B
:10438000813209F05CCF8091E800877F8093E8005C
:104390000E94F80E8091E9018093080150CF80912E
:1043A000E601813A09F04BCF8091E800877F809346
:1043B000E8008091E80080FFFCCF80910801D8CF11
:1043C000803889F0823841F58091EA018F7087301A
:1043D00018F58093E9008091EB0085FB882780F930
:1043E0001092E90006C080913205880F9091E30198
:1043F000892B9091E800977F9093E8008093F100DB
:104400001092F1008091E8008E7723C0811116C0D0
:104410008091E801813011F18091E80083FF0AC0AA
:104420008091E800877F8093E8008091EB008062B4
:104430008093EB00AA96E3E00C94182F823061F78A
:104440008091E801811589F01092E9008091E800DF
:10445000877F8093E8000E94F80EDECF81E09330E2
:1044600009F080E080933205EFCF8091EA018F70F0
:104470002FEF280F263080F68093E9002091EB0083
:1044800020FFE2CF933031F48091EB008062809383
:10449000EB00DACF9091EB0090619093EB0021E07C
:1044A00030E0A90102C0440F551F8A95E2F74093FE
:1044B000EA001092EA008091EB008860E8CF811159
:1044C000ABCF1091E8011F778091E3008078812BBA
:1044D0008093E3008091E800877F8093E8000E944A
:1044E000F80E8091E80080FFFCCF8091E3008068A7
:1044F0008093E30083E0111101C082E080933305D3
:104500008BCF8058823008F087CF2091E80130911E
:10451000E9012C3D53E0350799F583E08A838AE26F
:1045200089834FB7F894DE01139620E03EE051E214
:10453000E32FF0E050935700849120FF03C0829551
:104540008F703F5F8F708A30C8F0895C90E08D93E8
:104550009D932F5F243161F74FBF8091E800877FE3
:104560008093E8006AE270E0CE0101960E949F0EFF
:104570008091E8008B778093E8004ECF805DE6CF96
:10458000832F99278330910529F160F481309105BB
:1045900009F475C0029709F03FCF8BE390E0EFE696
:1045A000F1E02CC02091EA013091EB0181329105BC
:1045B00009F459C0829709F02FCF2115310509F46C
:1045C00068C02130310509F027CF8BE790E0E0EBA0
:1045D000F0E014C0C90199272130A9F1823091057A
:1045E000D1F1892B09F018CFE6EEF1E0E4918E2F9E
:1045F00090E0E6EEF1E0009709F40ECF2091E8009C
:10460000277F2093E8002091EC013091ED01821783
:10461000930708F49C0140E02115310509F03EC0E4
:1046200041113CC08091E80082FDA2CF809133050A
:10463000811509F49DCF853009F49ACF8091E80067
:1046400083FFF0CF95CFEAECF1E0E4918E2F90E07C
:10465000EAECF1E0D0CFECEBF1E0E4918E2F90E0CA
:10466000ECEBF1E0C8CF2115310571F021303105B7
:1046700009F0D2CE89E090E0EAE9F1E0BFCF82E133
:1046800090E0EAEAF1E0BACF89E090E0E1E8F1E019
:10469000B5CF84E490E0EBE2F1E0B0CF8091330558
:1046A000811509F465CF853009F462CF8091E80067
:1046B00083FD5ECF8091E80082FDB4CF8091E80059
:1046C00080FFAACF9091F3008091F200211531056F
:1046D00019F08830910550F041E0089709F040E06A
:1046E0008091E8008E778093E80096CF44914093C4
:1046F000F1003196215031090196E8CF803809F058
:104700008BCE8091E800877F8093E8008091E40160
:104710008093F10077CE81117FCE1091E8011230A5
:1047200008F07ACE8091E800877F8093E8001093AC
:10473000E4010E94F80E1115A9F084E0809333057E
:1047400042E061EC81E00E94670F42E261EC82E0AE
:104750000E94670F80913305843051F482E080938A
:104760000B015ACE8091E30087FDE7CF81E0E6CFD1
:1047700081E0F5CFA5E1B0E0E0ECF3E20C94EE2EA1
:10478000FE013C968AE0DF011D928A95E9F78BE7EE
:10479000E82E81E0F82E8F0190E8692E91E0792EC5
:1047A0002F01AA24A394B12C36E8832E31E0932E56
:1047B000F70181917F018F3F09F43EC0F894E82F03
:1047C000E295EF70F0E021A18F70A50102C0440FC7
:1047D000551F8A95E2F7CA01922F982B91A392A1B7
:1047E0008095892382A3789400C0E0E8F1E031E06D
:1047F000312C21912F3F79F0A22FA295AF70A05EAE
:10480000B0E08C9190E02F7002C0959587952A9525
:10481000E2F780FF90C080E0382A330F8E169F06A3
:1048200041F7F70182918F3F11F00E94B20B50EADD
:104830005A95F1F7D8013C920F5F1F4F6E147F0419
:1048400009F0B6CF4AE050E0B20185E193E00E9462
:10485000952F6C01892B41F08AE0F201A5E1B3E0CC
:1048600001900D928A95E1F70091200310E00C5C15
:104870001A4FC114D10409F460C081E08093E101B2
:104880000E94ED159093E0018093DF018091B505C2
:10489000FE0131967F01811509F4A8C085E0DF0192
:1048A0001D928A95E9F78091E2018A3008F069C08B
:1048B00044EC51E1B701C8010E948F10811509F441
:1048C00083C045E352E1B701C8010E948F108115F2
:1048D00009F47AC04DE752E1B701C8010E948F1078
:1048E000811509F471C04EEC52E1B701C8010E9474
:1048F0008F10811509F468C042E552E1B701C80183
:104900000E948F10811509F45FC01092E20180911E
:104910001F0390E045E050E0B7018C5C9A4F0E9485
:10492000952F21E02093DE01892B09F041C0659687
:10493000E1E10C940A2F832F6FCF8091E101811563
:1049400009F4A4CFE090DF01F090E0010E94ED15A2
:104950008E199F090A9708F499CF45E050E065E168
:1049600073E0C8010E94952F892B41F085E0E5E1B5
:10497000F3E0D80101900D928A95E1F71092E101E0
:1049800085CFC090DC01D090DD010E94ED158C191F
:104990009D09843F914008F08BCF8091DE01811505
:1049A00031F285E0F70111928A95E9F71092DE0164
:1049B000A0911F03B0E0AC5CBA4F85E0F701019015
:1049C0000D928A95E1F7B3CF8091E2018F3F39F4E0
:1049D0000E94ED159093DD018093DC01DECF8F5FA7
:1049E0008093E2018A3008F492CFF2CFC0901F0387
:1049F000D12C96012C5C3A4F690185E0F801AFE8B3
:104A0000B5E001900D928A95E1F765E070E08FE8DE
:104A100095E00E94900D80938E0585E0E4E9F5E035
:104A2000D60101900D928A95E1F788E0ECE5F5E07A
:104A3000AAE9B5E001900D928A95E1F768E070E08F
:104A40008AE995E00E94900D809399058090A205D7
:104A50009090A305A090A405B090A5058091D801E1
:104A60009091D901A091DA01B091DB0188169906E5
:104A7000AA06BB06B1F08092D8019092D901A0920B
:104A8000DA01B092DB010E94610E861A970AA80A29
:104A9000B90A8092B1059092B205A092B305B09286
:104AA000B4058BE0E6EAF5E0D70101900D928A9516
:104AB000E1F7F090A705E090A805D090A905009136
:104AC000AF051091B0051092B005111509F42FCF64
:104AD00010FF0DC0898180FF1EC09091F305916089
:104AE0009093F30560E0869586950E94231611FF4A
:104AF00006C020E04D2D6E2D8F2D0E94541312FF05
:104B000004C0011559F00E94081613FF10CF81E070
:104B1000809359050CCF0E949B0CE9CF0E94940C06
:104B2000F4CFCDB7DEB72C970FB6F894DEBF0FBE2B
:104B3000CDBF85B7806885BF85B7806885BF84B7DE
:104B4000877F84BF0FB6F894A89580916000886134
:104B500080936000109260000FBE80E890E00FB676
:104B6000F89480936100909361000FBE81E0809380
:104B70000B0180EB9BE09093CF018093CE010E94CC
:104B8000480F0E94970F8091E20084608093E200BA
:104B9000789480913305811591F08091E90010910E
:104BA000EC008F70179511271795182B1092E900BC
:104BB0008091E80083FD24DB1F701093E90082E000
:104BC00084BD93E095BD9AEF97BD80936E001092DF
:104BD000B1051092B2051092B3051092B40588EC9D
:104BE00090E02091E30027FD0EC0AFE3BCE91197F0
:104BF000F1F700C000000197A1F70E94480F109242
:104C0000330580E001C081E08093B5058093B6054F
:104C1000811509F4C1C010920C0184E280930D014A
:104C200075D7ECE5F5E088E0DF011D928A95E9F79C
:104C30008091B60591E0282F29272093660590934F
:104C40006905811106C084EF8093120185EF80937E
:104C5000110160E080E00E94430D61E080E00E946D
:104C6000430DEFE8F1E03197F1F700C0000010E0EC
:104C700080916905181708F495C08091B60590E0F9
:104C8000811101C095E09093200385E0891B8093FA
:104C90001F030BE711E050E8E52E51E0F52ED80197
:104CA0008D918D018F3F11F00E94B20BE016F1063D
:104CB000B1F700E811E0F80181918F018F3F11F009
:104CC0000E94B20BF1E006381F07A9F78AE0E4E37F
:104CD000F5E0DF01282F1D922A95E9F7E5E1F3E0E1
:104CE000DF011D928A95E9F780E090E00E94B82FDD
:104CF000833E9E4F61F163EE7EEF80E090E00E9484
:104D0000D72F60E082E090E00E94BD2F81E090E02C
:104D10009093FF058093FE0561E083E090E00E94A0
:104D2000BD2F60E074E184E090E00E94D72F0E94E4
:104D30002E1340E050E0BA018FE090E00E94CF2FA8
:104D400040E050E0BA0183E190E00E94CF2F82E082
:104D500090E00E94AB2F8093480584E090E00E9491
:104D6000B82F909304068093030604DDEFEFF9EF6C
:104D700020E0E150F0402040E1F700C00000FADC04
:104D80008091340580FF20C06FEF7FEF80E090E0DE
:104D90000E94D72F0E948D0E84E280930C01809395
:104DA0000D013FCF60E0812F0E94660D082F61E06A
:104DB000812F0E94660DE12FF0E0E959FA4F880F2C
:104DC000802B80831F5F54CF83E090E00E94AB2F45
:104DD00090E00E94AB0980910006909101060E942C
:104DE0009E1383E080932D0580E280932C0527D5C8
:104DF0006BE070E089ED90E10E945C14811509F48C
:104E00003FC080912D0565E070E081FD2CC184EDEF
:104E100090E10E945C14811599F16DE070E082ECE4
:104E200090E10E945C14811559F10E94610EDC0131
:104E3000CB01805A9541AF4FBF4F80932805909387
:104E40002905A0932A05B0932B05E5E2F3E080E065
:104E500092E0DF019C011D9221503040E1F7F09378
:104E60002403E09323038FEF9FEF9093220380931B
:104E7000210381E080932705809326051092250564
:104E800080912E05811134C083EF95E00E946C154E
:104E90008091F20583608093F2058091F305843060
:104EA00008F0E4C00E942E1383EF95E00E946C1579
:104EB0008091F305843008F0D9C0837084608093BA
:104EC000F3058091F6058F3618F08EE68093F6058F
:104ED0000E94940C0E94830D8091F30580FF05C011
:104EE00060E0869586950E94231681E080932E05CA
:104EF0008091B505811101C00CD68091F405809395
:104F000047068EE68093480683E191E09093BA05C8
:104F10008093B90588248394912CCE0101968B87C8
:104F20009C8780913305853009F510E401E020E18C
:104F3000F22E32E1E32E80913305853009F49EC0D4
:104F40000E94FC1A0E94FB0D1092310580913005E1
:104F5000811551F08091F30581608093F30560E045
:104F6000869586950E9423160E94081603DC99E414
:104F7000A92E95E0B92EA4E3B5E0BA87A987F5017B
:104F800091918D9125E0E335F20709F4DFC0981780
:104F9000B9F34090B5058EE3E82E85E0F82ED12CCC
:104FA000A985BA85CD90BA87A987F50161905F017F
:104FB0006C1409F444C06C2400E010E0772473946E
:104FC000872D8621811599F1572C5C20411409F118
:104FD000D7018C9190E09401002E02C0220F331F64
:104FE0000A94E2F782239323892B99F40983DA82C6
:104FF0000E94ED159C838B83B1E0BD8391E051103D
:1050000001C090E09E8349815A816B817C818D81B2
:105010004BD851100CC0C401002E01C0880F0A9457
:10502000EAF7982F9095F701808189238083770C88
:105030000F5F1F4F0630110519F6F501C292D39488
:10504000FFEFEF1AFF0A2AE0D212AACF0E946D0EDC
:1050500060936A0570936B0580936C0590936D0562
:10506000DD24D39477C08FEC90E1D3CE8091F3050B
:10507000883108F426CF8370846121CF8091330575
:10508000843009F434C00E94940C80913105811160
:1050900009C0009331058091F3058170809330053C
:1050A0000E949B0C0E94691410922F0588E190E0E9
:1050B0000FB6F894A895809360000FBE109360001F
:1050C00083B7817F846083BF83B7816083BF789417
:1050D000889583B78E7F83BF0FB6F894A89580918B
:1050E0006000886180936000109260000FBE42DB18
:1050F000E4E3F5E0AEE3B5E080E021912D9391E0AB
:10510000211101C090E0892B95E0EE33F907A9F752
:10511000811509F410CF80913205811509F40BCF68
:10512000F9BCE9BC09B400FEFDCF8091D8008F7DA9
:105130008093D8008091E00082608093E0008091AD
:10514000E00081FDFCCF0E94FC1AF5CE981321CF20
:1051500035D8D12C8091F105811509F469C0809171
:10516000F005E091F305E695E695E81BE093580518
:10517000823009F074C0F0E0EC51FF4EE4918E2FC4
:1051800090E098878F8307EA1CE08091590581158C
:1051900061F0109259050E94F9159093570580937C
:1051A000560510925B0510925A050E94F9151C01D4
:1051B00080915605909157059101281B390B2F3F7F
:1051C0003F47B0F5209155052115B9F010925505CE
:1051D0002091530530915405A101421B530B4F3FC1
:1051E0005F4758F4205D3A483093540520935305A7
:1051F0002091F20528602093F205E0905A05F09086
:105200005B052F813885820F931F909357058093FC
:10521000560586E595E0F801099580915A0590912B
:105220005B05892B29F4EF2819F081E0809355055F
:10523000F090B505F11419F00E94B61AF82E80917D
:105240007B05811551F010927B0580915E0580935E
:105250005F0580915C0580935D05E12C40C090ED79
:105260009F83A7E0A8870FEC1BE08FCF61E08E2D16
:105270000E94660D182F60E08E2D0E94660D110FA2
:10528000812B0E2D10E0D801A959BA4FEC919E2F19
:105290009370891719F1EE0FEE0FE82BEC938091C4
:1052A00066058E0DEF70F0E0EA57FE4F0C591A4F6D
:1052B000C080D8019C91C90EB2E060E0CB1624F406
:1052C000EFEFCE161CF461E00E94220D8C2DCC0C69
:1052D000990B62E070E0C4D5D8018C93E39480917F
:1052E0006905E81618F28091B505811519F00E943C
:1052F000B61AF82AF11479F00E946D0E60936A05CF
:1053000070936B0580936C0590936D050E947B16DE
:105310000E947A1404C00E947B16D110F9CF86E057
:10532000E6EEF5E0AB85BC8501900D928A95E1F73C
:10533000B090E705D090E8051091E905C090EA0526
:105340000091EB051092E8051092E9051092EA052C
:105350001092EB05812F8D29811509F441C0E09051
:105360007005F09071050E94ED159C012E193F0902
:105370009091E405911509F4B2C02531310580F111
:105380009F3F19F09F5F9093E405D11459F00E945C
:10539000B60D91E01D140CF09FEF899F802D112414
:1053A0008093E805111559F00E94B60D91E0111691
:1053B0000CF09FEF899F802D11248093E905809147
:1053C000E805811569F0F090E905F11449F00E94B3
:1053D000A80D8093E8058F2D0E94A80D8093E90504
:1053E0008C2D802B811509F441C0E0906E05F09062
:1053F0006F050E94ED159C012E193F099091E30560
:10540000911509F467C02135310580F19F3F19F0EE
:105410009F5F9093E305C11459F00E94D60D91E06F
:105420001C140CF09FEF899F802D11248093EA05B6
:10543000011559F00E94D60D91E010160CF09FEF67
:10544000899F802D11248093EB058091EA058115B9
:1054500069F0F090EB05F11449F00E94A80D8093DB
:10546000EA058F2D0E94A80D8093EB058091E7053A
:10547000B81219C08091E805811511F08D1113C083
:105480002091E905211511F012130DC09091EB0543
:10549000911511F0901307C03091EA05311103C046
:1054A000822B892B81110E94F01886E0EB85FC8508
:1054B000A6EEB5E001900D928A95E1F70E94FB0DF2
:1054C00090917205891709F42CCD809372050E9482
:1054D000610E27CD2B30310508F09ACFC7CF2B3086
:1054E000310508F04FCF7CCF78941F921FB61F92E2
:1054F00011248F939F93AF93BF938091F601909166
:10550000F701A091F801B091F9010196A11DB11D1B
:105510008093F6019093F701A093F801B093F901FD
:10552000BF91AF919F918F911F901FBE1F901895B3
:105530001F920F920FB60F9211242F933F934F9308
:105540005F936F937F938F939F93AF93BF93EF93EB
:10555000FF938091E10082FF09C08091E20082FF09
:1055600005C08091E1008B7F8093E1008091DA009B
:1055700080FF24C08091D80080FF20C08091DA0095
:105580008E7F8093DA008091D90080FFA9C080E1EE
:1055900089BD82E189BD09B400FEFDCF81E0809321
:1055A00033058091E501811109C00E94480F0E94D6
:1055B000970F8091E20084608093E2008091E10087
:1055C00080FF1AC08091E20080FF16C08091E20047
:1055D0008E7F8093E2008091E20080618093E20000
:1055E0008091D80080628093D80019BC85E08093B8
:1055F000330583E080930B018091E10084FF2FC08D
:105600008091E20084FF2BC080E189BD82E189BDE9
:1056100009B400FEFDCF8091D8008F7D8093D80023
:105620008091E1008F7E8093E1008091E2008F7E87
:105630008093E2008091E20081608093E20080919B
:10564000E401811509F452C084E080933305809110
:105650003305843009F052C082E080930B018091C1
:10566000E10083FF2CC08091E20083FF28C080917D
:10567000E100877F8093E10082E080933305109200
:10568000E4018091E1008E7F8093E1008091E2004F
:105690008E7F8093E2008091E20080618093E2003F
:1056A00042E060E080E00E94670F8091F000886037
:1056B0008093F00081E080930B0180930A01FF91B9
:1056C000EF91BF91AF919F918F917F916F915F917A
:1056D0004F913F912F910F900FBE0F901F901895F3
:1056E00019BC109233051092E50168CF8091E30058
:1056F00087FF02C083E0A9CF81E0A7CF81E0ADCFD3
:105700001F920F920FB60F921124EF92FF920F93F8
:105710001F932F933F934F935F936F937F938F9339
:105720009F93AF93BF93CF93EF93FF9309EE10E056
:10573000F8018081C091EC008F70C795CC27C79588
:10574000C82B108280EFE82EF12CF7018081877F33
:10575000808378940E940021F8011082F7018081F3
:1057600088608083CF70F801C083FF91EF91CF9163
:10577000BF91AF919F918F917F916F915F914F9169
:105780003F912F911F910F91FF90EF900F900FBEBF
:105790000F901F901895FF920F931F93CF93DF9355
:1057A000182FEB011092BC0084EA8093BC000E9489
:1057B000ED15082FF92E8091BC0087FF28C080913D
:1057C000B900887F883029F08091B900887F8031C6
:1057D00099F51093BB0084E88093BC000E94ED15FE
:1057E000182F092F8091BC0087FF1EC02091B9009F
:1057F000287F80E090E0283199F081E090E020342B
:1058000011F480E090E091958195910909C0802F75
:105810009F2D0E947216C817D90768F68EEF9FEF6A
:10582000CDB7DEB7E5E002C3812F902F0E9472163C
:10583000C817D907B8F6F2CF8FEF9FEFF1CF1092CC
:10584000B9008CE08093B80008950F931F93CF9315
:10585000DF93EB018093BB0084E88093BC000E943F
:10586000ED15182F092F8091BC0087FF11C02091E2
:10587000B900287F81E090E0283211F480E090E0C8
:10588000919581959109DF91CF911F910F91089585
:10589000CF3FDC0741F3812F902F0E947216C8176B
:1058A000D90708F78EEF9FEFEECFA0E0B0E0EAE572
:1058B000FCE298C2782EB62EA72E6A01E9010E945A
:1058C000ED154C01C431D10510F1CF3FDC0719F1C2
:1058D000CE0164E170E06DD2F62EE72E6F2D7E2DA5
:1058E000872D59DF8C01892BC9F4EB2CFA2CCE0CB7
:1058F000DF1CEC14FD0419F001151105C9F084E951
:105900008093BC00C801CDB7DEB7EDE087C2FF24AD
:10591000F394E12CE3CF85E0F82EFBCFCF3FDC07FB
:10592000E9F2C4010E947216C817D907B8F6DDCF94
:10593000BE01F70181917F0188DF8C01DACFA0E001
:10594000B0E0E4EAFCE24EC2782EB62EA72E6A0141
:1059500089010E94ED154C010431110500F10F3F42
:10596000100701F1C80164E170E023D2EB01BE0130
:10597000872D11DF7C01892BB9F4CB2DDA2DCC0ECC
:10598000DD1ECC15DD0519F0E114F104B9F084E950
:105990008093BC00C701CDB7DEB7EDE03FC2C1E0E8
:1059A000D0E0E5CFC5E0FCCF0F3F100701F3C40105
:1059B0000E94721608171907D0F6DFCFFE018491F6
:1059C000B80143DF7C012196DCCFA0E0B0E0EAEE35
:1059D000FCE207C2682E962E5A01690178010E94E6
:1059E000ED15782E892E0431110518F10F3F10079F
:1059F00019F1C80164E170E0DCD1162F072F612F87
:105A0000702F862DC8DEEC01892BC1F0FFEFEF1659
:105A1000FF06A9F3872D982D0E947216E816F90645
:105A200070F784E98093BC00CE01CDB7DEB7EEE01D
:105A3000F4C111E000E0E3CF15E0FCCFB701892D00
:105A400004DFEC018501CA0CDB1C0C151D0549F3B4
:105A5000209739F7B701F80181918F01F6DEEC014B
:105A6000F4CF8EE14A9B02C08A95E1F74A9BFECFB4
:105A700008955A9880E28A95F1F75A9A0895FC01A0
:105A80003BE03A95F1F798E020E080E031E040E13A
:105A90004A95F1F7880F4A9B02C08160232742E0B4
:105AA0004A95F1F7000040E14A95F1F79A9579F7A8
:105AB00090E19A95F1F799B132E03A95F1F700004B
:105AC00040E14A95F1F792FB992790F992272081BE
:105AD000920F90830895A1E0B0E0E0E7FDE289C174
