:100000000C9440090C945D090C945D090C94602BD0
:100010000C945D090C945D090C945D090C945D09C8
:100020000C945D090C945D090C942E280C941629EF
:100030000C942C190C945D090C945D090C945D09C9
:100040000C945D090C945D090C945D090C945D0998
:100050000C945D090C940A280C945D090C945D09BC
:100060000C945D090C945D090C945D090C945D0978
:100070000C945D090C945D090C945D090C945D0968
:100080000C945D090C945D090C945D090C945D0958
:100090000C945D090C945D090C945D090C945D0948
:1000A0000C945D090C945D090C945D0900AF00AEE1
:1000B00005010980A101850319012AB70015012650
:1000C000B700950175108100C0050C0901A10185DB
:1000D0000419012AA002150126A0029501751081BC
:1000E00000C005010906A101050719E029E715006F
:1000F00025019508750181029501750881010507A3
:10010000190029FF150026FF0095067508810005D6
:10011000081901290515002501950575019102951C
:100120000175039101C009023B00020100A0FA0918
:100130000400000103010100092111010001224412
:100140000007058103080001090401000103000004
:10015000000921110100012232000705820320005D
:1001600001120100020000000832FC8702010001B8
:100170000200010C0353006F0066006C0065000074
:10018000001A034A006F00730065006600410064B6
:100190000061006D00630069006B0000000403094A
:1001A000040000000000000000000000000000E06B
:1001B0001C02050224040402A91EE0000000000045
:1001C00000000000000000E01008681008040300B0
:1001D0000000000000000206827C03000000000016
:1001E000000000000000000102040C10102020207C
:1001F000283E1C20203E0F111F00000000000000C0
:10020000000000000000000000000000000000E00E
:100210001C02050224040402A91EE00000000000E4
:10022000000000000000E0900818601008040300BF
:10023000000000000000020E827C030000000000AD
:10024000000000000000000102040C10102020201B
:10025000283E1C20203E0F111F000000000000005F
:100260000000000000E0100808C8B0808080808096
:10027000808040403C14040890180408B04080007E
:1002800000000000000102C4A4FC00000000800087
:10029000000000000000000080C858282A100F004D
:1002A0000000000000000E0904040404020302011F
:1002B000010202040810262B32040506000000008B
:1002C00000000000E01010F000000000000000003E
:1002D000808080782808102030081020408000009E
:1002E000000000000304081011F9010101010101DF
:1002F00000000000000000000110B05055201F0059
:100300000000000000000000000001020C10202886
:1003100037021E2020180C141E01000000000000EF
:1003200000000000000080402010909090A0C0804D
:1003300080807008140890101008A47880000000D5
:100340000000000000000708FC0100000000800021
:1003500000010000000000000818EA100F00000073
:100360000000000000000000031C20203C0F111FB3
:1003700003061820203C0C121E01000000000000A3
:10038000000000000000008040202020408000008D
:100390000000E01028102020201048F0000000008D
:1003A0000000000000001F20F8020101010101010E
:1003B00001030000000001001030D5201F000000E4
:1003C00000000000000000003F20300C0205091270
:1003D0001E021C140810202C320100000000000036
:1003E000000000000000008040404040800000000D
:1003F000000000C0404080008040800000000000FD
:1004000000000000001E21F00402020202030202AA
:100410000404040301000009018080AB04F800001B
:1004200000000000000000031C20203C0F111F02F0
:1004300006182020380810180404020201000000E9
:1004400000000000000000804040408000000000EC
:10045000000000E0A0204080C0204080000000009C
:1004600000000000003E41F004020202030202020A
:10047000040402010000000400404055827C00009A
:10048000000000000000003F20300C020509121E91
:100490000418100810202834060201010000000092
:1004A0000000C02010D0300000000000000080805C
:1004B000403C14040890180408B04080000000007C
:1004C00000000304081011F90101010101010000FD
:1004D000000000000080C848282A100F000000001B
:1004E000000000000000000001020C10202837026C
:1004F00002040810262B320405060000000000004C
:100500000000E01010F000000000000000008080FB
:1005100040402C14040890180408B04080000000EB
:1005200000000304081011F901010101010100009C
:1005300000000000000080C048282A100F204A094F
:10054000100000000000000001020C1020283702FB
:1005500002040810262B32040506000000000000EB
:10056000004241534520004C4F57455200524149EB
:100570005345004E554D50440000C03E0100000060
:10058000C0FCFFFFFF7C704040615E80C0BC030088
:100590000000000000000000003C03000000807824
:1005A0008700030F3FF8F0F0204080800000010139
:1005B00002040810204080000000000000F88700BE
:1005C0000106186080C03F0380780700000000002B
:1005D0000000000000000102040000F0CF0001064E
:1005E0001860808079078078070000000000000014
:1005F000383838000000000000E01E0100030C3015
:10060000C000F907807807000000000000C02C320D
:1006100022000000000000000007030C30C00000B2
:10062000F00F8078070000000000000000010200C9
:100630000000000000000000001860800000E11EC3
:1006400001F08F8080800000000E0E0E0000000080
:100650000000000000000000000808090E0E01F074
:100660000F000000000001011919410A22847800DE
:1006700000000000000080601800000000F00F0281
:100680000202020202020202020101010100000054
:100690000000000000060970800000F01F1010101C
:1006A00010100808080404020201010101010202FD
:1006B00002020202020204020100C03E0100000028
:1006C000C0FC0300030C30C000E11E00C0BC8380EE
:1006D0008080808000000000003C030000008078E3
:1006E0008700030C30C000E01F01C03C0300000085
:1006F00000000030310541120400000000F88700BE
:100700000106186080C03F038078070202020202DF
:100710000202020202010103050000F0CF000106FF
:1007200018608080790780780700000000000000D2
:10073000383838000000000000E0FEFFFFFFFCF04A
:10074000C000F907807807000000000000C02C32CC
:1007500022000000000000000007030F3FFF03011C
:10076000030718F807000000000000000001020065
:10077000000000000000000000186080000FF00082
:10078000000000033C000000000E0E0E0000000000
:100790000000000000000000000808090E0E01F330
:1007A0000F0000000000000000000000000000003A
:1007B00000000000000080601800000000F00F0042
:1007C0000000000000000000000000000000000029
:1007D0000000000000060970800000F01F101010DB
:1007E00010100808080404020201010101010202BC
:1007F00002020202020204020100C03E01000000E7
:10080000C0FC0300030C30C000E11E00C0BC8380AC
:100810008080808000000000003C030000008078A1
:100820008700030C30C000E01F01C03C0300000043
:1008300000000030310541120400000000F887007C
:100840000106186080C03F0380780702020202029E
:100850000202020202010103050000F0CF000106BE
:100860001860808079078078070000000000000091
:10087000383838000000000000E01E0100030C3092
:10088000C000F907807807000000000000C02C328B
:1008900022000000000000000007030C30C0000030
:1008A000F00F807807000000000000000001020047
:1008B0000000000000000000001860800000E11E41
:1008C00001F08F8080800000000E0E0E00000000FE
:1008D0000000000000000000000808090E0E01F0F2
:1008E0000F000000000001011919410A228478005C
:1008F00000000000000080601800000000F00F02FF
:1009000002020202020202020201010101000000D1
:100910000000000000060970800000F01F10101099
:10092000101008080804040202010101010102027A
:1009300002020202020204020107087F0807003EC9
:100940006B4F6B3E00C194B094C1001C3E7C3E1CBA
:1009500000183C7E3C18001C577D571C001C5E7F15
:100960005E1C0000183C180000FFE7C3E7FF000012
:100970001824180000FFE7DBE7FF0030483A060EB6
:1009800000262979292600407F05050700407F05BC
:10099000253F005A3CE73C5A007F3E1C1C080008DB
:1009A0001C1C3E7F0014227F2214005F5F005F5FEB
:1009B0000006097F017F00006689956A006060601B
:1009C00060600094A2FFA2940008047E0408001056
:1009D000207E20100008082A1C0800081C2A08088D
:1009E000001E10101010000C1E0C1E0C0030383EA3
:1009F000383000060E3E0E06000000000000000029
:100A0000005F000000000700070000147F147F143F
:100A100000242A7F2A1200231308646200364956F4
:100A2000205000000807030000001C2241000000C5
:100A300041221C00002A1C7F1C2A0008083E0808CE
:100A400000008070300000080808080800000060FE
:100A50006000002010080402003E5149453E00009D
:100A6000427F4000007249494946002141494D33C7
:100A7000001814127F10002745454539003C4A49AB
:100A800049310041211109070036494949360046DC
:100A90004949291E000000140000000040340000F5
:100AA0000000081422410014141414140000412200
:100AB0001408000201590906003E415D594E007CB0
:100AC0001211127C007F49494936003E41414122C2
:100AD000007F4141413E007F49494941007F09096A
:100AE0000901003E41415173007F0808087F000062
:100AF000417F4100002040413F01007F0814224116
:100B0000007F40404040007F021C027F007F0408BD
:100B1000107F003E4141413E007F09090906003E29
:100B20004151215E007F0919294600264949493271
:100B30000003017F0103003F4040403F001F204071
:100B4000201F003F4038403F006314081463000337
:100B500004780403006159494D4300007F4141413D
:100B600000020408102000004141417F00040201FE
:100B700002040040404040400000030708000020FD
:100B800054547840007F2844443800384444442872
:100B900000384444287F0038545454180000087E1C
:100BA00009020018A4A49C78007F080404780000BF
:100BB000447D4000002040403D00007F102844005C
:100BC0000000417F4000007C04780478007C080429
:100BD000047800384444443800FC182424180018D1
:100BE000242418FC007C08040408004854545424AD
:100BF0000004043F4424003C4040207C001C204072
:100C0000201C003C4030403C004428102844004C4C
:100C10009090907C004464544C440000083641009D
:100C200000000077000000004136080000020102C9
:100C30000402003C2623263C0000000000000000C7
:100C4000008080E0F0F0FC70FCF07CF0FC70FCF0C8
:100C5000F0E0808000000000000000000080808044
:100C60000000008080000000000080800080800084
:100C70000000808000000000008080808080008074
:100C800080000000000000000000000000000000E4
:100C90000000000000000000000000000000000054
:100CA0000000000000000000000000000000000044
:100CB0000000000000000000C0F0F8FC3E1E06012D
:100CC0000000007F4141417F007F4141417F0000A2
:100CD00080C0E07E5B4F5BFEC00000C000DCD7DE62
:100CE000DEDED7DC00C000000000000000000000D5
:100CF00000000000000000000000000000000000F4
:100D000000AAAAFFFFFFFFE0DFDF00DFDFE0FFFF59
:100D1000FFFFAAAA000000000000003E7FC1C1C181
:100D20007F3E00FFFF0F3C783C0FFFFF00FFFF1CE2
:100D30003E77E3C10000000000FFFF19191900FD14
:100D4000FD00FEFC060600FEFC0606FCFC0606FE98
:100D5000FC001E7CE0780C78E07C1E0064F6929229
:100D60007EFC00FEFC0606003C7ED2D2DE4C00007B
:100D70000000000000000000030F1F3F3C7870607F
:100D80000000007F4141417F007F4141417F0030B1
:100D90007B7F7830202030787F3B0003000F7F0F6F
:100DA0000F0F7F0F00030000000000000000000094
:100DB0000000000000000000000000000000000033
:100DC0000000000307071F071F071F071F071F0754
:100DD0000703000000000000000000000000000108
:100DE00003020000000000000000000000000000FE
:100DF00000000000000000000000000000000000F3
:100E000000000000000000000000000000000000E2
:100E100000000000000000000000000000000000D2
:100E200000000000000000000000000000000000C2
:100E300000000000000000000000000000000000B2
:100E400000000000000000000000000000000000A2
:100E50000000000000000000000000000000000092
:100E60000000000000000000000000000000000082
:100E70000000000000000000002223252628292A67
:100E80002C2D2F3032333536383A3B3D3E404243ED
:100E90004547494A4C4E5051535557595A5C5E602C
:100EA00062646668696B6D6F71737577797B7D7F3E
:100EB00081838587898A8C8E90929496989A9C9E3D
:100EC0009FA1A3A5A7A8AAACAEAFB1B3B4B6B8B959
:100ED000BBBCBEBFC1C2C3C5C6C7C9CACBCCCDCEC1
:100EE000D0D1D2D2D3D4D5D6D7D7D8D9D9DADADBA4
:100EF000DBDBDCDCDCDCDCDDDDDDDDDCDCDCDCDC30
:100F0000DBDBDBDADAD9D9D8D7D7D6D5D4D3D2D26E
:100F1000D1D0CECDCCCBCAC9C7C6C5C3C2C1BFBE56
:100F2000BCBBB9B8B6B4B3B1AFAEACAAA8A7A5A3C1
:100F3000A19F9E9C9A98969492908E8C8A89878580
:100F400083817F7D7B79777573716F6D6B6968665F
:100F50006462605E5C5A5957555351504E4C4A4931
:100F600047454342403E3D3B3A3836353332302FD9
:100F70002D2C2A2928262523220001010101010107
:100F80000101010202020202020202020303030340
:100F90000303030304040404040404050505050510
:100FA00006060606060707070707080808080909CE
:100FB00009090A0A0A0B0B0B0C0C0C0D0D0D0E0E79
:100FC0000E0F0F0F1010111111121213131414150C
:100FD0001516161717181819191A1A1B1B1C1D1D80
:100FE0001E1E1F20202122222324242526262728D6
:100FF00029292A2B2C2D2D2E2F3031323233343506
:10100000363738393A3B3C3D3E3F40414243444508
:10101000464748494A4C4D4E4F50515354555658E7
:10102000595A5B5D5E5F616264656668696B6C6D91
:101030006F7072737577787A7B7D7E808283858707
:10104000888A8C8E8F91939596989A9C9EA0A2A345
:10105000A5A7A9ABADAFB1B3B5B7BABCBEC0C2C44A
:10106000C6C9CBCDCFD1D4D6D8DBDDDFE2E4E7E90A
:10107000EBEEF0F3F5F8FAFDFF00DA028178D9F132
:10108000DB20A4A62EAF00A0C0D30000A1C8D300CF
:1010900000AED580A81F408D1420001E140A05291B
:1010A000001E001F002000210022002B0014001A47
:1010B00000080015001700E10004001600070009F1
:1010C000000A00E0001D001B00060019000500E3F7
:1010D00000E200E000407E2C00A8002E0027002641
:1010E000002500240023002A00130012000C001821
:1010F000001C00340033000F000E000D000B00E553
:101100000038003700360010001100E700E600E468
:1011100000417E2800A8000100010001000100013B
:101120000001002B001E021F02200221022202E108
:10113000002F0030002F0230023102E000000000DA
:10114000000000000000000100010001000100019A
:101150000001000100010001000100010001002A5E
:101160000027022602250224022302350031002E28
:10117000002E022D002D02E50035020000000000C7
:10118000000000010001000100417E01000100009B
:10119000003A003B003C003D003E00000000000023
:1011A00000000000000000E1003900000000000025
:1011B000000000E00000000000000000000000014E
:1011C0000001000100407E01000100440043004294
:1011D00000410040003F002A0045004D0052004AF7
:1011E000004B00000000004F00510050004E00E591
:1011F00000000000000000000000000100010001EC
:1012000000010001000100010001000100010001D6
:10121000000100010020782178427E25782778E1BE
:1012200000007C2278437E26782878E000037C004A
:10123000002A782978000001000100010001000166
:101240000001000100010001000100010001000196
:1012500000000026002500240000000100000023FB
:1012600000220021000000E500270020001F001ED2
:101270000000000100010001000100010001000068
:1012800011241FBECFEFDAE0DEBFCDBF11E0A0E03A
:10129000B1E0E0E3FBE502C005900D92AE3CB10782
:1012A000D9F726E0AEECB1E001C01D92AC33B20735
:1012B000E1F70E9403240C94812D0C940000FB01A3
:1012C0008B32914019F481E00995089583E0FCCFB9
:1012D000292F30E048E0911102C09C0140E0C90193
:1012E00064E0969587956A95E1F7009711F04C5F59
:1012F0009C01C9019695879596958795009711F061
:101300004E5F9C01C90196958795840F089590932F
:10131000F2058093F10508959A3090F5863080F5B6
:10132000E82FF0E086E0989FE00DF11D11248E2F4C
:10133000877041E001C0440F8A95EAF783E0F69593
:10134000E7958A95E1F7EE0FFF1FEE0FFF1FE154BF
:10135000FA4F20E030E070E05191DF01CB01022E26
:1013600002C0969587950A94E2F78170819585274A
:10137000842385278E932F5F3F4F2430310561F7FB
:1013800008959A3078F5863068F5E82FF0E086E029
:10139000989FE00DF11D11249E2F977083E0F69524
:1013A000E7958A95E1F7EE0FFF1FEE0FFF1FE1545F
:1013B000FA4F40E050E080E0219130E0092E02C079
:1013C000369527950A94E2F721703327042E01C041
:1013D000220F0A94EAF7822B4F5F5F4F443051058A
:1013E00059F7089580E008958091FA059091F905E4
:1013F000981301C008958F5F8770FACF982F90954A
:101400008091EE0589238093EE0508959C01811556
:1014100042E59407B8F5811560E5960708F0BEC06F
:10142000803E9105E0F48D3C910508F093C0883A28
:10143000910568F4853A910508F07DC081309105E9
:1014400021F00497813A910538F4C9010895885A2A
:1014500091094B9708F473C020E030E0F6CF811576
:10146000904468F4211580E2380708F0AEC0283EA9
:10147000310558F3C9019A9581159F41E5CF3F7019
:10148000306AE3CF803862E59607C8F5803672E5AA
:10149000970708F068C0203482E53807D0F420327E
:1014A00092E5390708F058C0822F8695869540E26C
:1014B000849FC0011124237041E050E0BA0102C0B2
:1014C000660F771F2A95E2F79B01282B392B3D6881
:1014D000BCCF822F86958695877070E2879FC0016A
:1014E0001124237041E050E0BA0102C0660F771F5B
:1014F0002A95E2F79B01282B392B3C68A6CF803C2C
:1015000072E5970760F48F71203A324508F040C0C9
:1015100090E0982F88279C01246F306A96CF805CDA
:101520009245809708F098CF322F222722273F71CB
:10153000206F306A8ACF24523109306486CF285A0E
:10154000E22FF0E0EE0FFF1FE856FE4F20813181C1
:1015500034647BCF306579CF2F7130E0322F222772
:10156000216F306A72CF86958695877040E2849F9E
:10157000C0011124237041E050E0BA0102C0660F9F
:10158000771F2A95E2F79B01282B392B3A685DCF0C
:1015900090E0982F88279C01306257CF43E0880F56
:1015A000991F4A95E1F788279F70622F6F71462F28
:1015B00050E024FF05C070E1679FA001112455276A
:1015C000842B952B9C01306940CF832F8F71382F4E
:1015D000E3CF7A30B8F46630A8F48430B0F4E62F64
:1015E000F0E096E0799FE00DF11D11249CE3899FC6
:1015F000E00DF11D1124EE0FFF1FE156FF4E859106
:101600009591089580E090E0089581E0FCCFA0E0FE
:10161000B0E0EDE0FBE00C948C2C8C01E090F30545
:10162000F090F4058091F1059091F205E82AF92AED
:10163000CFE0D0E0CC24C394D12CC6010C2E02C044
:10164000880F991F0A94E2F78E219F21892B49F474
:10165000219798F7B12C8B2DCDB7DEB7E9E00C942C
:10166000A82CBC2EB8018C2FB4DFD0DE019781F3FB
:10167000F2CF0F931F93CF93FC01858100811181DD
:10168000811579F0611569F0C801C1DFC82F682F95
:10169000C80142DEB8018C2F9CDFCF911F910F91C2
:1016A0000895C8016EDEC82FF5CFCF93DF93D82FF2
:1016B000C92FADDF6D2F7C2F8CDFA8DEDF91CF919E
:1016C0000895FC018481811599F080819181EDDF7D
:1016D000282F92959F70963099F060F4925F9F70DA
:1016E000923030F4203FB1F038F481E0283E38F0F9
:1016F00080E008959A5FF3CF81E0243FC9F7089511
:1017000091E0213F09F090E081E0283E08F080E080
:10171000892B089581E0089580E00895F894E82FDA
:10172000E295EF70F0E041A18F7021E030E0B90167
:1017300002C0660F771F8A95E2F7CB01962F90952E
:10174000942391A392A1892B82A37894089581E098
:101750008093770508950895CF92DF92EF92FF92DC
:101760001F93CF93DF93172FE82FF0E0E758F04F48
:1017700071110CC0E4918E2F7E2F6E2FDF91CF91CF
:101780001F91FF90EF90DF90CF900895E62EF12CFF
:10179000C72ED12CF491EF2F86E0689F9001112481
:1017A000CFEFD0E0C901BE010E946F2CAB01EE0C5F
:1017B000FF1C65E5649FC001659F900D1124E81A28
:1017C000F90A6E2D660F6E0D7E01EC18FD08FE9D68
:1017D000D001FF9DB00D11248B2F169F7001112495
:1017E000EF2CFF246E01CE18DF087601FE9D60010C
:1017F000FF9DD00C11247E01E61AF108B701169F57
:101800007001179FF00C1124EF2CFF24CE19DF0973
:10181000FC9F7001FD9FF00C11247F2D433051057A
:10182000C1F02C3F334058F441305105B1F0423003
:10183000510509F0A2CFEB2F8F2D7F2F9ECF443083
:10184000510571F04630510509F497CF7B2F8D2D4E
:1018500094CF7D2DEB2F8F2F90CF7F2FED2D8DCF20
:10186000EF2D7B2FF8CFCF938091E60580FF03C04B
:1018700061D3CF910895C0910E0180910F01C817D7
:10188000B8F780910C019C2F981B892F20E040E035
:1018900060E090E016D1CF5FF0CF0F931F93CF930E
:1018A000DF93D82F162F042F8091E605C0910E01EB
:1018B00080FD10C0DF91CF911F910F91089580910D
:1018C0000C019C2F981B892F202F412F6D2F90E00A
:1018D000F8D0CF5F80910F01C81788F3C4DFEACF3B
:1018E000E3EEF5E011828281846082830895E6EE62
:1018F000F5E080818E7F8083F3DFE3EEF5E0828187
:1019000081608283B0CFCF93DF93EC01EC81F0E074
:10191000E758F14F84919091E60590FF0DC07091CA
:10192000E8056091E7058F3608F08EE615DF962F03
:10193000672F482F892FB1DF8C818F5F8C83DF91D8
:10194000CF91089520912C0536E0839FC00111248A
:10195000269F800D911D1124811522E0920714F01D
:1019600080E090E08B5D9C4F909324038093230351
:101970000895EF92FF920F931F93CF93DF93A0915F
:101980002303B09124039D0125523340620F731F3E
:10199000613042E0740710F060E072E04091210392
:1019A00050912203FC01EE24E394F12C2617370713
:1019B00048F05093220340932103CDB7DEB7E6E011
:1019C0000C94AB2C84919D919817A1F08D0101503E
:1019D0001109E8018883C901C5E096958795CA95E4
:1019E000E1F7E70102C0CC0FDD1F8A95E2F7CE01D7
:1019F0004C2B592B2F5F3F4F3196D8CF90915E05DE
:101A0000292F30E070915F05A9014F5F5F4F437050
:101A100055277417150689F0245A3A4F60FB87F949
:101A2000F90184839F5F937090935E0580915C05BC
:101A30008F5F80935C0581E0089580E0089590E0D9
:101A40006115E9F08F5E9E4FFC0180818F3FB1F000
:101A5000E82FE295EF70F0E041A18F7021E030E0D7
:101A6000B90102C0660F771F8A95E2F7CB01962F66
:101A70009095942391A392A1892B82A308958E5EC1
:101A80009E4FE2CF90E06115A9F08F5E9E4FFC0162
:101A900020812F3F91F0E22FE295EF70E05EF0E0C1
:101AA000808190E02F7002C0959587952A95E2F786
:101AB000817008958E5E9E4FEACF80E00895539A1C
:101AC0000895FC01EE0FFF1FE80FF91FE250FE4FD3
:101AD0006183408322830895FC01680F791F8FEF93
:101AE00041E39191892728E030E0982F990F87FFF3
:101AF00009C0892F842721503040B9F7E617F7072E
:101B000081F70895892FF7CF8091B105811569F08C
:101B1000E091B505F091B605309739F00190F0816C
:101B2000E02D309711F00995089580E00895A3E025
:101B3000B0E0EDE9FDE00C94932C9C018091FC0158
:101B40009091FD0182179307B1F03093FD0120932E
:101B5000FC01E091B505F091B605309761F0008485
:101B6000F185E02D309739F083E089833B832A8328
:101B7000CE01019609952396E2E00C94AF2CA3E0E8
:101B8000B0E0E5ECFDE00C94932C9C018091FA010F
:101B90009091FB0182179307B1F03093FB012093E2
:101BA000FA01E091B505F091B605309761F0008437
:101BB000F185E02D309739F084E089833B832A83D7
:101BC000CE01019609952396E2E00C94AF2C80910A
:101BD000090108952FB7F8946091F6017091F7010B
:101BE0008091F8019091F9012FBF0895CF92DF9273
:101BF000EF92FF928091B105811551F0EBDF6B01FF
:101C00007C01C701B601FF90EF90DF90CF9008955F
:101C1000E1DFC090AD05D090AE05E090AF05F0904B
:101C2000B005C60ED71EE81EF91EEBCF87E797E773
:101C3000909301088093000888E19AE00FB6F89429
:101C4000A895809360000FBE90936000FFCF089529
:101C50000895FC019B018091EC019091ED018617A4
:101C6000970740F0672B29F48091E8008E778093E6
:101C7000E800C90140E0009741F4411106C080919D
:101C8000E80082FF2FC080E00895209133052115E0
:101C9000A9F12530A9F12091E80023FD2DC0209164
:101CA000E80022FDECCF2091E80020FFE4CF309146
:101CB000F3002091F200009719F02830310558F018
:101CC00041E02830310509F040E02091E8002E770E
:101CD0002093E800D0CF41914093F10001972F5F0E
:101CE0003F4FE9CF80913305811541F0853041F0B8
:101CF0008091E80083FFC3CF81E0089582E00895DA
:101D000083E008958091E60187FF13C08091E80089
:101D100082FF06C08091E8008B778093E8000895E9
:101D2000809133058111F2CF08958091330581159B
:101D3000D9F38091E80080FFF8CF8091E8008E779A
:101D4000ECCF2091E4003091E50095E6A9012091C7
:101D5000EC00822F817020FF06C08091E80080FF98
:101D600006C080E008952091E80022FD1AC080910D
:101D70003305811589F0853089F08091EB0085FD70
:101D80000FC02091E4003091E50042175307F9F2AB
:101D90009A95E1F684E0089582E0089583E008953D
:101DA00081E00895E8EDF0E080818E7F80831092DD
:101DB000E2001092DA001092E100A0EEB0E08C9107
:101DC00081608C9380818F77808319BCA7EDB0E010
:101DD0008C918E7F8C9380818F7E80831092E50121
:101DE0000895982F9093E900891771F07091EC0095
:101DF0002091ED005091F00021FD09C09F5F9730C8
:101E000089F78093E9000895762F242F50E03091D0
:101E1000EB003E7F3093EB003091ED003D7F30933F
:101E2000ED003091EB0031603093EB007093EC00EB
:101E30002093ED005093F0002091EE0027FDDECFBF
:101E40000895A0E0B0E0E7E2FFE00C948D2CC8ED2F
:101E5000D0E088818F7E8883E7EDF0E0808181602B
:101E6000808384E082BF81E08093E50188818E7F5A
:101E7000888302EE10E0F80110821092DA0081EE01
:101E8000C82ED12CF601108288818F7788838881B3
:101E90008068888388818F7D888319BC1092330580
:101EA0001092E401109232051092E30190EEE92EB7
:101EB000F12CF70180818B7F80838881816088830A
:101EC00042E060E080E08DDFF60180818E7F8083DC
:101ED000F801808181608083808188608083F70140
:101EE00080818E7F8083888180618883CDB7DEB7D3
:101EF000E8E00C94A92CE091FA059091F90527E00F
:101F0000E91302C080E00895AE2FB0E02E9FF001EB
:101F10001124E550FA4F3181361306C03081381351
:101F200003C03581341304C0FD013196E770E8CF5A
:101F300081E008953BB1377F2BB128604FB7F8940B
:101F40008EEF91E0FC010196508168E02BB9000012
:101F500000C057FF3BB9550F000000C000C000C0D3
:101F60003BB900C06A9591F752E0863D950751F75D
:101F70004FBF8FE594E00197F1F700C0000008958E
:101F80000F931F93CF93DF938B01EA019091330559
:101F9000943051F58093E9008FEF9091E80095FD22
:101FA00006C095ED9A95F1F700008A95B1F78091FA
:101FB000E80085FF19C0C5DE811111C08091E800DD
:101FC00085FD06C08091E8008E778093E800F3CF0E
:101FD000F80181918F018093F100219779F7809129
:101FE000E8008E778093E800DF91CF911F910F91E9
:101FF0000895CF93DF93D82FC92F48E050E0682F82
:10200000792F81E0BDDF88E0ED2FFC2FAEEEB1E04F
:1020100001900D928A95E1F7DF91CF910895BC016F
:1020200043E050E082E0ACCFA0E0B0E0EAE1F0E1D4
:102030000C948B2C182F092FB62EA72E7A01809185
:10204000E2019AE0C92ED12C8A3018F0CC24C39436
:10205000D12CC1E0D0E06B2D7A2D812F902FF7018C
:102060000995811116C02196CC16DD0694F0CC9FFF
:10207000C001CD9F900D900D112420E030E045E38C
:102080004A95F1F700002F5F3F4F28173907B9F73E
:10209000E2CFCDB7DEB7EAE00C94A72C8091EE0535
:1020A0009091F805892B4091EF05411589F090E05A
:1020B00022ED31E0F90150812F5F3F4F51119F5FB9
:1020C00051E0283D3507B1F791111092EF05842BAF
:1020D0008093D00148E050E067EB75E080ED91E03F
:1020E0000E942B2D892BB9F088E0E0EDF1E0A7EB01
:1020F000B5E001900D928A95E1F7E091B505F09178
:10210000B605309741F00280F381E02D309719F049
:1021100080ED91E0099508951092EE05E2EDF1E071
:1021200086E0DF011D928A95E9F780E090E0FFDC10
:1021300080E090E024DD1092F805B0CFEDDF88E17B
:102140009AE00FB6F894A895809360000FBE909324
:102150006000FFCFAAE2B0E0E0EBF0E10C94922C3B
:1021600086EE91E0FC0101962091F100208321E0B0
:102170008E3E9207B9F78091E701893009F457C084
:10218000C8F4823009F4B1C0833009F481C08130D1
:1021900081F18091E80083FFE5C08091E601909194
:1021A000E7019A3008F0DEC0E92FF0E0ED57F24D7C
:1021B0000C94D92C8A3009F488C08B3051F7809167
:1021C000E601813231F78091EA019091EB01892B90
:1021D00001F78091E800877F8093E80093DD81E03C
:1021E0009091E801911101C080E080930A0194DF91
:1021F000D0CF8091E601813A61F68091E800877F37
:102200008093E8008091EA019091EB01892B59F0CD
:1022100060E080E090E070E01CDD8091E8008B776A
:102220008093E800B6CF68E08EEE91E0F4CF809125
:10223000E601813209F0ADCF8091EA019091EB0186
:10224000029708F0A6CF8091E800877F8093E8008E
:102250008091E80082FF17C09091F3008091F20016
:10226000029731F48091F100813011F0863021F431
:102270008091F100809309018091E8008B77809331
:10228000E80040DD86CF809133058111E1CF81CF19
:102290008091E601813A09F07CCF8091EA0190912A
:1022A000EB01892B09F075CF8091E800877F80933F
:1022B000E8008091E80080FFFCCF80910A018093C4
:1022C000F1008091E8008E77DACF8091E6018132CB
:1022D00009F05FCF8091E800877F8093E80012DDEE
:1022E0008091E9018093080154CF8091E601813A01
:1022F00009F04FCF8091E800877F8093E8008091BC
:10230000E80080FFFCCF80910801D9CF803889F0A8
:10231000823841F58091EA018F70873018F58093FB
:10232000E9008091EB0085FB882780F91092E90095
:1023300006C080913205880F9091E301892B90911E
:10234000E800977F9093E8008093F1001092F100ED
:102350008091E8008E7723C0811116C08091E8013A
:10236000813009F18091E80083FF0AC08091E80084
:10237000877F8093E8008091EB0080628093EB0080
:10238000AA96E3E00C94AE2C823061F78091E801CC
:10239000811581F01092E9008091E800877F809399
:1023A000E800B0DCDFCF81E0933009F080E080937B
:1023B0003205F0CF8091EA018F702FEF280F263081
:1023C00088F68093E9002091EB0020FFE3CF933063
:1023D00031F48091EB0080628093EB00DBCF909131
:1023E000EB0090619093EB0021E030E0A90102C086
:1023F000440F551F8A95E2F74093EA001092EA00D5
:102400008091EB008860E8CF8111ACCF1091E8019A
:102410001F778091E3008078812B8093E300809187
:10242000E800877F8093E8006DDC8091E80080FF02
:10243000FCCF8091E30080688093E30083E011117A
:1024400001C082E0809333058DCF8058823008F040
:1024500089CF2091E8013091E9012C3D53E0350707
:1024600091F583E08A838AE289834FB7F894DE018D
:10247000139620E03EE051E2E32FF0E05093570046
:10248000849120FF03C082958F703F5F8F708A30E8
:10249000C0F0895C90E08D939D932F5F243161F7AC
:1024A0004FBF8091E800877F8093E8006AE270E088
:1024B000CE010196CEDB8091E8008B778093E80017
:1024C00051CF805DE7CF832F99278330910529F184
:1024D00060F48130910509F475C0029709F042CF8C
:1024E0008BE390E0E6E2F1E02CC02091EA0130912C
:1024F000EB018132910509F459C0829709F032CF7E
:102500002115310509F468C02130310509F02ACFC1
:1025100082E390E0E0EBF0E014C0C901992721309C
:10252000A9F182309105D1F1892B09F01BCFEDE99A
:10253000F1E0E4918E2F90E0EDE9F1E0009709F4ED
:1025400011CF2091E800277F2093E8002091EC0133
:102550003091ED018217930708F49C0140E02115AA
:10256000310509F03EC041113CC08091E80082FD78
:10257000A2CF80913305811509F49DCF853009F4F0
:102580009ACF8091E80083FFF0CF95CFE1E8F1E0AA
:10259000E4918E2F90E0E1E8F1E0D0CFE3E7F1E0C5
:1025A000E4918E2F90E0E3E7F1E0C8CF21153105EB
:1025B00071F02130310509F0D5CE89E090E0E1E5F8
:1025C000F1E0BFCF82E190E0E1E6F1E0BACF89E04F
:1025D00090E0E8E3F1E0B5CF84E490E0E2EEF0E0F3
:1025E000B0CF80913305811509F465CF853009F4AA
:1025F00062CF8091E80083FD5ECF8091E80082FD8C
:10260000B4CF8091E80080FFAACF9091F300809131
:10261000F2002115310519F08830910550F041E0A4
:10262000089709F040E08091E8008E778093E800F9
:1026300096CF44914093F100319621503109019693
:10264000E8CF803809F08ECE8091E800877F8093B4
:10265000E8008091E4018093F1007ACE811182CE6E
:102660001091E801123008F07DCE8091E800877F5C
:102670008093E8001093E40145DB111599F084E0A4
:102680008093330542E061EC81E0ABDB42E261EC38
:1026900082E0A7DB80913305843051F482E080939F
:1026A0000B0160CE8091E30087FDE9CF81E0E8CFA8
:1026B00081E0F5CF0F931F93CF93C82F811531F190
:1026C0008CEF8C0F813A98F502ED11E0F8018191C1
:1026D000C81701F121E0E83DF207C9F7EFEF80E00C
:1026E000D8019D918D01C91781F0EF3F19F4911127
:1026F00001C0E82F8F5F863099F7EF3F31F00E2E43
:10270000000CFF0BE053FE4FC283C8DCCF911F913A
:102710000F910895E2EDF1E08191C81302C0DF014D
:102720001E9231E0E83DF307B9F7B8DCD7CF80E27D
:102730008C0F883068F4C77081E090E001C0880F8A
:10274000CA95EAF7C091EE05C82BC093EE05DDCF20
:102750008BE58C0F833030F42C2F2452330BC901BE
:10276000E6D9D4CFC85ACB3188F6EC2FF0E0EE0F83
:10277000FF1FE856FE4F8081918101DAC7CF811596
:1027800059F19CEF980F913A60F4E2EDF1E09191EC
:10279000891302C0DF011E9291E0E83DF907B9F705
:1027A0007DCC90E2980F983050F4877091E001C092
:1027B000990F8A95EAF7892F0E94FE09F1CF9BE5D0
:1027C000980F933018F480E090E0B1C9885A8B31AB
:1027D00018F480E090E0D3C908950F931F93CF932E
:1027E000DF93D82FC92F8B0163E774E10E945F0943
:1027F0008BE260DF8FE99FE00197F1F700C00000F6
:1028000001501040B9F78BE2BADF6CE774E18D2F0D
:102810009C2F0E945F09DF91CF911F910F91089526
:102820000F931F93CF93C82F8B0144DF8FE99FE055
:102830000197F1F700C0000001501040B9F78C2F4C
:102840009EDFCF911F910F910895CF9380E09091DB
:102850005F0520915E052917A9F1E92FF0E0E05A04
:10286000FA4FC081C7FBCC27C0F99F5F937090934C
:102870005F0580915D058F5F80935D058091F30515
:102880009091F4050E946809813049F0823079F016
:102890006AE070E089EAC11108C08AEA06C06AE00D
:1028A00070E08EE4C11101C08BE4BADF09C06AE0B8
:1028B00070E08BE291E0C11102C08BE293E08DDF0A
:1028C00081E0C5CFCF910895811531F09091EE054B
:1028D000892B8093EE05E2CB0895811519F00E94B3
:1028E000FE09DCCB0895811531F09091F805892B14
:1028F0008093F805D3CB0895811539F08095909198
:10290000F80589238093F805C9CB0895A0E0B0E0CD
:10291000ECE8F4E10C948D2CFA0169017801C82FE0
:10292000880FDD0B3097B9F0DE0193E0AA0FBB1FD3
:102930009A95E1F7A35EBE4F11968D919C911297E7
:1029400086579A4F2C91422F50E0E217F10508F478
:10295000AF010E94382DCE010E94012C182F811545
:10296000D9F0E114F104C1F083E0CC0FDD1F8A95AA
:10297000E1F7FE01E35EFE4F8381482F50E0E81649
:10298000F10408F4A701C35EDE4F6C817D816657B8
:102990007A4FC6010E94382D812FCDB7DEB7E8E00F
:1029A0000C94A92CA1E0B0E0E8EDF4E10C94832CA8
:1029B000762E4A015901680101E010E09E012F5F67
:1029C0003F4F40E050E060E070E0A0DF182F81153D
:1029D00099F1F4012080318042805380FBD86980D6
:1029E0006219730984099509643671058105910599
:1029F00028F4B701C60170D88615F1F0870195015A
:102A000040E050E060E070E0872D80DF082FB701E4
:102A1000C60162D810E086110AC0102F117000FFA5
:102A200006C0D8D8F4016083718382839383812F99
:102A30002196E2E10C949F2CA701B601C5010E94EA
:102A4000382DF5CFA5E0B0E0E8E2F5E10C948D2C4F
:102A50006B0185E0E82EF12C0BE815E09E012F5F5D
:102A60003F4F46E855E061E080E09CDF811549F08A
:102A700095E0FE013196A1E8B5E001900D929A959E
:102A8000E1F795E0E1E8F5E0D60101900D929A9525
:102A9000E1F72596E8E00C94A92C4F925F926F9293
:102AA0007F92AF92BF92CF92DF92EF92FF920F93FD
:102AB0001F93CF93DF93F82EEB01A42ED22EE32E9B
:102AC000B02EC12E488059806A807B8083D86419DB
:102AD000750986099709643671058105910510F419
:102AE000A11489F000E010E020E030E04B2D5C2DD7
:102AF0006D2D7E2D8F2D0ADF811531F06BD8688307
:102B000079838A839B8381E0DF91CF911F910F911D
:102B1000FF90EF90DF90CF90BF90AF907F906F903D
:102B20005F904F9008950F931F93CF93DF93D82F0B
:102B3000C92F45E050E060E975E00E942B2D41E08F
:102B4000892B09F440E005E010E02D2F3C2F6DE7C4
:102B500075E082E0A2DFDF91CF911F910F91089580
:102B6000ABE0B0E0E6EBF5E10C94912C28E0E6EE6A
:102B7000F5E0CE010196DC0101900D922A95E1F776
:102B80003091E3052091E4055091E50539872A87C6
:102B90005B8741E09C01511101C040E00BE010E077
:102BA0006FE675E087E079DF81111092E5052B96DD
:102BB000E4E00C94AD2CA8E0B0E0E1EEF5E10C947B
:102BC0008F2C88E0E82EF12C06E915E09E012F5F9E
:102BD0003F4F49E755E064E083E0E4DE182F8115BC
:102BE000B9F19091950580917805981789F1F12CAC
:102BF0009091990580919805891721F1E92FF0E0CE
:102C0000E257FA4F848587FB662760F99F5F9370D0
:102C100090939905909197059F5F909397058F7773
:102C20000E94FE0CF82E8111E3CF00E010E020E0BE
:102C300030E040E050E060E070E085E067DE1F2DAE
:102C4000182302C0F110F1CF80919505809378058B
:102C5000812F2896E6E00C94AB2CA4E0B0E0E3E3EF
:102C6000F6E10C948D2CC0907305D0907405E09023
:102C70007505F09076050E94EA0D6C197D098E09A4
:102C80009F0911E0643671058105910518F10E94D4
:102C9000F60DDC01CB010296A11DB11D89839A833B
:102CA000AB83BC8300E010E020E030E044E050E083
:102CB000BE016F5F7F4F86E029DE182F811551F02E
:102CC0000E94EA0D609373057093740580937505F7
:102CD00090937605812F2496E8E00C94A92C0F930D
:102CE000CF93DF93C6EED5E0488159816A817B811D
:102CF00088E090E00E94652D288139814A815B81BE
:102D00006C817D818E819F8100E20E94FA2C622F6E
:102D100083E290E00E94532DDF91CF910F910895AF
:102D2000E6EEF5E085E0808311828FEF82838EE608
:102D300083831482E3EEF5E082818360828386EEF2
:102D400095E0CDCF8091EA05833018F48F5F8093B2
:102D5000EA0586EE95E0C3CF8091EA05811519F06A
:102D600081508093EA0586EE95E0B9CF0F931F93CB
:102D7000CF93DF93182FD62FC42F022F8091E60513
:102D800080FF36C09091E705911308C09091E80547
:102D9000961304C09091E905941729F09091E505E8
:102DA00092609093E505E82FE695E695F0E0EB5804
:102DB000FE4F90819093E3058C7F8430F1F48C2F4B
:102DC000CF3608F08EE6612F7D2F0E94AC0B962F38
:102DD000672F482F892F0E944D0C1093E705D09341
:102DE000E805C093E905011519F086EE95E077DF57
:102DF000DF91CF911F910F910895923071F7C0919B
:102E0000E905EBCFCF93DF93D82FC92F0E94840D14
:102E100081FF0AC020E04FEF6FEF84E2A7DF8D2F24
:102E20009C2FDF91CF9108958D2F9C2F0E946809D0
:102E3000823081F0833049F0813089F020E0409188
:102E40003B066FEF80913A06E9CF20E04FEF6FEF3E
:102E50008AEAE4CF20E04FEF6FEF85E5DFCF20E097
:102E60004FEF6FEF80E0DACFCDDF9093F4058093E2
:102E7000F305089521E030E002C0220F331F8A9548
:102E8000E2F78091F3059091F405822B932BECCF20
:102E900021E030E002C0220F331F8A95E2F720952F
:102EA00030958091F3059091F40582239323DCCF34
:102EB0009091F505809589238093F505282F27703B
:102EC00021110CC0891751F09091F70592FF06C0AF
:102ED000869586958695DCDF1092F505089590918C
:102EE000F70592FB222720F9281771F080FB92F951
:102EF0009093F7056091F6057091F70584E090E0F6
:102F00000E946D2D82E0D4CF0895E6EEF5E0818138
:102F100021E0438162818B5F29CFE6EEF5E081817C
:102F200021E043816281855021CFE6EEF5E06281A8
:102F300021E1620F08F46FEF21E04381818116CF18
:102F4000E6EEF5E0628121E1621B08F460E021E039
:102F5000438181810BCFE6EEF5E0438121E1420F11
:102F600008F44FEF21E06281818100CFE6EEF5E0C9
:102F7000438121E1421B08F440E021E0628181812C
:102F8000F5CEAB0124E630E0BC0188E70E94352A8B
:102F90009C0181E0232B09F080E0089580912705B2
:102FA000811561F080912605811541F062E070E0A5
:102FB0008EEA90E0E6DF8111109226050895809157
:102FC00027058115F1F00E94EA0DDC01CB01805A42
:102FD0009541AF4FBF4F8093280590932905A0934B
:102FE0002A05B0932B058091260581110AC062E065
:102FF00070E08CEA90E0C5DF811519F081E08093E4
:10300000260508951F93CF93DF93982F162F81E005
:103010009A3019F09D3031F480E084D0DF91CF9167
:103020001F910895C0912303D091240386E0FE01EF
:10303000AFE0B3E001900D928A95E1F7903E90F1F8
:1030400086E0FE0111928A95E9F7C0912303D091A1
:103050002403111133C046E050E0BE018FE093E03D
:103060000E942B2D9E0125523340892B91F52A5F1A
:103070003F4F40912C05642F70E0C9010E946F2CD6
:10308000481B463010F4240F311D211572E037071C
:1030900010F020E030E02B5D3C4F30932403209370
:1030A0002303BCCFF6E09F9FB0011124675C764FED
:1030B00046E050E0CE010E94152DC7CF9E012A5F49
:1030C0003F4FFE012E173F0731F28081809581939B
:1030D000F9CFC90145E0969587954A95E1F741E01A
:1030E00050E0BA0102C0660F771F8A95E2F7CB0164
:1030F0006091210370912203862B972BB9016B5F9E
:103100007F4FE5E076956795EA95E1F702C0440FB9
:10311000551F6A95E2F7842B952B90932203809399
:103120002103A5CFCF93382FE0912303F0912403FF
:10313000E552F34020912C05622F70E0CF010E94F0
:103140006F2C281B822F311561F066E00E94BA2C8B
:10315000C82FC15010F4CF91089560E080E252DF93
:10316000F8CF8E0F9F2F911D811522E0920710F04E
:1031700080E090E08B5D9C4F909324038093230329
:10318000EACF1F93CF93DF93EC01162FFE018491BA
:10319000811104C0DF91CF911F910895612F32DF1B
:1031A0002196F4CF8F929F92AF92BF92CF92DF92EF
:1031B000EF92FF920F93CF93DF9388E090E00E940D
:1031C000492D4B015C01C6EED5E068839982AA8245
:1031D000BB821C821D821E821F8283E290E00E94BD
:1031E000412D282F30E040E050E060E070E080E0CA
:1031F00090E000E20E94DF2C282939294A295B2926
:10320000288339834A835B836C837D838E839F838A
:10321000DF91CF910F91FF90EF90DF90CF90BF9013
:10322000AF909F908F9008950F931F93CF93DF934C
:10323000EC01FC0101900020E9F78F010150110918
:10324000C017D10728F0DF91CF911F910F910895FA
:1032500060E08991D7DEF4CF1F921FB61F92112430
:103260008F939F93AF93BF9380912F05811113C0CC
:103270008091F6019091F701A091F801B091F901C8
:103280004196A11DB11D8093F6019093F701A09383
:10329000F801B093F901BF91AF919F918F911F9069
:1032A0001FBE1F9018952FB7F8948091F60190914A
:1032B000F701A091F801B091F9012FBF0895CF93C4
:1032C000DF938091B105811521F0EDDFDF91CF9182
:1032D00008950E94F60DEB01862F9D2FF7CF609188
:1032E000E6056695669570E041E050E087E091E084
:1032F0000E941E2D892B19F481E08093E405DFDF05
:1033000090935705809356058091E50584608093DE
:10331000E50508959091E60590FF31C0811581F192
:10332000863080F58F73880F880F9091E605937033
:10333000892B8093E6058091E50581608093E50502
:10334000611519F086EE95E0CADC6091E605669598
:10335000669570E041E050E087E091E00E941E2D0C
:10336000892B91F00E94700C81E08093590520E038
:103370004091E9056091E8058091E705F7CC089553
:1033800081E0D1CF85E0CFCFAADFEECF8091E605F7
:10339000869586958F5F863008F081E061E0BACF30
:1033A0008091E605869586958A9509F485E061E029
:1033B000B1CFA0E0B0E0EFEDF9E10C948D2C7C01F1
:1033C000FC018481811509F469C061E0C7010E9494
:1033D000390BEC01863E910509F489C018F5833E4E
:1033E000910509F47FC0D8F48C32910509F484C0AA
:1033F000803E910509F471C0F7019581911509F49A
:10340000CCC08091EE058272FE01E052F847EB30AD
:10341000F10508F0C2C0E357F24D0C94D92C843E5C
:103420009105E8CF8234FEE79F07D9F070F480342D
:103430009E47C9F1C1348EE7D807F1F6F7018581BF
:10344000811509F446C082E033C0C3349EE7D90732
:1034500099F6F7018581811591F080913A068550A2
:1034600007C0F7018581811551F080913A068B5F85
:1034700080933A0620E040913B066FEF77DC809125
:10348000F5058770811551F0F7018581811531F0BF
:103490008091F70582FF02C082E00ADDCDB7DEB77A
:1034A000E8E00C94A92CF7018581811579F081E081
:1034B000E1DC8091F3059091F4059C01267033279F
:1034C0002630310541F48860CFDCD9CF81E0E0DCE3
:1034D000F0CF82E0FCCF877FF7CFF7018581809323
:1034E000E2058ACFF70185818093E10585CFF70159
:1034F00085818093E00580CFF7018581811531F0CA
:1035000081E08093DF0510925D0176CF1092DF0598
:1035100073CF8091E60580FF10C08E7F8093E60513
:1035200086EE95E0DCDB0E94700C8091E505816001
:103530008093E5050E94330CA2CF81608093E6055D
:1035400061E086958695E6DE9ACF811521F028DF29
:1035500096CF8115E1F31ADF92CF811521F0DDDCE2
:103560008ECF8115E1F3D1DC8ACF811521F0E8DC23
:1035700086CF8115E1F3D9DC82CF811521F0F6DC0D
:103580007ECF8115E1F3E7DC7ACF811521F0E4DB12
:1035900076CF8115E1F3D6DB72CF9E01205E3245F6
:1035A00020323105A8F4911126C0CF7181E090E05E
:1035B0009C0102C0220F331FCA95E2F7E901622F76
:1035C00083E090E00E94532DCE010E94870957CFDF
:1035D000911571F1CB353CE7D30701F1CC358CE780
:1035E000D807A1F081E0CA35ECE7DE07A9F0C130C9
:1035F000FCE7DF07D9F0C3302CE7D20789F0C1150B
:10360000DC47B1F40E948C100E94160E8091F705E1
:10361000002482FF0394802D62DC31CF80E0FCCF58
:103620006FEF7FEF80E090E00E946D2D0E949E1072
:10363000F70100811181911509F45AC0C8010E9457
:10364000070BC82F682FC8010E948C09B8018C2F66
:103650000E94E90A0E94060AD82FC92FF701C580E7
:10366000068102950F708091F50587708115F9F03C
:10367000DC2CC114E9F0892F807F803461F080E276
:103680008D0F8830A0F0892F807E803221F4D230D7
:1036900070F0011561F08091F70582FF08C082E0AB
:1036A00007DC8091F5058770DD24D3948111D12C3E
:1036B0008C2F82958F70883009F407C1B8F584305B
:1036C000E0F41C2F1F70823008F440C0C07FC0326D
:1036D00011F01295107FD11509F46EC0D13009F4A4
:1036E000B5C0C11409F4BEC0011509F483C043C0BC
:1036F000C8010E94C109C82FA9CF843009F4C8C0ED
:10370000D11409F419C18091F50580FD15C1F701A7
:103710001582869586958695ADDBC7014ADE809138
:10372000F505869586958695B3DB06C1893009F443
:103730005BC18A5F8F70823018F7D23F09F063C196
:103740008C2F8F71C1105DC195DBF4C0C03110F0BA
:103750001295107FC114B9F0111569F080E28D0F38
:10376000883010F0D11109C08091EE05812B809333
:10377000EE050E944E108D2F2FC08091F805812BF1
:103780008093F805F6CF8D2F0E94BF13111509F411
:10379000B7CF80E28D0F883010F0D11104C0812F97
:1037A0000E94FE0906C010958091F8058123809340
:1037B000F8050E944E10A4CF8091F70582FD16C037
:1037C000C11469F0111539F08091EE05812B8093B9
:1037D000EE050E944E1080E00E945A1391CF80E0C7
:1037E0000E94BF13111509F48BCFD9CFC11499F0E2
:1037F000011103C0812F68D883CF013009F080CF39
:103800008091EF05912F9823191709F479CF812B17
:103810008093EF0575CF011173CF812F5ED8909102
:10382000EF05812F8923811529F0812F8095892328
:103830008093EF058091F005912F9823911509F45D
:103840005FCF109518231093F0055ACFC11421F0C3
:10385000063008F055CFCECF053008F051CF812F7C
:103860003CD84ECF0115D9F3D93369F4FFEF27EED9
:1038700033E0F15020403040E1F700C000008D2FD0
:103880000E94BF133DCF8FE39CE90197F1F7F5CF7D
:103890008C2F869586958370811569F0813009F0AB
:1038A0002FCF8D2F9C2F9370C11002C080E090E02D
:1038B0000E94BF0D25CF8D2F9C2F9370C11002C089
:1038C00080E090E00E94970D1BCF8C2F83708111B8
:1038D00046C0C1102FC04D2F429546954770440FEA
:1038E000440F2D2F2F7030E0042E02C0220F331F03
:1038F0000A94E2F780E090E0D4FF09C08FE090E006
:1039000002C0880F991F4A95E2F780959095C69559
:10391000C695C370C230D1F0C330A9F04091F10513
:103920005091F205C13069F0822B932B84239523AB
:103930000E9487090E94840D60E0C7010E94390B34
:10394000ADCD242B352B822B932BF2CF822B932BB7
:103950002091F1053091F20582279327E9CFC11418
:1039600089F1C0FFE7CF4D2F429546954770440F30
:10397000440F2D2F2F7030E0042E02C0220F331F72
:103980000A94E2F780E090E0D4FF09C08FE090E075
:1039900002C0880F991F4A95E2F780959095C695C9
:1039A000C695C370C230B9F0C33091F04091F305B1
:1039B0005091F405C13051F0822B932B8423952331
:1039C00053DAB8CF823008F4B5CFCDCF242B352BC6
:1039D000822B932BF5CF822B932B2091F3053091E3
:1039E000F40582279327ECCFCF70C11431F08C2FD0
:1039F00041DA8D2F0E9464149DCF8D2F0E946D148B
:103A00008C2F46DA97CF70F4D03FC9F0D13F91F0B8
:103A1000C11409F453C0011509F44DC08D2F0E9443
:103A20005A1388CFD33F19F1D43F91F79091F705FE
:103A300092FD2BC08C2F8F71C11419F385CEC11448
:103A4000A1F0053008F076CFCF7181E090E0FC0165
:103A500002C0EE0FFF1FCA95E2F7EF018091F30558
:103A60009091F4058E279D27ABCF0630EBCF80E0F9
:103A700090E0C11409F4A4CFCF7181E090E002C0BE
:103A8000880F991FCA95E2F79BCFC11461F08C2F64
:103A90008F7192FF59CE982F990F990F990F9360BC
:103AA0009093F50551CE81E003DA023008F442CF5D
:103AB00082E0FED93FCF8C2F8F7146CE0115A1F049
:103AC000D93369F4FFEF27EE33E0F1502040304066
:103AD000E1F700C000008D2F0E94BF132BCF8FE3B2
:103AE0009CE90197F1F7F5CF8C2F8F718ACF8091E8
:103AF0003906803178F480913806811559F0E091CB
:103B0000FA052091F905309134064091330657E0CB
:103B10002E1301C008956E2F70E05E9FF0011124F6
:103B2000DF01A550BA4F14968C911497811551F16D
:103B300011968C911197831325C08C91841322C008
:103B400015968C91159781111DC012968D919C919F
:103B5000A0913506B09136068A1B9B0B883C9105D7
:103B600088F4809139068F70806180933906EF5F09
:103B7000F94F80818F708061808383E396E019DC48
:103B80000C94F409FB013196E770C2CFADE0B0E0D0
:103B9000ECECFDE10C94882C8C0186E0F801DE0150
:103BA000189601900D928A95E1F7F801F580C4808E
:103BB00083E3882E86E0982E7090370671101FC020
:103BC000C114D1F0F11409F415C1C8010E94610BB0
:103BD000811509F40FC187E0F801D40101900D921D
:103BE0008A95E1F7F1E0CF1206C0809133069091FB
:103BF00034060E94550B7BDFFF24F39453C0E08012
:103C0000A280B380D0903806809135069091360618
:103C10009501281B390BD11409F4B5C0283C310596
:103C200008F08DC0C11441F390913406C180809199
:103C30003906803108F056C0C91213C0909133067E
:103C40009E110FC0F11048C08F70806180933906BB
:103C500083E396E0AEDB80913906F8018683F12C90
:103C600021C0F11039C040E06C2D8E2D0E947B0FD9
:103C700040E06C2D8E2D0E947B0FF82E8111EFCF2E
:103C8000888599850E94550B292F22952F70903495
:103C900070F49F70223098F09115A9F0F801968188
:103CA000903188F48F2D2D96EDE00C94A42C2A5F92
:103CB0002F70223060F0C8017CDBFD2CF3CF911512
:103CC00011F0811579F3805E883060F3F4CF803F86
:103CD00048F3815F8330F9CF80913906816080930A
:103CE0003906BDCFC91207C0909133069E1103C09B
:103CF000F11409F469C0C8010E94610B811509F42F
:103D000079C0F11409F476C080913906803270F0E0
:103D100020913306309134063A832983BC82AB82EA
:103D20007D821E828F83CE01019643DB87E0F801FE
:103D3000A3E3B6E001900D928A95E1F75CCF809104
:103D40003906803148F483E396E033DB87E0F40101
:103D500011928A95E9F783CFC11409F44DCF2091D0
:103D6000340691812913C7CF909133069E11C3CF9A
:103D7000F110C1CF8683C8011CDB87E0F4011192EA
:103D80008A95E9F739CF283C310500F7C11409F4C9
:103D900033CFF11479F1909134068181981320C0CA
:103DA000809133068E111CC08091390680FD0FC0B2
:103DB000803168F08683807F803F39F08681982F3C
:103DC000907F905F8F70892B8683C801F2DA87E03D
:103DD000F801A3E3B6E001900D928A95E1F70CCFCC
:103DE000C8010E94610B8111A1CF809139068160C9
:103DF00080933906C801DDDAFFCEABE1B0E0E3E045
:103E0000FFE10C94912C4E8B5F8B688F798F8A8F9A
:103E1000192F9B8F91111092F8051D8A86E0FE01E3
:103E20007696DE011F9601900D928A95E1F70A8D34
:103E3000011561F00B8B1C8B61E0CE010F960E9487
:103E4000390B61E0CE010F960E94390B0B8B1C8B56
:103E500087E0FE013F96DE01189601900D928A954B
:103E6000E1F7CE01089692DE811128C02091F90574
:103E70003091FA0587E0FE013896DE011196019037
:103E80000D928A95E1F78C858115C1F0822F90E023
:103E900001968770992738171906D9F097E0929FF5
:103EA000D0011124A550BA4FFE01319601900D9218
:103EB0009A95E1F78093F9050E94F40917E0809143
:103EC000FA059091F905891312C06B96E4E00C9401
:103ED000AD2C0E948C101092F9051092FA0587E023
:103EE000E3E3F6E0DF011D928A95E9F7E7CF189F3B
:103EF000C001112485509A4F49DE811531F380911C
:103F0000FA0590E00196877099278093FA05D7CF3C
:103F1000A6E0B0E0EEE8FFE10C94912CC4D98C014E
:103F20008091B3059091B4058017910769F01982CB
:103F30001A82B9D9BC0149815A8180E090E05DDFE5
:103F40001093B4050093B3052696E4E00C94AD2CD1
:103F5000CF93DF93EC01A7D98C1B9D0BDF91CF9101
:103F600008952F923F925F926F927F928F929F92CD
:103F7000AF92BF92CF92DF92EF92FF920F931F9377
:103F8000CF93DF9380912705811509F453C0C09129
:103F90000D03D0910E0387D98C1B9D0BC29750F156
:103FA00082D990930E0380930D0360E080E00E941D
:103FB000A20C0E94840D8093EC02C0906A05D09000
:103FC0006B05E0906C05F0906D058091B105811551
:103FD00009F442C00E94EA0D6C197D098E099F09FF
:103FE0002091260561367A4E81059105C0F1211197
:103FF0000E94CE178091210390912203892B09F012
:104000005AC1809126058115A9F00E94EA0D009100
:1040100028051091290520912A0530912B05601B58
:10402000710B820B930B6F3F7F4F8F4F9F4710F4A5
:104030000E94CE17DF91CF911F910F91FF90EF90CB
:10404000DF90CF90BF90AF909F908F907F906F90B8
:104050005F903F902F9008950E94F60DBDCF2111E3
:1040600002C00E94DF178091B105811509F4E7C0F5
:10407000C090E802D090E902E090EA02F090EB02F2
:104080000E94EA0D6C197D098E099F09693C710532
:1040900081059105A8F10E94EA0D6093E8027093F2
:1040A000E9028093EA029093EB028091DF0581118F
:1040B00004C080915D01811139C063E080E00E94FD
:1040C000A20C8EE591E0B0D860E080E00E94A20CE6
:1040D00081E080935D018091D60290E0019681702D
:1040E00099278093D6020197807699272091EC0238
:1040F00021FF28C060E670E08F559B4F0E94B90CED
:1041000065E080E00E94A20C8091F3059091F40597
:104110000E946809823009F48AC0833089F18130B5
:1041200009F489C060E081E695E02DC060E080E0A0
:104130000E94A20C8EE591E077D861E080E00E94B9
:10414000A20CC9CF2091E205211529F060E670E0AC
:104150008F519C4FD3CF2091E105211529F060E6C6
:1041600070E08F5D9C4FCACF2091E00560E670E063
:10417000211519F08F599D4FC1CF8F559E4FBECF3E
:1041800060E083E795E00E94C1186AE080E00E9449
:10419000A20C0091E7051091E805D091E90584E6AD
:1041A00091E042D81092E202CAE0802F6C2F0E9468
:1041B000BA2C905D9093E1020E94BA2C905D90938E
:1041C000E002805D8093DF028FED92E02DD887E6DC
:1041D00091E02AD81092DE02812F6C2F0E94BA2C17
:1041E000905D9093DD020E94BA2C905D9093DC026A
:1041F000805D8093DB028BED92E016D88AE691E039
:1042000013D81092DA028D2F6C2F0E94BA2C905D79
:104210009093D9020E94BA2C905D9093D802805D51
:104220008093D70287ED92E00E941419E3CE60E0FC
:104230008DE695E0A8CF60E087E695E0A4CFC0903A
:10424000E402D090E502E090E602F090E7020E94DE
:10425000EA0D6C197D098E099F09693C710581057C
:10426000910508F4C7CE0E94EA0D6093E4027093B2
:10427000E5028093E6029093E7028091E30290E0EA
:10428000019663E070E00E94C62C8093E3020097E1
:1042900039F460E471E089EF97E00E94B90CAACE8E
:1042A00001979195819591098074917060E471E016
:1042B00087589A4FF2CF80912705811509F4A1CE36
:1042C0008091250581119DCE0E94DF172091210349
:1042D000309122032115310509F493CE10E041E01D
:1042E00050E0812F90E01A01012E02C0220C331CF5
:1042F0000A94E2F7B10162237323672B11F41F5F65
:10430000F0CF20912D0520FF94C0912F990F990F88
:10431000990F37E0390F80E023E0909302018093FA
:104320000501309303012093060124E630E047E0C5
:1043300050E060E071E088E70E94EB29892B09F0EA
:1043400060CE60E2169FA001112480912D0580FFB0
:104350007CC0EDEEF2E080E2DF011D928A95E9F784
:10436000A1E7B1E00DE611E085E7C82E81E0D82E87
:1043700097E0592E772473948D91E80129918E014D
:10438000240F352F311D2B5D3C4FE82FF0E0E3511A
:10439000FD4F80E090E0652C681A872C082E01C044
:1043A000880C0A94EAF77901A12CE701B9907E0103
:1043B000B820662D6A19677070E0DB2D062E01C0EB
:1043C000DD0F0A94EAF79D2E71956195710967706A
:1043D000772701C0B6946A95EAF79B286081962AF0
:1043E0009082A39468E0A612E0CF019631968830BF
:1043F000910589F6CA16DB0609F0BECF04E610E087
:1044000020E230E04DEE52E060E488E70E947B2A33
:10441000892B09F0F6CDE101C095D095809121035B
:10442000909122038C239D23909322038093210358
:10443000E8CD9695879596958795282F912F9295FB
:10444000990F90763FE1390F68CF4B5D5C4F04E6E2
:1044500010E020E230E0D8CFA5E1B0E0E2E3F2E204
:104460000C94842CFE013C968AE0DF011D928A9513
:10447000E9F78BE7E82E81E0F82E8F0190E8692EAE
:1044800091E0792E2F01AA24A394B12C36E8832E33
:1044900031E0932EF70181917F018F3F09F43EC0F7
:1044A000F894E82FE295EF70F0E021A18F70A5015C
:1044B00002C0440F551F8A95E2F7CA01922F982B2C
:1044C00091A392A18095892382A3789400C0E0E80B
:1044D000F1E031E0312C21912F3F79F0A22FA2950C
:1044E000AF70A05EB0E08C9190E02F7002C0959507
:1044F00087952A95E2F780FF90C080E0382A330F35
:104500008E169F0641F7F70182918F3F11F00E94AE
:104510008E0B50EA5A95F1F7D8013C920F5F1F4F6E
:104520006E147F0409F0B6CF4AE050E0B20185E195
:1045300093E00E942B2D6C01892B41F08AE0F2015F
:10454000A5E1B3E001900D928A95E1F70091200377
:1045500010E00C5C1A4FC114D10409F460C081E072
:104560008093E1010E9453199093E0018093DF0151
:104570008091B105FE0131967F01811509F4A8C033
:1045800085E0DF011D928A95E9F78091E2018A308A
:1045900008F069C042E255E1B701C8010E94141059
:1045A000811509F483C043E955E1B701C8010E94B0
:1045B0001410811509F47AC04BED55E1B701C8011B
:1045C0000E941410811509F471C04DE256E1B70143
:1045D000C8010E941410811509F468C040EB55E130
:1045E000B701C8010E941410811509F45FC0109230
:1045F000E20180911F0390E045E050E0B7018C5C40
:104600009A4F0E942B2D21E02093DE01892B09F087
:1046100041C06596E1E10C94A02C832F6FCF80916F
:10462000E101811509F4A4CFE090DF01F090E001F1
:104630000E9453198E199F090A9708F499CF45E0F3
:1046400050E065E173E0C8010E942B2D892B41F0F9
:1046500085E0E5E1F3E0D80101900D928A95E1F75C
:104660001092E10185CFC090DC01D090DD010E9465
:1046700053198C199D09843F914008F08BCF80918C
:10468000DE01811531F285E0F70111928A95E9F793
:104690001092DE01A0911F03B0E0AC5CBA4F85E040
:1046A000F70101900D928A95E1F7B3CF8091E20175
:1046B0008F3F39F40E9453199093DD018093DC0100
:1046C000DECF8F5F8093E2018A3008F492CFF2CF81
:1046D000C0901F03D12C96012C5C3A4F690185E0F4
:1046E000F801ABE8B5E001900D928A95E1F765E03D
:1046F00070E08BE895E00E946C0D80938A0585E060
:10470000E0E9F5E0D60101900D928A95E1F788E0A5
:10471000ECE5F5E0A6E9B5E001900D928A95E1F7A8
:1047200068E070E086E995E00E946C0D8093950545
:1047300080909E0590909F05A090A005B090A10547
:104740008091D8019091D901A091DA01B091DB015B
:1047500088169906AA06BB06B1F08092D8019092FD
:10476000D901A092DA01B092DB010E94EA0D861A0B
:10477000970AA80AB90A8092AD059092AE05A09258
:10478000AF05B092B0058BE0E2EAF5E0D701019009
:104790000D928A95E1F7F090A305E090A405D090E2
:1047A000A5050091AB051091AC051092AC05111553
:1047B00009F42FCF10FF0DC0898180FF1EC090919A
:1047C000E60591609093E60560E0869586950E94E7
:1047D0008A1911FF06C020E04D2D6E2D8F2D0E94ED
:1047E000B61612FF04C0011559F00E946F1913FF8D
:1047F00010CF81E0809359050CCF0E94770CE9CF50
:104800000E94700CF4CFCDB7DEB728970FB6F8949E
:10481000DEBF0FBECDBF85B7806885BF85B7806816
:1048200085BF84B7877F84BF0FB6F894A895809121
:104830006000886180936000109260000FBE80E885
:1048400090E00FB6F89480936100909361000FBEE2
:1048500081E080930B018CE89BE09093CF018093E3
:10486000CE010E94D20E0E94210F8091E20084604E
:104870008093E200789480913305811599F08091BE
:10488000E9001091EC008F70179511271795182BE0
:104890001092E9008091E80083FD0E94AA101F7029
:1048A0001093E90082E084BD93E095BD9AEF97BD37
:1048B00080936E001092AD051092AE051092AF0578
:1048C0001092B00588EC90E02091E30027FD0EC027
:1048D000AFE3BCE91197F1F700C000000197A1F721
:1048E0000E94D20E1092330580E001C081E08093D7
:1048F000B1058093B205811509F4C4C010920C0172
:1049000084E280930D0198D6ECE5F5E088E0DF01C4
:104910001D928A95E9F78091B20591E0282F292709
:104920002093660590936905811106C084EF8093FA
:10493000120185EF8093110160E080E00E941F0D5D
:1049400061E080E00E941F0DEFE8F1E03197F1F7A0
:1049500000C0000010E080916905181708F498C0A5
:104960008091B20590E0811101C095E09093200301
:1049700085E0891B80931F030BE711E0E0E8EE2E32
:10498000E1E0FE2ED8018D918D018F3F11F00E9444
:104990008E0BE016F106B1F700E811E076E8E72E9D
:1049A00071E0F72EF80181918F018F3F11F00E9485
:1049B0008E0BE016F106B1F78AE0E4E3F5E0DF01E3
:1049C000282F1D922A95E9F7E5E1F3E0DF011D921A
:1049D0008A95E9F780E090E00E944E2D833E9E4F3D
:1049E00061F163EE7EEF80E090E00E946D2D60E06B
:1049F00082E090E00E94532D81E090E09093F205D8
:104A00008093F10561E083E090E00E94532D60E027
:104A100074E184E090E00E946D2D0E94901640E0C9
:104A200050E0BA018FE090E00E94652D40E050E038
:104A3000BA0183E190E00E94652D82E090E00E943F
:104A4000412D8093480584E090E00E944E2D909384
:104A5000F7058093F60500DDEFEFF9EF20E0E15078
:104A6000F0402040E1F700C00000F6DC8091340502
:104A700080FF20C06FEF7FEF80E090E00E946D2DFF
:104A80000E94160E84E280930C0180930D013CCFAE
:104A900060E0812F0E94420D082F61E0812F0E946B
:104AA000420DE12FF0E0E959FA4F880F802B808307
:104AB0001F5F51CF83E090E0E4D790E00E94870928
:104AC0008091F3059091F4050E94021783E0809392
:104AD0002D0580E280932C0548D46BE070E080E9DE
:104AE00090E10E94C117811509F43FC080912D0506
:104AF00065E070E081FD0EC18BE890E10E94C11776
:104B0000811599F16DE070E089E790E10E94C1178D
:104B1000811559F10E94EA0DDC01CB01805A9541C3
:104B2000AF4FBF4F8093280590932905A0932A0586
:104B3000B0932B05E5E2F3E080E092E0DF019C0119
:104B40001D9221503040E1F7F0932403E0932303BA
:104B50008FEF9FEF909322038093210381E0809356
:104B60002705809326051092250580912E05811139
:104B700034C086EE95E00E94D2188091E5058360EE
:104B80008093E5058091E605843008F0C6C00E9458
:104B9000901686EE95E00E94D2188091E60584304A
:104BA00008F0BBC0837084608093E6058091E905BE
:104BB0008F3618F08EE68093E9050E94700C0E94F3
:104BC0005F0D8091E60580FF05C060E086958695C3
:104BD0000E948A1981E080932E058091B105811190
:104BE00001C02DD58091E70580933A068EE680932B
:104BF0003B0683E191E09093B6058093B505882448
:104C00008394912C8091330510E400E152E1F52E5C
:104C1000853009F4F0C020DC39E4A32E35E0B32E52
:104C200044E3642E45E0742ED301F50191918D91FA
:104C300025E0E335F20709F4FAC09817B9F330918B
:104C4000B10538872EE3E22E25E0F22E512CD30158
:104C50004D903D01F50181915F01841509F446C035
:104C600084258F8300E010E0332433948F818321E7
:104C70008115A1F1232C2420F885F11509F1D70124
:104C80008C9190E09401002E02C0220F331F0A94F1
:104C9000E2F782239323892B99F409835A820E9495
:104CA00053199C838B83B1E0BD8391E0211001C037
:104CB00090E09E8349815A816B817C818D819DD852
:104CC00021100CC0C401002E01C0880F0A94EAF71D
:104CD000982F9095F701808189238083330C0F5F93
:104CE0001F4F0630110511F6F50142925394FFEF64
:104CF000EF1AFF0A2AE05212AACF0E94F60D609323
:104D00006A0570936B0580936C0590936D0577240D
:104D1000739491C086E890E1F1CE8091E6058831E8
:104D200008F444CF837084613FCF80913305843091
:104D300009F435C00E94700C8091310581110AC0C0
:104D400031E0309331058091E60581708093300524
:104D50000E94770C0E94CE1710922F0588E190E0F8
:104D60000FB6F894A895809360000FBE1093600072
:104D700083B7817F846083BF83B7816083BF78946A
:104D8000889583B78E7F83BF0FB6F894A8958091DE
:104D90006000886180936000109260000FBE5CDB51
:104DA000E4E3F5E0AEE3B5E080E021912D9391E0FE
:104DB000211101C090E0892B95E0EE33F907A9F7A6
:104DC0008115C9F0809132058115A9F009BDF9BCA2
:104DD00009B400FEFDCF8091D8008F7D8093D8006C
:104DE0008091E00082608093E0008091E00081FD8E
:104DF000FCCF0E948C1080913305853009F495CF4B
:104E00000E948C100E94840D109231058091300513
:104E1000811551F08091E60581608093E60560E0A0
:104E2000869586950E948A190E946F19F4CE981370
:104E300006CF6ED8712C8091E405811509F467C006
:104E40008091E305E091E605E695E695E81BE093A1
:104E50005805823009F072C0F0E0E556FF4EE4914B
:104E60000E2F10E093E8E92E9CE0F92E8091590571
:104E7000811561F0109259050E945F1990935705B2
:104E80008093560510925B0510925A050E945F1997
:104E90006C0180915605909157059601281B390B9E
:104EA0002F3F3F47A0F5209155052115B9F01092ED
:104EB00055052091530530915405A601421B530B13
:104EC0004F3F5F4758F4205D3A4830935405209394
:104ED00053052091E50528602093E505A0905A052B
:104EE000B0905B05800F911F9093570580935605F6
:104EF00086E595E0F701099580915A0590915B054B
:104F0000892B29F4AB2819F0F1E0F0935505F090C6
:104F1000B105F11419F00E942514F82E809177053F
:104F2000811551F01092770580915E0580935F05A1
:104F300080915C0580935D05E12C40C000ED17E099
:104F40008BEAE82E8BE0F82E91CF61E08E2D0E9447
:104F5000420D182F60E08E2D0E94420D110F812B03
:104F60000E2D10E0D801A959BA4FEC919E2F9370E5
:104F7000891719F1EE0FEE0FE82BEC93809166057F
:104F80008E0DEF70F0E0EA57FE4F0C591A4FB080CB
:104F9000D8019C91B90EB2E060E0BB1624F4EFEFAB
:104FA000BE161CF461E00E94FE0C8B2DBB0C990B0D
:104FB00062E070E0EBD4D8018C93E39480916905B2
:104FC000E81618F28091B105811519F00E94251498
:104FD000F82AF11479F00E94F60D60936A05709337
:104FE0006B0580936C0590936D050E94B11F0E9424
:104FF000DF1704C00E94B11F7110F9CF0E94840D09
:1050000090916E05891709F4FDCD80936E050E947D
:10501000EA0DF8CD78941F921FB61F9211248F933A
:105020009F93AF93BF938091F6019091F701A09168
:10503000F801B091F9010196A11DB11D8093F6010F
:105040009093F701A093F801B093F901BF91AF914C
:105050009F918F911F901FBE1F9018951F920F92C6
:105060000FB60F9211242F933F934F935F936F933B
:105070007F938F939F93AF93BF93EF93FF93809111
:10508000E10082FF09C08091E20082FF05C08091AB
:10509000E1008B7F8093E1008091DA0080FF24C0E3
:1050A0008091D80080FF20C08091DA008E7F8093AD
:1050B000DA008091D90080FFA9C080E189BD82E13A
:1050C00089BD09B400FEFDCF81E080933305809156
:1050D000E501811109C00E94D20E0E94210F80912A
:1050E000E20084608093E2008091E10080FF1AC0BA
:1050F0008091E20080FF16C08091E2008E7F809355
:10510000E2008091E20080618093E2008091D8000B
:1051100080628093D80019BC85E08093330583E0DA
:1051200080930B018091E10084FF2FC08091E20009
:1051300084FF2BC080E189BD82E189BD09B400FEF6
:10514000FDCF8091D8008F7D8093D8008091E100C1
:105150008F7E8093E1008091E2008F7E8093E20059
:105160008091E20081608093E2008091E4018115EA
:1051700009F452C084E08093330580913305843074
:1051800009F052C082E080930B018091E10083FF1F
:105190002CC08091E20083FF28C08091E100877FCE
:1051A0008093E10082E0809333051092E4018091C6
:1051B000E1008E7F8093E1008091E2008E7F8093FA
:1051C000E2008091E20080618093E20042E060E0D2
:1051D00080E00E94F10E8091F00088608093F000E2
:1051E00081E080930B0180930A01FF91EF91BF91C1
:1051F000AF919F918F917F916F915F914F913F916F
:105200002F910F900FBE0F901F90189519BC109200
:1052100033051092E50168CF8091E30087FF02C05B
:1052200083E0A9CF81E0A7CF81E0ADCF1F920F929D
:105230000FB60F921124EF92FF920F931F932F93AB
:105240003F934F935F936F937F938F939F93AF930E
:10525000BF93CF93EF93FF9309EE10E0F8018081A5
:10526000C091EC008F70C795CC27C795C82B1082D2
:1052700080EFE82EF12CF7018081877F808378947E
:105280000E94AA10F8011082F70180818860808353
:10529000CF70F801C083FF91EF91CF91BF91AF9193
:1052A0009F918F917F916F915F914F913F912F913E
:1052B0001F910F91FF90EF900F900FBE0F901F90D6
:1052C0001895FF920F931F93CF93DF93182FEB0145
:1052D0001092BC0084EA8093BC000E945319082FEE
:1052E000F92E8091BC0087FF28C08091B900887F8B
:1052F000883029F08091B900887F803199F510932A
:10530000BB0084E88093BC000E945319182F092F1A
:105310008091BC0087FF1EC02091B900287F80E0EB
:1053200090E0283199F081E090E0203411F480E0A1
:1053300090E091958195910909C0802F9F2D0E9441
:10534000A81FC817D90768F68EEF9FEFCDB7DEB755
:10535000E5E002C3812F902F0E94A81FC817D9072C
:10536000B8F6F2CF8FEF9FEFF1CF1092B9008CE03B
:105370008093B80008950F931F93CF93DF93EB01B1
:105380008093BB0084E88093BC000E945319182FBF
:10539000092F8091BC0087FF11C02091B900287FA0
:1053A00081E090E0283211F480E090E091958195C1
:1053B0009109DF91CF911F910F910895CF3FDC07A5
:1053C00041F3812F902F0E94A81FC817D90708F713
:1053D0008EEF9FEFEECFA0E0B0E0E0EFF9E298C2F1
:1053E000782EB62EA72E6A01E9010E9453194C01AE
:1053F000C431D10510F1CF3FDC0719F1CE0164E1D2
:1054000070E06DD2F62EE72E6F2D7E2D872D59DFA1
:105410008C01892BC9F4EB2CFA2CCE0CDF1CEC147C
:10542000FD0419F001151105C9F084E98093BC0051
:10543000C801CDB7DEB7EDE087C2FF24F394E12CBD
:10544000E3CF85E0F82EFBCFCF3FDC07E9F2C401C4
:105450000E94A81FC817D907B8F6DDCFBE01F70113
:1054600081917F0188DF8C01DACFA0E0B0E0EAE330
:10547000FAE24EC2782EB62EA72E6A0189010E944A
:1054800053194C010431110500F10F3F100701F1D0
:10549000C80164E170E023D2EB01BE01872D11DF6A
:1054A0007C01892BB9F4CB2DDA2DCC0EDD1ECC1569
:1054B000DD0519F0E114F104B9F084E98093BC0032
:1054C000C701CDB7DEB7EDE03FC2C1E0D0E0E5CF28
:1054D000C5E0FCCF0F3F100701F3C4010E94A81FD5
:1054E00008171907D0F6DFCFFE018491B80143DF1A
:1054F0007C012196DCCFA0E0B0E0E0E8FAE207C250
:10550000682E962E5A01690178010E945319782E4F
:10551000892E0431110518F10F3F100719F1C80148
:1055200064E170E0DCD1162F072F612F702F862DDC
:10553000C8DEEC01892BC1F0FFEFEF16FF06A9F3DF
:10554000872D982D0E94A81FE816F90670F784E9A8
:105550008093BC00CE01CDB7DEB7EEE0F4C111E020
:1055600000E0E3CF15E0FCCFB701892D04DFEC01AB
:105570008501CA0CDB1C0C151D0549F3209739F772
:10558000B701F80181918F01F6DEEC01F4CF8EE1D5
:105590004A9B02C08A95E1F74A9BFECF08955A982C
:1055A00080E28A95F1F75A9A0895FC013BE03A951A
:1055B000F1F798E020E080E031E040E14A95F1F732
:1055C000880F4A9B02C08160232742E04A95F1F789
:1055D000000040E14A95F1F79A9579F790E19A95A4
:1055E000F1F799B132E03A95F1F7000040E14A95C0
:1055F000F1F792FB992790F992272081920F9083DF
:105600000895A1E0B0E0E6E0FBE289C119828C01D7
:105610007C01E60EF11CBBDFCE010196C6DFF8016E
:1056200081938F01EE15FF05B1F781E0998191110A
:1056300080E02196E6E08FC1529A5A9A08955298D6
:105640005A9AEA9AE9E6F0E080818F7C8083089597
:105650006150770B91E001C0990F6A95EAF7692FC5
:1056600090E021E0611108C0911599F05A9A80E20A
:105670008A95F1F75A980895362F3823311539F065
:105680005A9A922730E23A95F1F76695EBCF5A98FD
:10569000F9CF5A98ECCFFF920F931F93CF93DF93DC
:1056A000EC018C01060F111DF99079DF68E08F2D58
:1056B000CFDFC017D107C1F7CDB7DEB7E5E04CC1EA
:1056C0001F920F920FB60F9211240F931F932F93D7
:1056D0003F934F935F936F937F938F939F93AF937A
:1056E000BF93EF93FF93CF93DF930F92CDB7DEB7C6
:1056F00019824DDFCE01019658DF082F06950695D9
:105700000695982F92959570202F2570920F292F2E
:10571000237096959695920F982797708981892B7B
:10572000811509F058C0093008F055C080E18A950C
:10573000F1F75A9A529A82E08A95F1F700C05A9886
:1057400088E0089F80011124D801A35EBE4F169601
:10575000ED91FC9117973097A9F0609196017091A7
:10576000970114962D913C911597260F371F11968E
:105770008D919C911297680F791F13964C911397F6
:105780008C910995F801E35EFE4F6381611549F044
:10579000209196013091970184819581820F931F0A
:1057A0007ADFFDDE80E18A95F1F75A9852985A9A8D
:1057B00080E18A95F1F7F801E35EFE4F60816115A3
:1057C00049F0209196013091970181819281820F59
:1057D000931F17DFDCDE0F90DF91CF91FF91EF91E8
:1057E000BF91AF919F918F917F916F915F914F91F9
:1057F0003F912F911F910F910F900FBE0F901F900F
:1058000018950F931F93CF93DF938C0109970CF09A
:105810005EC0F894529A5A9885E08A95F1F7000094
:10582000C02FC695C570802F8570C80F8C2F8370D0
:10583000C695C69593E0000F111F9A95E1F7C80F22
:10584000C8018C2BEC01ABDE00C068E08C2F00DFC0
:1058500090E19A95F1F752985A9A4A9B31C087E0A5
:1058600090E04A992FC0F801E35EFE4F6381611515
:1058700059F0209196013091970184819581820F92
:10588000931FBFDE811501F182DE80E28A95F1F778
:105890005A98529A90E19A95F1F7F801E35EFE4F1B
:1058A0006081611549F020919601309197018181C5
:1058B0009281820F931FEFDE72DE789481E008C040
:1058C00000C0CBCF019749F4529A5A9A789480E05D
:1058D000DF91CF911F910F91089500C0C2CFAA1BF5
:1058E000BB1B51E107C0AA1FBB1FA617B70710F0CB
:1058F000A61BB70B881F991F5A95A9F780959095FD
:10590000BC01CD0108952F923F924F925F926F920A
:105910007F928F929F92AF92BF92CF92DF92EF923F
:10592000FF920F931F93CF93DF93CDB7DEB7CA1BC0
:10593000DB0B0FB6F894DEBF0FBECDBF09942A88EB
:10594000398848885F846E847D848C849B84AA8493
:10595000B984C884DF80EE80FD800C811B81AA8120
:10596000B981CE0FD11D0FB6F894DEBF0FBECDBFEB
:10597000ED010895992778E0880F991F961708F090
:10598000961B881F7A95C9F78095089597FB072E77
:1059900016F4009406D077FD08D0A1DF07FC05D0EF
:1059A0003EF4909581959F4F0895709561957F4F36
:1059B0000895EE0FFF1F0590F491E02D0994002E3D
:1059C000083090F0982F872F762F652F542F432F74
:1059D000322F22270850F4CF220F331F441F551FA8
:1059E000661F771F881F991F0A95B2F7002D08952B
:1059F00097FD1094002E083098F00850232F342F74
:105A0000452F562F672F782F892F912DF4CF15947E
:105A100097958795779567955795479537952795E6
:105A20000A95AAF71124002D0895FB01DC0102C09C
:105A300005900D9241505040D8F70895FC01415017
:105A4000504030F001900616D1F73197CF010895FC
:105A5000882799270895FB01DC0104C08D910190EE
:105A6000801921F441505040C8F7881B990B0895C4
:105A7000FB01DC0102C001900D9241505040D8F76B
:105A80000895F999FECF92BD81BDF89A992780B506
:105A90000895A6E1B0E044E050E025C0A8E1B0E000
:105AA00042E050E020C0262FF999FECF92BD81BD83
:105AB000F89A019700B4021639F01FBA20BD0FB64C
:105AC000F894FA9AF99A0FBE08950396272FECDFFF
:105AD000EADF252FE9DF242FE7CF0196272FE4DF28
