:100000000C9440090C945D090C945D090C949D2E90
:100010000C945D090C945D090C945D090C945D09C8
:100020000C945D090C945D090C946B2B0C94532C6F
:100030000C94351A0C945D090C945D090C945D09BF
:100040000C945D090C945D090C945D090C945D0998
:100050000C945D090C94472B0C945D090C945D097C
:100060000C945D090C945D090C945D090C945D0978
:100070000C945D090C945D090C945D090C945D0968
:100080000C945D090C945D090C945D090C945D0958
:100090000C945D090C945D090C945D090C945D0948
:1000A0000C945D090C945D090C945D0900AF00AEE1
:1000B00005010980A101850319012AB70015012650
:1000C000B700950175108100C0050C0901A10185DB
:1000D0000419012AA002150126A0029501751081BC
:1000E00000C005010906A101050719E029E715006F
:1000F00025019508750181029501750881010507A3
:10010000190029FF150026FF0095067508810005D6
:10011000081901290515002501950575019102951C
:100120000175039101C009023B00020100A0FA0918
:100130000400000103010100092111010001224412
:100140000007058103080001090401000103000004
:10015000000921110100012232000705820320005D
:1001600001120100020000000832FC8702010001B8
:100170000200010C0353006F0066006C0065000074
:10018000001A034A006F00730065006600410064B6
:100190000061006D00630069006B0000000403094A
:1001A000040000000000000000000000000000E06B
:1001B0001C02050224040402A91EE0000000000045
:1001C00000000000000000E01008681008040300B0
:1001D0000000000000000206827C03000000000016
:1001E000000000000000000102040C10102020207C
:1001F000283E1C20203E0F111F00000000000000C0
:10020000000000000000000000000000000000E00E
:100210001C02050224040402A91EE00000000000E4
:10022000000000000000E0900818601008040300BF
:10023000000000000000020E827C030000000000AD
:10024000000000000000000102040C10102020201B
:10025000283E1C20203E0F111F000000000000005F
:100260000000000000E0100808C8B0808080808096
:10027000808040403C14040890180408B04080007E
:1002800000000000000102C4A4FC00000000800087
:10029000000000000000000080C858282A100F004D
:1002A0000000000000000E0904040404020302011F
:1002B000010202040810262B32040506000000008B
:1002C00000000000E01010F000000000000000003E
:1002D000808080782808102030081020408000009E
:1002E000000000000304081011F9010101010101DF
:1002F00000000000000000000110B05055201F0059
:100300000000000000000000000001020C10202886
:1003100037021E2020180C141E01000000000000EF
:1003200000000000000080402010909090A0C0804D
:1003300080807008140890101008A47880000000D5
:100340000000000000000708FC0100000000800021
:1003500000010000000000000818EA100F00000073
:100360000000000000000000031C20203C0F111FB3
:1003700003061820203C0C121E01000000000000A3
:10038000000000000000008040202020408000008D
:100390000000E01028102020201048F0000000008D
:1003A0000000000000001F20F8020101010101010E
:1003B00001030000000001001030D5201F000000E4
:1003C00000000000000000003F20300C0205091270
:1003D0001E021C140810202C320100000000000036
:1003E000000000000000008040404040800000000D
:1003F000000000C0404080008040800000000000FD
:1004000000000000001E21F00402020202030202AA
:100410000404040301000009018080AB04F800001B
:1004200000000000000000031C20203C0F111F02F0
:1004300006182020380810180404020201000000E9
:1004400000000000000000804040408000000000EC
:10045000000000E0A0204080C0204080000000009C
:1004600000000000003E41F004020202030202020A
:10047000040402010000000400404055827C00009A
:10048000000000000000003F20300C020509121E91
:100490000418100810202834060201010000000092
:1004A0000000C02010D0300000000000000080805C
:1004B000403C14040890180408B04080000000007C
:1004C00000000304081011F90101010101010000FD
:1004D000000000000080C848282A100F000000001B
:1004E000000000000000000001020C10202837026C
:1004F00002040810262B320405060000000000004C
:100500000000E01010F000000000000000008080FB
:1005100040402C14040890180408B04080000000EB
:1005200000000304081011F901010101010100009C
:1005300000000000000080C048282A100F204A094F
:10054000100000000000000001020C1020283702FB
:1005500002040810262B32040506000000000000EB
:10056000004241534520004C4F57455200524149EB
:100570005345004E554D50440000C03E0100000060
:10058000C0FCFFFFFF7C704040615E80C0BC030088
:100590000000000000000000003C03000000807824
:1005A0008700030F3FF8F0F0204080800000010139
:1005B00002040810204080000000000000F88700BE
:1005C0000106186080C03F0380780700000000002B
:1005D0000000000000000102040000F0CF0001064E
:1005E0001860808079078078070000000000000014
:1005F000383838000000000000E01E0100030C3015
:10060000C000F907807807000000000000C02C320D
:1006100022000000000000000007030C30C00000B2
:10062000F00F8078070000000000000000010200C9
:100630000000000000000000001860800000E11EC3
:1006400001F08F8080800000000E0E0E0000000080
:100650000000000000000000000808090E0E01F074
:100660000F000000000001011919410A22847800DE
:1006700000000000000080601800000000F00F0281
:100680000202020202020202020101010100000054
:100690000000000000060970800000F01F1010101C
:1006A00010100808080404020201010101010202FD
:1006B00002020202020204020100C03E0100000028
:1006C000C0FC0300030C30C000E11E00C0BC8380EE
:1006D0008080808000000000003C030000008078E3
:1006E0008700030C30C000E01F01C03C0300000085
:1006F00000000030310541120400000000F88700BE
:100700000106186080C03F038078070202020202DF
:100710000202020202010103050000F0CF000106FF
:1007200018608080790780780700000000000000D2
:10073000383838000000000000E0FEFFFFFFFCF04A
:10074000C000F907807807000000000000C02C32CC
:1007500022000000000000000007030F3FFF03011C
:10076000030718F807000000000000000001020065
:10077000000000000000000000186080000FF00082
:10078000000000033C000000000E0E0E0000000000
:100790000000000000000000000808090E0E01F330
:1007A0000F0000000000000000000000000000003A
:1007B00000000000000080601800000000F00F0042
:1007C0000000000000000000000000000000000029
:1007D0000000000000060970800000F01F101010DB
:1007E00010100808080404020201010101010202BC
:1007F00002020202020204020100C03E01000000E7
:10080000C0FC0300030C30C000E11E00C0BC8380AC
:100810008080808000000000003C030000008078A1
:100820008700030C30C000E01F01C03C0300000043
:1008300000000030310541120400000000F887007C
:100840000106186080C03F0380780702020202029E
:100850000202020202010103050000F0CF000106BE
:100860001860808079078078070000000000000091
:10087000383838000000000000E01E0100030C3092
:10088000C000F907807807000000000000C02C328B
:1008900022000000000000000007030C30C0000030
:1008A000F00F807807000000000000000001020047
:1008B0000000000000000000001860800000E11E41
:1008C00001F08F8080800000000E0E0E00000000FE
:1008D0000000000000000000000808090E0E01F0F2
:1008E0000F000000000001011919410A228478005C
:1008F00000000000000080601800000000F00F02FF
:1009000002020202020202020201010101000000D1
:100910000000000000060970800000F01F10101099
:10092000101008080804040202010101010102027A
:1009300002020202020204020107087F0807003EC9
:100940006B4F6B3E00C194B094C1001C3E7C3E1CBA
:1009500000183C7E3C18001C577D571C001C5E7F15
:100960005E1C0000183C180000FFE7C3E7FF000012
:100970001824180000FFE7DBE7FF0030483A060EB6
:1009800000262979292600407F05050700407F05BC
:10099000253F005A3CE73C5A007F3E1C1C080008DB
:1009A0001C1C3E7F0014227F2214005F5F005F5FEB
:1009B0000006097F017F00006689956A006060601B
:1009C00060600094A2FFA2940008047E0408001056
:1009D000207E20100008082A1C0800081C2A08088D
:1009E000001E10101010000C1E0C1E0C0030383EA3
:1009F000383000060E3E0E06000000000000000029
:100A0000005F000000000700070000147F147F143F
:100A100000242A7F2A1200231308646200364956F4
:100A2000205000000807030000001C2241000000C5
:100A300041221C00002A1C7F1C2A0008083E0808CE
:100A400000008070300000080808080800000060FE
:100A50006000002010080402003E5149453E00009D
:100A6000427F4000007249494946002141494D33C7
:100A7000001814127F10002745454539003C4A49AB
:100A800049310041211109070036494949360046DC
:100A90004949291E000000140000000040340000F5
:100AA0000000081422410014141414140000412200
:100AB0001408000201590906003E415D594E007CB0
:100AC0001211127C007F49494936003E41414122C2
:100AD000007F4141413E007F49494941007F09096A
:100AE0000901003E41415173007F0808087F000062
:100AF000417F4100002040413F01007F0814224116
:100B0000007F40404040007F021C027F007F0408BD
:100B1000107F003E4141413E007F09090906003E29
:100B20004151215E007F0919294600264949493271
:100B30000003017F0103003F4040403F001F204071
:100B4000201F003F4038403F006314081463000337
:100B500004780403006159494D4300007F4141413D
:100B600000020408102000004141417F00040201FE
:100B700002040040404040400000030708000020FD
:100B800054547840007F2844443800384444442872
:100B900000384444287F0038545454180000087E1C
:100BA00009020018A4A49C78007F080404780000BF
:100BB000447D4000002040403D00007F102844005C
:100BC0000000417F4000007C04780478007C080429
:100BD000047800384444443800FC182424180018D1
:100BE000242418FC007C08040408004854545424AD
:100BF0000004043F4424003C4040207C001C204072
:100C0000201C003C4030403C004428102844004C4C
:100C10009090907C004464544C440000083641009D
:100C200000000077000000004136080000020102C9
:100C30000402003C2623263C0000000000000000C7
:100C4000008080E0F0F0FC70FCF07CF0FC70FCF0C8
:100C5000F0E0808000000000000000000080808044
:100C60000000008080000000000080800080800084
:100C70000000808000000000008080808080008074
:100C800080000000000000000000000000000000E4
:100C90000000000000000000000000000000000054
:100CA0000000000000000000000000000000000044
:100CB0000000000000000000C0F0F8FC3E1E06012D
:100CC0000000007F4141417F007F4141417F0000A2
:100CD00080C0E07E5B4F5BFEC00000C000DCD7DE62
:100CE000DEDED7DC00C000000000000000000000D5
:100CF00000000000000000000000000000000000F4
:100D000000AAAAFFFFFFFFE0DFDF00DFDFE0FFFF59
:100D1000FFFFAAAA000000000000003E7FC1C1C181
:100D20007F3E00FFFF0F3C783C0FFFFF00FFFF1CE2
:100D30003E77E3C10000000000FFFF19191900FD14
:100D4000FD00FEFC060600FEFC0606FCFC0606FE98
:100D5000FC001E7CE0780C78E07C1E0064F6929229
:100D60007EFC00FEFC0606003C7ED2D2DE4C00007B
:100D70000000000000000000030F1F3F3C7870607F
:100D80000000007F4141417F007F4141417F0030B1
:100D90007B7F7830202030787F3B0003000F7F0F6F
:100DA0000F0F7F0F00030000000000000000000094
:100DB0000000000000000000000000000000000033
:100DC0000000000307071F071F071F071F071F0754
:100DD0000703000000000000000000000000000108
:100DE00003020000000000000000000000000000FE
:100DF00000000000000000000000000000000000F3
:100E000000000000000000000000000000000000E2
:100E100000000000000000000000000000000000D2
:100E200000000000000000000000000000000000C2
:100E300000000000000000000000000000000000B2
:100E400000000000000000000000000000000000A2
:100E50000000000000000000000000000000000092
:100E60000000000000000000000000000000000082
:100E70000000000000000000002223252628292A67
:100E80002C2D2F3032333536383A3B3D3E404243ED
:100E90004547494A4C4E5051535557595A5C5E602C
:100EA00062646668696B6D6F71737577797B7D7F3E
:100EB00081838587898A8C8E90929496989A9C9E3D
:100EC0009FA1A3A5A7A8AAACAEAFB1B3B4B6B8B959
:100ED000BBBCBEBFC1C2C3C5C6C7C9CACBCCCDCEC1
:100EE000D0D1D2D2D3D4D5D6D7D7D8D9D9DADADBA4
:100EF000DBDBDCDCDCDCDCDDDDDDDDDCDCDCDCDC30
:100F0000DBDBDBDADAD9D9D8D7D7D6D5D4D3D2D26E
:100F1000D1D0CECDCCCBCAC9C7C6C5C3C2C1BFBE56
:100F2000BCBBB9B8B6B4B3B1AFAEACAAA8A7A5A3C1
:100F3000A19F9E9C9A98969492908E8C8A89878580
:100F400083817F7D7B79777573716F6D6B6968665F
:100F50006462605E5C5A5957555351504E4C4A4931
:100F600047454342403E3D3B3A3836353332302FD9
:100F70002D2C2A2928262523220001010101010107
:100F80000101010202020202020202020303030340
:100F90000303030304040404040404050505050510
:100FA00006060606060707070707080808080909CE
:100FB00009090A0A0A0B0B0B0C0C0C0D0D0D0E0E79
:100FC0000E0F0F0F1010111111121213131414150C
:100FD0001516161717181819191A1A1B1B1C1D1D80
:100FE0001E1E1F20202122222324242526262728D6
:100FF00029292A2B2C2D2D2E2F3031323233343506
:10100000363738393A3B3C3D3E3F40414243444508
:10101000464748494A4C4D4E4F50515354555658E7
:10102000595A5B5D5E5F616264656668696B6C6D91
:101030006F7072737577787A7B7D7E808283858707
:10104000888A8C8E8F91939596989A9C9EA0A2A345
:10105000A5A7A9ABADAFB1B3B5B7BABCBEC0C2C44A
:10106000C6C9CBCDCFD1D4D6D8DBDDDFE2E4E7E90A
:10107000EBEEF0F3F5F8FAFDFF00DA028178D9F132
:10108000DB20A4A62EAF00A0C0D30000A1C8D300CF
:1010900000AED580A81F408D1420001E140A05350F
:1010A000001E001F002000210022002B0014001A47
:1010B00000080015001700E00004001600070009F2
:1010C000000A0000571D001B00060019000500E380
:1010D00000E200E000407E2800A8002E0027002645
:1010E000002500240023002A00130012000C001821
:1010F000001C00340033000F000E000D000B00E553
:101100000038003700360010001100E700E600E468
:1011100000417E2C00A80001000100010001000137
:101120000001002B001E021F02200221022202E009
:10113000002F0030002F0230023102E100000000D9
:10114000000000000000000100010001000100019A
:101150000001000100010001000100010001002A5E
:101160000027022602250224022302350031002E28
:10117000002E022D002D02350200000000000000AC
:10118000000000010001000100417E01000100009B
:10119000003A003B003C003D003E00000000000023
:1011A00000000000000000E000000000000000005F
:1011B000000000E10000000000000000000000014D
:1011C0000001000100407E01000100440043004294
:1011D00000410040003F002A0045004D0052004AF7
:1011E000004B00000000004F00510050004E000076
:1011F00000000000000000000000000100010001EC
:1012000000010001000100010001000100010001D6
:10121000000100010020782178427E25782778019E
:1012200000007C2278437E267828780100037C0029
:10123000002A782978000001000100010001000166
:101240000001000100010001000100010001000196
:1012500000000026002500240000000100000023FB
:10126000002200210000000100270020001F001EB6
:101270000000000100010001000100010001000068
:1012800011241FBECFEFDAE0DEBFCDBF11E0A0E03A
:10129000B1E0E4E6F2E602C005900D92A23EB1078D
:1012A000D9F726E0A2EEB1E001C01D92A03BB20743
:1012B000E1F70E9456260C941B310C9400009C010F
:1012C000FB019A9581159F4120F5832F8170B32FE3
:1012D000B270AA27732F74706627532F5870442753
:1012E00034FF0DC08295807FAB2B09F08062672BA5
:1012F00009F08064452B09F0806809950895AB2BAF
:1013000009F08260672B09F08460452BB1F3886097
:10131000F4CF80E0F2CF292F30E048E0911102C0F5
:101320009C0140E0C90164E0969587956A95E1F7D4
:10133000009711F04C5F9C01C90196958795969591
:101340008795009711F04E5F9C01C901969587958E
:10135000840F0895909366068093650608959A30E9
:1013600090F5863080F5E82FF0E086E0989FE00D5C
:10137000F11D11248E2F877041E001C0440F8A9522
:10138000EAF783E0F695E7958A95E1F7EE0FFF1F00
:10139000EE0FFF1FE450FA4F20E030E070E0519173
:1013A000DF01CB01022E02C0969587950A94E2F7E1
:1013B000817081958527842385278E932F5F3F4FEA
:1013C0002430310561F708959A3078F5863068F554
:1013D000E82FF0E086E0989FE00DF11D11249E2F8C
:1013E000977083E0F695E7958A95E1F7EE0FFF1F7A
:1013F000EE0FFF1FE450FA4F40E050E080E02191F3
:1014000030E0092E02C0369527950A94E2F7217044
:101410003327042E01C0220F0A94EAF7822B4F5F74
:101420005F4F4430510559F7089580E00895809149
:101430006E0690916D06981301C008958F5F8770B6
:10144000FACF982F90958091620689238093620647
:1014500008959C01811542E59407B8F5811560E572
:10146000960708F0BEC0803E9105E0F48D3C9105E2
:1014700008F093C0883A910568F4853A910508F020
:101480007DC08130910521F00497813A910538F4AF
:10149000C9010895885A91094B9708F473C020E058
:1014A00030E0F6CF8115904468F4211580E23807CA
:1014B00008F0AEC0283E310558F3C9019A95811550
:1014C0009F41E5CF3F70306AE3CF803862E59607F1
:1014D000C8F5803672E5970708F068C0203482E5C9
:1014E0003807D0F4203292E5390708F058C0822F2F
:1014F0008695869540E2849FC0011124237041E0C7
:1015000050E0BA0102C0660F771F2A95E2F79B01EF
:10151000282B392B3D68BCCF822F86958695877006
:1015200070E2879FC0011124237041E050E0BA01AE
:1015300002C0660F771F2A95E2F79B01282B392BF3
:101540003C68A6CF803C72E5970760F48F71203A23
:10155000324508F040C090E0982F88279C01246F06
:10156000306A96CF805C9245809708F098CF322FF2
:10157000222722273F71206F306A8ACF24523109F7
:10158000306486CF285AE22FF0E0EE0FFF1FE455BB
:10159000FE4F2081318134647BCF306579CF2F714C
:1015A00030E0322F2227216F306A72CF86958695E0
:1015B000877040E2849FC0011124237041E050E015
:1015C000BA0102C0660F771F2A95E2F79B01282B0C
:1015D000392B3A685DCF90E0982F88279C013062C4
:1015E00057CF43E0880F991F4A95E1F788279F70EE
:1015F000622F6F71462F50E024FF05C070E1679F96
:10160000A00111245527842B952B9C01306940CFD4
:10161000832F8F71382FE3CF7A30B8F46630A8F477
:101620008430B0F4E62FF0E096E0799FE00DF11DF4
:1016300011249CE3899FE00DF11D1124EE0FFF1F83
:10164000E156FF4E85919591089580E090E00895D0
:1016500081E0FCCFA0E0B0E0E0E3FBE00C94C92F18
:101660008C01E0906706F090680680916506909185
:101670006606E82AF92ACFE0D0E0CC24C394D12C26
:10168000C6010C2E02C0880F991F0A94E2F78E2122
:101690009F21892B49F4219798F7B12C8B2DCDB739
:1016A000DEB7E9E00C94E52FBC2EB8018C2FB4DF37
:1016B000D0DE019781F3F2CF0F931F93CF93FC01FC
:1016C000858100811181811579F0611569F0C8016A
:1016D000C1DFC82F682FC80142DEB8018C2F9CDF04
:1016E000CF911F910F910895C8016EDEC82FF5CFDD
:1016F000CF93DF93D82FC92FADDF6D2F7C2F8CDFD9
:10170000A8DEDF91CF910895FC018481811599F0C5
:1017100080819181EDDF282F92959F70963099F00E
:1017200060F4925F9F70923030F4203FB1F038F453
:1017300081E0283E38F080E008959A5FF3CF81E0A1
:10174000243FC9F7089591E0213F09F090E081E03E
:10175000283E08F080E0892B089581E0089580E01C
:101760000895F894E82FE295EF70F0E041A18F70B2
:1017700021E030E0B90102C0660F771F8A95E2F7D9
:10178000CB01962F9095942391A392A1892B82A3AC
:101790007894089581E08093B40508950895CF92D8
:1017A000DF92EF92FF921F93CF93DF93172FE82FD3
:1017B000F0E0E758F04F71110CC0E4918E2F7E2FAE
:1017C0006E2FDF91CF911F91FF90EF90DF90CF9020
:1017D0000895E62EF12CC72ED12CF491EF2F86E040
:1017E000689F90011124CFEFD0E0C901BE010E9493
:1017F000AC2FAB01EE0CFF1C65E5649FC001659F3B
:10180000900D1124E81AF90A6E2D660F6E0D7E01F7
:10181000EC18FD08FE9DD001FF9DB00D11248B2F0B
:10182000169F70011124EF2CFF246E01CE18DF08E3
:101830007601FE9D6001FF9DD00C11247E01E61A09
:10184000F108B701169F7001179FF00C1124EF2CBF
:10185000FF24CE19DF09FC9F7001FD9FF00C1124BD
:101860007F2D43305105C1F02C3F334058F44130B7
:101870005105B1F04230510509F0A2CFEB2F8F2D69
:101880007F2F9ECF4430510571F04630510509F449
:1018900097CF7B2F8D2D94CF7D2DEB2F8F2F90CF3A
:1018A0007F2FED2D8DCFEF2D7B2FF8CFCF93809114
:1018B0005A0680FF03C0AFD3CF910895C0911201A3
:1018C00080911301C817B8F7809110019C2F981BC5
:1018D000892F20E040E060E090E016D1CF5FF0CFAC
:1018E0000F931F93CF93DF93D82F162F042F809140
:1018F0005A06C091120180FD10C0DF91CF911F9157
:101900000F910895809110019C2F981B892F202FF3
:10191000412F6D2F90E0F8D0CF5F80911301C81751
:1019200088F3C4DFEACFE7E5F6E0118282818460C4
:1019300082830895EAE5F6E080818E7F8083F3DF7D
:10194000E7E5F6E0828181608283B0CFCF93DF93B9
:10195000EC01EC81F0E0E758F14F849190915A0648
:1019600090FF0DC070915C0660915B068F3608F0A9
:101970008EE615DF962F672F482F892FB1DF8C81D8
:101980008F5F8C83DF91CF9108952091620536E0BF
:10199000839FC0011124269F800D911D1124811564
:1019A00022E0920714F080E090E0855A9C4F9093DB
:1019B0005A03809359030895EF92FF920F931F9358
:1019C000CF93DF93A0915903B0915A039D012B55FA
:1019D0003340620F731F613042E0740710F060E023
:1019E00072E04091570350915803FC01EE24E394B8
:1019F000F12C2617370748F05093580340935703AC
:101A0000CDB7DEB7E6E00C94E82F84919D9198174E
:101A1000A1F08D0101501109E8018883C901C5E0D9
:101A200096958795CA95E1F7E70102C0CC0FDD1FB7
:101A30008A95E2F7CE014C2B592B2F5F3F4F319601
:101A4000D8CF90919F05292F30E07091A005A90172
:101A50004F5F5F4F437055277417150689F0235663
:101A60003A4F60FB87F9F90184839F5F93709093ED
:101A70009F0580919D058F5F80939D0581E008956E
:101A800080E0089590E06115E9F08B5E9E4FFC01C7
:101A900080818F3FB1F0E82FE295EF70F0E041A137
:101AA0008F7021E030E0B90102C0660F771F8A9580
:101AB000E2F7CB01962F9095942391A392A1892BC5
:101AC00082A308958A5E9E4FE2CF90E06115A9F04F
:101AD0008B5E9E4FFC0120812F3F91F0E22FE2951B
:101AE000EF70E05EF0E0808190E02F7002C095958D
:101AF00087952A95E2F7817008958A5E9E4FEACF16
:101B000080E00895539A0895FC01EE0FFF1FE80F3F
:101B1000F91FE95DFD4F6183408322830895FC0135
:101B2000680F791F8FEF41E39191892728E030E01A
:101B3000982F990F87FF09C0892F842721503040A3
:101B4000B9F7E617F70781F70895892FF7CF8111C5
:101B500044C0E2E1F2E020E030E047E0429FC00113
:101B6000439F900D1124DC01A95EBD4F5C9153FF92
:101B700006C05681511103C08E5E9D4F08952F5FA0
:101B80003F4F37962330310549F7611531F1809188
:101B9000170283FF1CC080911E0283FF1BC080912F
:101BA000250283FD1AC082E090E027E0289FF00123
:101BB000299FF00D1124CF018E5E9D4FDC011696FA
:101BC0001C92E95EFD4F208128602083089580E00B
:101BD00090E0EBCF81E090E0E8CF80E090E00895E6
:101BE000FA01309709F0099508958091EE05811565
:101BF00069F0E091F205F091F305309739F001902A
:101C0000F081E02D309711F00995089580E0089556
:101C1000A3E0B0E0EEE0FEE00C94D02F9C018091B8
:101C200010029091110282179307B1F030931102C4
:101C300020931002E091F205F091F305309761F0E6
:101C40000084F185E02D309739F083E089833B8370
:101C50002A83CE01019609952396E2E00C94EC2F9D
:101C6000A3E0B0E0E6E3FEE00C94D02F9C0180916D
:101C70000E0290910F0282179307B1F030930F027A
:101C800020930E02E091F205F091F305309761F098
:101C90000084F185E02D309739F084E089833B831F
:101CA0002A83CE01019609952396E2E00C94EC2F4D
:101CB00080910D0108952FB7F89460910A027091F8
:101CC0000B0280910C0290910D022FBF0895CF92CC
:101CD000DF92EF92FF928091EE05811551F0EBDFDC
:101CE0006B017C01C701B601FF90EF90DF90CF90B0
:101CF0000895E1DFC090EA05D090EB05E090EC0597
:101D0000F090ED05C60ED71EE81EF91EEBCF87E753
:101D100097E7909301088093000888E19AE00FB656
:101D2000F894A895809360000FBE90936000FFCF59
:101D300008950895FC019B01809100029091010299
:101D40008617970740F0672B29F48091E8008E777B
:101D50008093E800C90140E0009741F4411106C0BA
:101D60008091E80082FF2FC080E0089520916905EE
:101D70002115A9F12530A9F12091E80023FD2DC0FE
:101D80002091E80022FDECCF2091E80020FFE4CF75
:101D90003091F3002091F200009719F028303105BE
:101DA00058F041E02830310509F040E02091E8008A
:101DB0002E772093E800D0CF41914093F100019716
:101DC0002F5F3F4FE9CF80916905811541F0853044
:101DD00041F08091E80083FFC3CF81E0089582E065
:101DE000089583E008958091FA0187FF13C08091E0
:101DF000E80082FF06C08091E8008B778093E800BE
:101E00000895809169058111F2CF08958091690547
:101E10008115D9F38091E80080FFF8CF8091E80028
:101E20008E77ECCF2091E4003091E50095E6A90192
:101E30002091EC00822F817020FF06C08091E80085
:101E400080FF06C080E008952091E80022FD1AC0BE
:101E500080916905811589F0853089F08091EB00CA
:101E600085FD0FC02091E4003091E5004217530733
:101E7000F9F29A95E1F684E0089582E0089583E00E
:101E8000089581E00895E8EDF0E080818E7F808301
:101E90001092E2001092DA001092E100A0EEB0E0A1
:101EA0008C9181608C9380818F77808319BCA7EDA2
:101EB000B0E08C918E7F8C9380818F7E8083109296
:101EC000F9010895982F9093E900891771F07091A6
:101ED000EC002091ED005091F00021FD09C09F5FC2
:101EE000973089F78093E9000895762F242F50E0EA
:101EF0003091EB003E7F3093EB003091ED003D7F61
:101F00003093ED003091EB0031603093EB00709333
:101F1000EC002093ED005093F0002091EE0027FD9F
:101F2000DECF0895A0E0B0E0E8E9FFE00C94CA2F0E
:101F3000C8EDD0E088818F7E8883E7EDF0E0808176
:101F40008160808384E082BF81E08093F901888191
:101F50008E7F888302EE10E0F80110821092DA0082
:101F600081EEC82ED12CF601108288818F7788836C
:101F700088818068888388818F7D888319BC1092CE
:101F800069051092F801109268051092F70190EE21
:101F9000E92EF12CF70180818B7F8083888181601D
:101FA000888342E060E080E08DDFF60180818E7FF3
:101FB0008083F80180818160808380818860808354
:101FC000F70180818E7F8083888180618883CDB78F
:101FD000DEB7E8E00C94E62FE0916E0690916D0676
:101FE00027E0E91302C080E00895AE2FB0E02E9FF5
:101FF000F0011124E159F94F3181361306C03081C7
:10200000381303C03581341304C0FD013196E770E5
:10201000E8CF81E008953BB1377F2BB128604FB7FF
:10202000F89487E292E0FC010196508168E02BB9B8
:10203000000000C057FF3BB9550F000000C000C0B2
:1020400000C03BB900C06A9591F752E08F3F9507F9
:1020500051F74FBF8FE594E00197F1F700C0000002
:1020600008950F931F93CF93DF938B01EA01909113
:102070006905943051F58093E9008FEF9091E80065
:1020800095FD06C095ED9A95F1F700008A95B1F798
:102090008091E80085FF19C0C5DE811111C08091D3
:1020A000E80085FD06C08091E8008E778093E80007
:1020B000F3CFF80181918F018093F100219779F797
:1020C0008091E8008E778093E800DF91CF911F9197
:1020D0000F910895CF93DF93D82FC92F48E050E098
:1020E000682F792F81E0BDDF88E0ED2FFC2FA2E083
:1020F000B2E001900D928A95E1F7DF91CF910895BA
:10210000BC0143E050E082E0ACCFA0E0B0E0EBE8FF
:10211000F0E10C94C82F182F092FB62EA72E7A01A4
:102120008091F6019AE0C92ED12C8A3018F0CC2487
:10213000C394D12CC1E0D0E06B2D7A2D812F902F4C
:10214000F7010995811116C02196CC16DD0694F091
:10215000CC9FC001CD9F900D900D112420E030E068
:1021600045E34A95F1F700002F5F3F4F28173907E5
:10217000B9F7E2CFCDB7DEB7EAE00C94E42F809157
:10218000620690916C06892B40916306411589F097
:1021900090E026EE31E0F90150812F5F3F4F511161
:1021A0009F5F51E02C3E3507B1F791111092630605
:1021B000842B8093E40148E050E064EF75E084EE06
:1021C00091E00E94C530892BB9F088E0E4EEF1E09F
:1021D000A4EFB5E001900D928A95E1F7E091F20548
:1021E000F091F305309741F00280F381E02D3097B4
:1021F00019F084EE91E00995089510926206E6EEDA
:10220000F1E086E0DF011D928A95E9F780E090E039
:10221000FFDC80E090E024DD10926C06B0CFEDDFB3
:1022200088E19AE00FB6F894A895809360000FBEFD
:1022300090936000FFCFAAE2B0E0E1E2F1E10C94FC
:10224000CF2F8AEF91E0FC0101962091F1002083CD
:1022500022E082309207B9F78091FB01893009F4BE
:1022600057C0C8F4823009F4B1C0833009F481C08A
:10227000813081F18091E80083FFE5C08091FA010F
:102280009091FB019A3008F0DEC0E92FF0E0E35EA8
:10229000FE4C0C9454308A3009F488C08B3051F7CE
:1022A0008091FA01813231F78091FE019091FF0116
:1022B000892B01F78091E800877F8093E80093DD08
:1022C00081E09091FC01911101C080E080930E01AA
:1022D00094DFD0CF8091FA01813A61F68091E800D5
:1022E000877F8093E8008091FE019091FF01892B08
:1022F00059F060E080E090E070E01CDD8091E80043
:102300008B778093E800B6CF68E082E092E0F4CF6C
:102310008091FA01813209F0ADCF8091FE01909158
:10232000FF01029708F0A6CF8091E800877F809395
:10233000E8008091E80082FF17C09091F30080913F
:10234000F200029731F48091F100813011F0863073
:1023500021F48091F10080930D018091E8008B774A
:102360008093E80040DD86CF809169058111E1CF3F
:1023700081CF8091FA01813A09F07CCF8091FE01F2
:102380009091FF01892B09F075CF8091E800877F3C
:102390008093E8008091E80080FFFCCF80910E01DF
:1023A0008093F1008091E8008E77DACF8091FA0176
:1023B000813209F05FCF8091E800877F8093E80049
:1023C00012DD8091FD0180930C0154CF8091FA01C0
:1023D000813A09F04FCF8091E800877F8093E80031
:1023E0008091E80080FFFCCF80910C01D9CF80382C
:1023F00089F0823841F58091FE018F70873018F5A1
:102400008093E9008091EB0085FB882780F910928A
:10241000E90006C080916805880F9091F701892B2B
:102420009091E800977F9093E8008093F1001092DC
:10243000F1008091E8008E7723C0811116C0809151
:10244000FC01813009F18091E80083FF0AC080918E
:10245000E800877F8093E8008091EB0080628093A2
:10246000EB00AA96E3E00C94EB2F823061F78091A9
:10247000FC01811581F01092E9008091E800877FCE
:102480008093E800B0DCDFCF81E0933009F080E09A
:1024900080936805F0CF8091FE018F702FEF280F99
:1024A000263088F68093E9002091EB0020FFE3CFEF
:1024B000933031F48091EB0080628093EB00DBCFAE
:1024C0009091EB0090619093EB0021E030E0A90146
:1024D00002C0440F551F8A95E2F74093EA0010921C
:1024E000EA008091EB008860E8CF8111ACCF1091B9
:1024F000FC011F778091E3008078812B8093E300BB
:102500008091E800877F8093E8006DDC8091E8008F
:1025100080FFFCCF8091E30080688093E30083E03C
:10252000111101C082E0809369058DCF80588230FF
:1025300008F089CF2091FC013091FD012C3D53E042
:10254000350791F583E08A838AE289834FB7F8944F
:10255000DE01139620E03EE051E2E32FF0E05093DD
:102560005700849120FF03C082958F703F5F8F706A
:102570008A30C0F0895C90E08D939D932F5F243169
:1025800061F74FBF8091E800877F8093E8006AE29F
:1025900070E0CE010196CEDB8091E8008B778093CE
:1025A000E80051CF805DE7CF832F992783309105D5
:1025B00029F160F48130910509F475C0029709F0A2
:1025C00042CF8BE390E0E6E2F1E02CC02091FE01E7
:1025D0003091FF018132910509F459C0829709F0C9
:1025E00032CF2115310509F468C02130310509F0D9
:1025F0002ACF82E390E0E0EBF0E014C0C901992714
:102600002130A9F182309105D1F1892B09F01BCF3E
:10261000EDE9F1E0E4918E2F90E0EDE9F1E0009733
:1026200009F411CF2091E800277F2093E800209142
:102630000002309101028217930708F49C0140E0E8
:102640002115310509F03EC041113CC08091E800E0
:1026500082FDA2CF80916905811509F49DCF853057
:1026600009F49ACF8091E80083FFF0CF95CFE1E89D
:10267000F1E0E4918E2F90E0E1E8F1E0D0CFE3E7E4
:10268000F1E0E4918E2F90E0E3E7F1E0C8CF21156F
:10269000310571F02130310509F0D5CE89E090E0A7
:1026A000E1E5F1E0BFCF82E190E0E1E6F1E0BACF11
:1026B00089E090E0E8E3F1E0B5CF84E490E0E2EE79
:1026C000F0E0B0CF80916905811509F465CF8530C0
:1026D00009F462CF8091E80083FD5ECF8091E8002D
:1026E00082FDB4CF8091E80080FFAACF9091F300E3
:1026F0008091F2002115310519F08830910550F0D4
:1027000041E0089709F040E08091E8008E778093DF
:10271000E80096CF44914093F10031962150310961
:102720000196E8CF803809F08ECE8091E800877F4F
:102730008093E8008091F8018093F1007ACE8111B6
:1027400082CE1091FC01123008F07DCE8091E8001D
:10275000877F8093E8001093F80145DB111599F00D
:1027600084E08093690542E061EC81E0ABDB42E20A
:1027700061EC82E0A7DB80916905843051F482E04E
:1027800080930F0160CE8091E30087FDE9CF81E067
:10279000E8CF81E0F5CF0F931F93CF93C82F81151A
:1027A00031F18CEF8C0F813A98F506EE11E0F801CB
:1027B0008191C81701F121E0EC3EF207C9F7EFEF74
:1027C00080E0D8019D918D01C91781F0EF3F19F488
:1027D000911101C0E82F8F5F863099F7EF3F31F0FC
:1027E0000E2E000CFF0BEC51FE4FC283C8DCCF91C4
:1027F0001F910F910895E6EEF1E08191C81302C098
:10280000DF011E9231E0EC3EF307B9F7B8DCD7CF19
:1028100080E28C0F883068F4C77081E090E001C0DE
:10282000880FCA95EAF7C0916206C82BC09362066A
:10283000DDCF8BE58C0F833030F42C2F2452330BFB
:10284000C901E6D9D4CFC85ACB3188F6EC2FF0E0D5
:10285000EE0FFF1FE455FE4F8081918101DAC7CF53
:10286000CF93DF93EC01805E9109089720F06DE231
:1028700075E1209711F46EE175E1CE010E945F09C8
:102880008C2F89DFDF91CF910895CF93DF93EC01F7
:10289000FB018A81823031F482819381E1DF8D8175
:1028A00082608D83DF91CF910895FB0180819181BA
:1028B000D7CF811559F19CEF980F913A60F4E6EE6D
:1028C000F1E09191891302C0DF011E9291E0EC3E8C
:1028D000F907B9F754CC90E2980F983050F487700C
:1028E00091E001C0990F8A95EAF7892F0E94210A89
:1028F000F1CF9BE5980F933018F480E090E088C901
:10290000885A8B3118F480E090E0AAC90895CF93DB
:10291000DF93EC01CEDFCE01805E9109089720F0B5
:1029200066E375E1209711F467E275E1CE010E943C
:102930005F09DF91CF9108950F931F93CF93DF939A
:10294000D82FC92F8B018CDF8FE99FE00197F1F71A
:1029500000C0000001501040B9F78D2F9C2FD7DF29
:10296000DF91CF911F910F910895FB01DC01129629
:102970008C91813051F48FE39CE90197F1F700C00D
:10298000000080819181C3CF08958230E9F7828170
:102990009381F9CF0F931F93CF93C82F8B01FBDE49
:1029A0008FE99FE00197F1F700C00000015010404F
:1029B000B9F78C2F7EDFCF911F910F910895CF93A0
:1029C00080E09091A00520919F052917A9F1E92F9A
:1029D000F0E0EF55FA4FC081C7FBCC27C0F99F5FED
:1029E00093709093A00580919E058F5F80939E05C4
:1029F00080916706909168060E948B09813049F0AA
:102A0000823079F06AE070E089EAC11108C08AEA90
:102A100006C06AE070E08EE4C11101C08BE4BADF49
:102A200009C06AE070E08BE291E0C11102C08BE264
:102A300093E082DF81E0C5CFCF910895811531F019
:102A400090916206892B8093620699CB0895811537
:102A500019F00E94210A93CB0895811531F09091CD
:102A60006C06892B80936C068ACB0895811539F00A
:102A7000809590916C06892380936C0680CB089595
:102A8000CF93DF93FC01EB01448155816085718513
:102A9000CE01A6D89B81909580916C068923809366
:102AA0006C068C810E94210A6ADB87E0FE0111928C
:102AB0008A95E9F7DF91CF9108950F931F93CF93F4
:102AC000DF938C01EB018D8181FD16C082608D83C7
:102AD00080916C069B81892B80936C0680916206A5
:102AE0009C81892B809362064ADBF80142815381E5
:102AF00060857185CE0174D81092540610925306E9
:102B00008D8180FD03C0BE01C801BADFDF91CF9186
:102B10001F910F910895A0E0B0E0E1E9F5E10C9478
:102B2000CA2FFA0169017801C82F880FDD0B309791
:102B3000B9F0DE0193E0AA0FBB1F9A95E1F7AE5DF5
:102B4000BE4F11968D919C91129789539A4F2C915B
:102B5000422F50E0E217F10508F4AF010E94D23095
:102B6000CE010E943E2F182F8115D9F0E114F104F7
:102B7000C1F083E0CC0FDD1F8A95E1F7FE01EE5D29
:102B8000FE4F8381482F50E0E816F10408F4A701B6
:102B9000CE5DDE4F6C817D8169537A4FC6010E9404
:102BA000D230812FCDB7DEB7E8E00C94E62FA1E05C
:102BB000B0E0EDEDF5E10C94C02F762E4A015901FD
:102BC000680101E010E09E012F5F3F4F40E050E0C0
:102BD00060E070E0A0DF182F8115A9F1F4012080DA
:102BE00031804280538067D86980621973098409F3
:102BF0009509643671058105910530F4B701C60168
:102C00000E948F0D8615F9F08701950140E050E094
:102C100060E070E0872D7FDF082FB701C6010E94BA
:102C20008F0D10E086110AC0102F117000FF06C032
:102C300042D8F4016083718382839383812F21962C
:102C4000E2E10C94DC2FA701B601C5010E94D2304D
:102C5000F5CFA5E0B0E0EFE2F6E10C94CA2F6B01EE
:102C600085E0E82EF12C08EC15E09E012F5F3F4F28
:102C700043EC55E061E080E09ADF811549F095E092
:102C8000FE013196AEEBB5E001900D929A95E1F719
:102C900095E0EEEBF5E0D60101900D929A95E1F703
:102CA0002596E8E00C94E62F4F925F926F927F9208
:102CB000AF92BF92CF92DF92EF92FF920F931F934A
:102CC000CF93DF93F82EEB01A42ED22EE32EB02E5D
:102CD000C12E488059806A807B800E945B0E6419F7
:102CE000750986099709643671058105910510F407
:102CF000A11491F000E010E020E030E04B2D5C2DBD
:102D00006D2D7E2D8F2D07DF811539F00E945B0E12
:102D1000688379838A839B8381E0DF91CF911F91C0
:102D20000F91FF90EF90DF90CF90BF90AF907F908A
:102D30006F905F904F9008950F931F93CF93DF9301
:102D4000D82FC92F45E050E06DEC75E00E94C530EA
:102D500041E0892B09F440E005E010E02D2F3C2FE5
:102D60006AEB75E082E0A0DFDF91CF911F910F91B8
:102D70000895ABE0B0E0EFEBF6E10C94CE2F28E045
:102D8000EAE5F6E0CE010196DC0101900D922A956C
:102D9000E1F730915706209158065091590639872E
:102DA0002A875B8741E09C01511101C040E00BE0A4
:102DB00010E06CEA75E087E077DF81111092590628
:102DC0002B96E4E00C94EA2FA8E0B0E0EAEEF6E1FE
:102DD0000C94CC2F88E0E82EF12C03ED15E09E0139
:102DE0002F5F3F4F46EB55E064E083E0E0DE182FB5
:102DF0008115B9F19091D2058091B505981789F1A7
:102E0000F12C9091D6058091D505891721F1E92FF4
:102E1000F0E0E553FA4F848587FB662760F99F5FF2
:102E200093709093D6059091D4059F5F9093D405AD
:102E30008F770E94210DF82E8111E3CF00E010E082
:102E400020E030E040E050E060E070E085E063DEEC
:102E50001F2D182302C0F110F1CF8091D20580936D
:102E6000B505812F2896E6E00C94E82FA4E0B0E0A9
:102E7000ECE3F7E10C94CA2FC090B005D090B105F7
:102E8000E090B205F090B3050E945B0E6C197D09CD
:102E90008E099F0911E0643671058105910518F1CD
:102EA0000E94670EDC01CB010296A11DB11D898332
:102EB0009A83AB83BC8300E010E020E030E044E084
:102EC00050E0BE016F5F7F4F86E025DE182F811531
:102ED00051F00E945B0E6093B0057093B105809332
:102EE000B2059093B305812F2496E8E00C94E62F69
:102EF0000F93CF93DF93CAE5D6E0488159816A8169
:102F00007B8188E090E00E94FF30288139814A81EE
:102F10005B816C817D818E819F8100E20E94853082
:102F2000622F83E290E00E94ED30DF91CF910F910C
:102F30000895EAE5F6E085E0808311828FEF8283D1
:102F40008EE683831482E7E5F6E0828183608283E4
:102F50008AE596E0CDCF80915E06833018F48F5FCE
:102F600080935E068AE596E0C3CF80915E06811568
:102F700019F0815080935E068AE596E0B9CF0F93F1
:102F80001F93CF93DF93182FD62FC42F022F80913A
:102F90005A0680FF36C090915B06911308C090914D
:102FA0005C06961304C090915D06941729F09091E9
:102FB0005906926090935906E82FE695E695F0E061
:102FC000E757FE4F9081909357068C7F8430F1F441
:102FD0008C2FCF3608F08EE6612F7D2F0E94CF0B0D
:102FE000962F672F482F892F0E94700C10935B0635
:102FF000D0935C06C0935D06011519F08AE596E052
:1030000077DFDF91CF911F910F910895923071F783
:10301000C0915D06EBCFCF93DF93D82FC92F0E94CD
:10302000F50D81FF0AC020E04FEF6FEF84E2A7DFCC
:103030008D2F9C2FDF91CF9108958D2F9C2F0E9473
:103040008B09823081F0833049F0813089F020E0B3
:103050004091AF066FEF8091AE06E9CF20E04FEFD1
:103060006FEF8AEAE4CF20E04FEF6FEF85E5DFCF27
:1030700020E04FEF6FEF80E0DACFCDDF909368066E
:1030800080936706089521E030E002C0220F331FCD
:103090008A95E2F78091670690916806822B932BC0
:1030A000ECCF21E030E002C0220F331F8A95E2F717
:1030B000209530958091670690916806822393232E
:1030C000DCCF909169068095892380936906282F2B
:1030D000277021110CC0891751F090916B0692FF57
:1030E00006C0869586958695DCDF10926906089560
:1030F00090916B0692FB222720F9281771F080FB34
:1031000092F990936B0660916A0670916B0684E069
:1031100090E00E94073182E0D4CF0895EAE5F6E01E
:10312000818121E0438162818B5F29CFEAE5F6E06E
:10313000818121E043816281855021CFEAE5F6E07B
:10314000628121E1620F08F46FEF21E04381818108
:1031500016CFEAE5F6E0628121E1621B08F460E047
:1031600021E0438181810BCFEAE5F6E0438121E153
:10317000420F08F44FEF21E06281818100CFEAE540
:10318000F6E0438121E1421B08F440E021E0628146
:103190008181F5CEAB0124E630E0BC0188E70E94D6
:1031A000722D9C0181E0232B09F080E0089580912D
:1031B0005D05811561F080915C05811541F062E04B
:1031C00070E08EEA90E0E6DF811110925C050895D0
:1031D00080915D058115F1F00E945B0EDC01CB0151
:1031E000805A9541AF4FBF4F80935E0590935F0526
:1031F000A0936005B093610580915C0581110AC0C0
:1032000062E070E08CEA90E0C5DF811519F081E0A2
:1032100080935C0508951F93CF93DF93982F162F0B
:1032200081E09A3019F09D3031F480E084D0DF9154
:10323000CF911F910895C0915903D0915A0386E010
:10324000FE01A5E4B3E001900D928A95E1F7903E6E
:1032500090F186E0FE0111928A95E9F7C091590339
:10326000D0915A03111133C046E050E0BE0185E40D
:1032700093E00E94C5309E012B553340892B91F578
:103280002A5F3F4F40916205642F70E0C9010E94A0
:10329000AC2F481B463010F4240F311D211572E06D
:1032A000370710F020E030E0255A3C4F30935A03A6
:1032B00020935903BCCFF6E09F9FB0011124675CB7
:1032C000764F46E050E0CE010E94AF30C7CF9E015E
:1032D0002A5F3F4FFE012E173F0731F28081809514
:1032E0008193F9CFC90145E0969587954A95E1F715
:1032F00041E050E0BA0102C0660F771F8A95E2F7FD
:10330000CB016091570370915803862B972BB9011D
:103310006B5F7F4FE5E076956795EA95E1F702C030
:10332000440F551F6A95E2F7842B952B9093580311
:1033300080935703A5CFCF93382FE0915903F09195
:103340005A03EB55F34020916205622F70E0CF01E4
:103350000E94AC2F281B822F311561F066E00E947D
:10336000F72FC82FC15010F4CF91089560E080E28C
:1033700052DFF8CF8E0F9F2F911D811522E092070B
:1033800010F080E090E0855A9C4F90935A03809310
:103390005903EACF1F93CF93DF93EC01162FFE0161
:1033A0008491811104C0DF91CF911F910895612F05
:1033B00032DF2196F4CF8F929F92AF92BF92CF923D
:1033C000DF92EF92FF920F93CF93DF9388E090E02C
:1033D0000E94E3304B015C01CAE5D6E06883998224
:1033E000AA82BB821C821D821E821F8283E290E021
:1033F0000E94DB30282F30E040E050E060E070E0D9
:1034000080E090E000E20E946A30282939294A29A8
:103410005B29288339834A835B836C837D838E8316
:103420009F83DF91CF910F91FF90EF90DF90CF902E
:10343000BF90AF909F908F9008950F931F93CF935D
:10344000DF93EC01FC0101900020E9F78F010150AE
:103450001109C017D10728F0DF91CF911F910F916B
:10346000089560E08991D7DEF4CF1F921FB61F92B6
:1034700011248F939F93AF93BF9380916505811122
:1034800013C080910A0290910B02A0910C02B0919E
:103490000D024196A11DB11D80930A0290930B026B
:1034A000A0930C02B0930D02BF91AF919F918F91A9
:1034B0001F901FBE1F9018952FB7F89480910A0295
:1034C00090910B02A0910C02B0910D022FBF0895B4
:1034D000CF93DF938091EE05811521F0EDDFDF9131
:1034E000CF9108950E94670EEB01862F9D2FF7CF95
:1034F00060915A066695669570E041E050E08BE079
:1035000091E00E94B830892B19F481E0809358062D
:10351000DFDF90939805809397058091590684602A
:1035200080935906089590915A0690FF31C08115F5
:1035300081F1863080F58F73880F880F90915A063D
:103540009370892B80935A068091590681608093ED
:103550005906611519F08AE596E0CADC60915A06B1
:103560006695669570E041E050E08BE091E00E9446
:10357000B830892B91F00E94930C81E080939A05DA
:1035800020E040915D0660915C0680915B06F7CC7F
:10359000089581E0D1CF85E0CFCFAADFEECF809133
:1035A0005A06869586958F5F863008F081E061E047
:1035B000BACF80915A06869586958A9509F485E05A
:1035C00061E0B1CFA0E0B0E0E8EEFAE10C94C62FE4
:1035D0008C01FC018481811509F451C461E0C801AA
:1035E0000E945C0B6C01F801858181112FC046019E
:1035F000F8016581611509F45BC0C4019A958115D4
:103600009F4408F04EC0C40199279C012450310901
:103610002432310518F08B970E9780F4E0914E0616
:10362000F0E0EE0FFF1FE45EF94F808191818F3F44
:103630003FE7930719F0019691838083F6EE8F168A
:10364000910409F03FC460935006AAC080905306CD
:10365000909054068114910451F2C814D90441F297
:1036600053E6A52E51E0B52E811411F0A12CB12CFA
:1036700060E0882D0E94A70D7C01009709F4B7CF68
:10368000FC01858184608583D182C082B701C50138
:1036900014DA10926C0661E0C8010E945C0B4C01C8
:1036A000A7CF811421E0920608F002C4C401ADCF77
:1036B00086EE8816910439F2B8F4E3EE8E16910482
:1036C00009F483C068F42CE28216910409F486C0E0
:1036D00030EE8316910409F063C06093520660C017
:1036E00084EE88169104F7CF92E489169EE7990636
:1036F00009F4B6C308F04EC0F0E48F16FEE79F064B
:1037000009F4D3C382E021E482162EE7920609F47D
:10371000CDC3C40197558115914008F041C0740193
:10372000FF2481109DC380E00E94A70DEC01892B2E
:1037300009F496C3F80185819D8180FB90F99D83F2
:10374000811509F44EC0B8DE909356068093550655
:103750008A818F5F8A8380916C0690916206892BA3
:103760008B83809163068C83409163015091640147
:1037700060916B0170916C01CE010E94F00D8D8102
:1037800081FD03C0E12C37E5F32EF0925406E09260
:10379000530606C033E483163EE7930609F460C37C
:1037A000F8019581911509F47EC0809162068272BC
:1037B000F401E052F847EB30F10508F074C0E95D20
:1037C000FE4C0C945430877F4AC360935106E8CF77
:1037D00081E080934F0610926201E2CF10924F0673
:1037E000DFCF4091690150916A0160916B01709146
:1037F0006C01CE010E94F00D8D8181FFD1CFBE0101
:1038000083E691E03DD9809153069091540681154D
:10381000974531F61092540610925306C1CF80910D
:103820005A0680FF10C08E7F80935A068AE596E084
:103830005FDB0E94930C809159068160809359064A
:103840000E94560C0DC3816080935A0661E08695F4
:10385000869569DE05C3811521F0ABDE01C38115B4
:10386000E1F39DDEFDC2811521F060DCF9C2811516
:10387000E1F354DCF5C2811521F06BDCF1C2811556
:10388000E1F35CDCEDC2811521F079DCE9C2811540
:10389000E1F36ADCE5C2811521F067DBE1C2811545
:1038A000E1F359DBDDC29401205E3245203231055F
:1038B000B0F491112BC0F82DFF7181E090E09C01D4
:1038C00002C0220F331FFA95E2F74901622F83E00D
:1038D00090E00E94ED30C4010E94AA09C1C2911576
:1038E000A1F13BE583163CE7930629F18CE58816A8
:1038F0008CE79806C1F081E0EAE58E16ECE79E06BB
:10390000C1F0F1E08F16FCE79F06E9F023E0821694
:103910002CE7920691F081143CE79306B1F40E94E3
:10392000FD100E94870E80916B06002482FF039495
:10393000802DDEDB95C280E0FCCF6FEF7FEF80E073
:1039400090E00E9407310E940F11F801E080F180A1
:10395000911509F45DC0C7010E942A0BC82F682F7A
:10396000C7010E94AF09B7018C2F0E940C0B0E9467
:10397000290AD82FC92FF801C580E680E2942FE0EC
:10398000E2228091690687708115F9F0DC2CC11460
:10399000E9F0892F807F803461F080E28D0F8830DC
:1039A000A0F0892F807E803221F4D23070F0E114B3
:1039B00061F080916B0682FF08C082E082DB80911B
:1039C00069068770DD24D3948111D12C8C2F8295C8
:1039D0008F70883009F40FC1C8F58430F0F4FC2FE3
:1039E000FF70FF2E823008F441C0C07FC03219F052
:1039F000F29480EFF822D11509F46FC0D13009F4A8
:103A0000B8C0C11409F4C4C0E11409F484C044C0AE
:103A1000C7010E94E409C82FA6CF843009F4CEC0A4
:103A2000D11409F41FC18091690680FD1BC1F80102
:103A3000158286958695869526DBC801C3DD809123
:103A400069068695869586952CDB0CC1893009F42C
:103A500061C18A5F8F70823018F7D23F09F069C167
:103A60008C2F8F71C11063C10EDBFAC0C03118F00A
:103A7000F29490EFF922C114B9F0F11469F080E2E8
:103A80008D0F883010F0D11109C0809162068F2906
:103A9000809362060E94BF108D2F2FC080916C060C
:103AA0008F2980936C06F6CF8D2F0E945914F11444
:103AB00009F4B6CF80E28D0F883010F0D11104C028
:103AC0008F2D0E94210A06C0F09480916C068F21F0
:103AD00080936C060E94BF10A3CF80916B0682FD7D
:103AE00016C0C11469F0F11439F0809162068F2973
:103AF000809362060E94BF1080E00E94CB1390CF9B
:103B000080E00E945914F11409F48ACFD9CFC1146E
:103B1000A1F0E11004C08F2D0E941E1581CF21E07D
:103B2000E2127ECF809163069F2D9823F91609F447
:103B300077CF8F298093630673CFE11071CF8F2DDC
:103B40000E942715909163068F2D8923811529F0F6
:103B50008F2D8095892380936306809164069F2D25
:103B60009823911509F45CCFF094F822F092640642
:103B700057CFC11429F036E0E31608F051CFCBCF70
:103B800085E0E81608F04CCF8F2D0E94271548CF0E
:103B9000E114D1F3D93369F49FEFE7EEF3E09150EC
:103BA000E040F040E1F700C000008D2F0E94591462
:103BB00037CF8FE39CE90197F1F7F5CF8C2F8695EE
:103BC00086958370811569F0813009F029CF8D2F9A
:103BD0009C2F9370C11002C080E090E00E94300ED4
:103BE0001FCF8D2F9C2F9370C11002C080E090E0FA
:103BF0000E94080E15CF8C2F8370811146C0C11012
:103C00002FC04D2F429546954770440F440F2D2FDE
:103C10002F7030E0042E02C0220F331F0A94E2F707
:103C200080E090E0D4FF09C08FE090E002C0880FF0
:103C3000991F4A95E2F780959095C695C695C370F1
:103C4000C230D1F0C330A9F04091650650916606AC
:103C5000C13069F0822B932B842395230E94AA09FB
:103C60000E94F50D60E0C8010E945C0B08C1242B86
:103C7000352B822B932BF2CF822B932B2091650631
:103C80003091660682279327E9CFC11489F1C0FFDE
:103C9000E7CF4D2F429546954770440F440F2D2F87
:103CA0002F7030E0042E02C0220F331F0A94E2F777
:103CB00080E090E0D4FF09C08FE090E002C0880F60
:103CC000991F4A95E2F780959095C695C695C37061
:103CD000C230B9F0C33091F0409167065091680648
:103CE000C13051F0822B932B84239523C6D9B8CFB2
:103CF000823008F4B5CFCDCF242B352B822B932BDC
:103D0000F5CF822B932B209167063091680682278E
:103D10009327ECCFCF70C11431F08C2FB4D98D2FF5
:103D20000E941E159DCF8D2F0E9427158C2FB9D96B
:103D300097CF70F4D03FC9F0D13F91F0C11409F48E
:103D400056C0E11409F450C08D2F0E94CB1388CFC8
:103D5000D33F29F1D43F91F790916B0692FD2DC08E
:103D60008C2F8F71C11419F37FCEC114A9F095E087
:103D7000E91608F075CFCF7181E090E0FC0102C038
:103D8000EE0FFF1FCA95E2F7EF0180916706909151
:103D900068068E279D27AACFF6E0EF16EACF80E0CF
:103DA00090E0C11409F4A2CFCF7181E090E002C08D
:103DB000880F991FCA95E2F799CFC11461F08C2F33
:103DC0008F7192FF51CE982F990F990F990F936091
:103DD0009093690649CE81E074D922E0E21608F496
:103DE0003FCF82E06ED93CCF8C2F8F713DCEE11456
:103DF000A1F0D93369F43FEF87EE93E03150804072
:103E00009040E1F700C000008D2F0E94591428CF88
:103E1000EFE3FCE93197F1F7F5CF8C2F8F7187CF66
:103E2000E4EE8E16910457CC78F581E020E48216FA
:103E30002EE7920639F082E031E483163EE79306DE
:103E400009F067CC20D980916706909168069C01A3
:103E5000267033272630310509F0B5CC88600DD99E
:103E6000809169068770811551F0F801858181156F
:103E700031F080916B0682FF02C082E022D9CDB77B
:103E8000DEB7ECE00C94E22F83E488168EE7980608
:103E900009F086CC8091AE0685508093AE0620E076
:103EA0004091AF066FEF6BD8DBCF81E0FAD8CBCF74
:103EB00092E489169EE7990609F0B6CF8091AE0686
:103EC0008B5FEBCF08F06CCC23EE8216910409F4E3
:103ED0007CCC08F0A5CF8CE28816910409F478CC4C
:103EE00090EE89169104F7CB8091AD06803178F47D
:103EF0008091AC06811559F0E0916E0620916D0617
:103F00003091A8064091A70657E02E1301C00895EE
:103F10006E2F70E05E9FF0011124DF01A159B94FAF
:103F200014968C911497811551F111968C911197DB
:103F3000831325C08C91841322C015968C911597FC
:103F400081111DC012968D919C91A091A906B091EE
:103F5000AA068A1B9B0B883C910588F48091AD06CC
:103F60008F7080618093AD06EB58F94F80818F7020
:103F70008061808387EA96E025DB0C94170AFB01B9
:103F80003196E770C2CFADE0B0E0E9ECFFE10C9410
:103F9000C52F8C0186E0F801DE01189601900D9284
:103FA0008A95E1F7F801F580C48087EA882E86E0DB
:103FB000982E7090AB0671101FC0C114D1F0F1148F
:103FC00009F415C1C8010E94840B811509F40FC1C1
:103FD00087E0F801D40101900D928A95E1F7F1E0B4
:103FE000CF1206C08091A7069091A8060E94780B78
:103FF0007BDFFF24F39453C0E080A280B380D09095
:10400000AC068091A9069091AA069501281B390B50
:10401000D11409F4B5C0283C310508F08DC0C11495
:1040200041F39091A806C1808091AD06803108F0DF
:1040300056C0C91213C09091A7069E110FC0F1106F
:1040400048C08F7080618093AD0687EA96E0BADA47
:104050008091AD06F8018683F12C21C0F11039C0A2
:1040600040E06C2D8E2D0E94EC0F40E06C2D8E2DCB
:104070000E94EC0FF82E8111EFCF888599850E9460
:10408000780B292F22952F70903470F49F70223076
:1040900098F09115A9F0F8019681903188F48F2D50
:1040A0002D96EDE00C94E12F2A5F2F70223060F006
:1040B000C80188DAFD2CF3CF911511F0811579F341
:1040C000805E883060F3F4CF803F48F3815F8330B7
:1040D000F9CF8091AD0681608093AD06BDCFC91246
:1040E00007C09091A7069E1103C0F11409F469C09E
:1040F000C8010E94840B811509F479C0F11409F4F8
:1041000076C08091AD06803270F02091A706309184
:10411000A8063A832983BC82AB827D821E828F836C
:10412000CE0101964FDA87E0F801A7EAB6E00190E8
:104130000D928A95E1F75CCF8091AD06803148F40D
:1041400087EA96E03FDA87E0F40111928A95E9F771
:1041500083CFC11409F44DCF2091A8069181291372
:10416000C7CF9091A7069E11C3CFF110C1CF868310
:10417000C80128DA87E0F40111928A95E9F739CF6E
:10418000283C310500F7C11409F433CFF11479F15B
:104190009091A8068181981320C08091A7068E1166
:1041A0001CC08091AD0680FD0FC0803168F0868311
:1041B000807F803F39F08681982F907F905F8F704D
:1041C000892B8683C801FED987E0F801A7EAB6E00B
:1041D00001900D928A95E1F70CCFC8010E94840BE3
:1041E0008111A1CF8091AD0681608093AD06C80199
:1041F000E9D9FFCEABE1B0E0E0E0F1E20C94CE2FE4
:104200004E8B5F8B688F798F8A8F192F9B8F9111BF
:1042100010926C061D8A86E0FE017696DE011F96DE
:1042200001900D928A95E1F70A8D011561F00B8BD3
:104230001C8B61E0CE010F960E945C0B61E0CE0109
:104240000F960E945C0B0B8B1C8B87E0FE013F9648
:10425000DE01189601900D928A95E1F7CE0108963D
:1042600092DE811128C020916D0630916E0687E0A4
:10427000FE013896DE01119601900D928A95E1F7C4
:104280008C858115C1F0822F90E001968770992767
:1042900038171906D9F097E0929FD0011124A1593F
:1042A000B94FFE01319601900D929A95E1F78093F6
:1042B0006D060E94170A17E080916E0690916D06B8
:1042C000891312C06B96E4E00C94EA2F0E94FD1053
:1042D00010926D0610926E0687E0E7EAF6E0DF01C5
:1042E0001D928A95E9F7E7CF189FC00111248159E3
:1042F000994F49DE811531F380916E0690E0019669
:104300008770992780936E06D7CFA6E0B0E0EBE8E0
:10431000F1E20C94CE2FD0D88C018091F0059091D1
:10432000F1058017910769F019821A82C5D8BC017E
:1043300049815A8180E090E05DDF1093F1050093A0
:10434000F0052696E4E00C94EA2FCF93DF93EC017E
:10435000B3D88C1B9D0BDF91CF9108952F923F9284
:104360005F926F927F928F929F92AF92BF92CF9205
:10437000DF92EF92FF920F931F93CF93DF93809181
:104380005D05811509F473C0C0914303D0914403C6
:1043900093D88C1B9D0BC29708F449C08DD890937D
:1043A00044038093430360E080E00E94C50C809149
:1043B0008B05809322030E94F50D80932103C0900A
:1043C0001D03D0901E03E0901F03F09020030E9475
:1043D0005B0EC09122036C197D098E099F0961361D
:1043E0007A4E8105910508F454C0C0901903D0900D
:1043F0001A03E0901B03F0901C030E945B0E6C19E3
:104400007D098E099F0961367A4E8105910508F470
:1044100040C0C11539F080915C0581113CC00E94FB
:10442000E81839C080915C0581110E94D7188091ED
:10443000570390915803892B09F090C180915C0536
:104440008115A9F00E945B0E00915E0510915F0539
:104450002091600530916105601B710B820B930BFD
:104460006F3F7F4F8F4F9F4710F40E94D718DF9107
:10447000CF911F910F91FF90EF90DF90CF90BF9061
:10448000AF909F908F907F906F905F903F902F9014
:104490000895C111C0CF8091EE05811509F4FCC0CB
:1044A000C0901503D0901603E0901703F090180306
:1044B0000E945B0E6C197D098E099F09693C71058C
:1044C00081059105B0F10E945B0E60931503709316
:1044D0001603809317039093180380914F06811160
:1044E00004C080916201811148C063E080E00E94B5
:1044F000C50C8DE691E00E941D1A60E080E00E94EC
:10450000C50C81E0809362018091FF0290E00196EA
:10451000817099278093FF020197807699272091D7
:10452000210321FF37C060E670E08F559B4F0E944A
:10453000DC0C80912203811551F00E945B0E609388
:104540001D0370931E0380931F039093200365E067
:1045500080E00E94C50C80916706909168060E94D9
:104560008B09823009F490C0833091F1813009F4D5
:104570008FC060E081E695E02EC060E080E00E94A0
:10458000C50C8DE691E00E941D1A61E080E00E945A
:10459000C50CBACF20915206211529F060E670E0D3
:1045A0008F519C4FC4CF20915106211529F060E610
:1045B00070E08F5D9C4FBBCF2091500660E670E0AD
:1045C000211519F08F599D4FB2CF8F559E4FAFCF08
:1045D00060E083E795E00E94CA196AE080E00E94EB
:1045E000C50C00915B0610915C06D0915D0683E7D7
:1045F00091E00E941D1A10920B03CAE0802F6C2FCD
:104600000E94F72F905D90930A030E94F72F905D10
:1046100090930903805D8093080388E093E00E94F3
:104620001D1A86E791E00E941D1A10920703812F40
:104630006C2F0E94F72F905D909306030E94F72F36
:10464000905D90930503805D8093040384E093E084
:104650000E941D1A89E791E00E941D1A109203031F
:104660008D2F6C2F0E94F72F905D909302030E9474
:10467000F72F905D90930103805D8093000380E0AD
:1046800093E00E941D1AD3CE60E08DE695E0A3CFA3
:1046900060E087E695E09FCFC0901103D0901203B1
:1046A000E0901303F09014030E945B0EC09122036C
:1046B0006C197D098E099F09693C71058105910579
:1046C00090F00E945B0E609311037093120380932D
:1046D000130390931403CF3028F560E471E089EF61
:1046E00097E00E94DC0CC1112EC06BE080E00E94BC
:1046F000C50C8CE791E00E941D1A109210032AE06D
:104700008C2F622F0E94F72F905D90930F030E94D1
:10471000F72F905D90930E03805D80930D038DE0E5
:1047200093E0AFCF80910C0390E0019681709927C0
:1047300080930C0301978074917060E471E0875856
:104740009A4F0E94DC0C0E945B0E609319037093D9
:104750001A0380931B0390931C03C7CF80915D05C0
:10476000811509F46BCE80915B05811167CE0E94A3
:10477000E81820915703309158032115310509F4A9
:104780005DCE10E041E050E0812F90E01A01012E53
:1047900002C0220C331C0A94E2F7B1016223732396
:1047A000672B11F41F5FF0CF2091630520FF94C0A9
:1047B000912F990F990F990F37E0390F80E023E07F
:1047C00090930601809309013093070120930A0119
:1047D00024E630E047E050E064E071E088E70E94C2
:1047E000282D892B09F02ACEB0E21B9FA0011124AD
:1047F0008091630580FF7CC0E3E2F3E080E2EF019B
:1048000019928A95E9F7A5E8B1E001E811E089E895
:10481000C82E81E0D82E97E0592E772473948D917D
:10482000F80121918F01240F352F311D255A3C4F5E
:10483000E82FF0E0ED5DFC4F80E090E0652C681A19
:10484000872C082E01C0880C0A94EAF77901A12C64
:10485000E701B9907E01B820662D6A19677070E093
:10486000DB2D062E01C0DD0F0A94EAF79D2E71950F
:10487000619571096770772701C0B6946A95EAF768
:104880009B286081962A9082A39468E0A612E0CFCC
:10489000019631968830910589F6CA16DB0609F033
:1048A000BECF04E610E020E230E043E253E060E4F3
:1048B00088E70E94B82D892B09F0C0CDE101C09591
:1048C000D09580915703909158038C239D2390930A
:1048D000580380935703B2CD969587959695879503
:1048E000282F912F9295990F90763FE1390F68CF3D
:1048F000455A5C4F04E610E020E230E0D8CFA5E155
:10490000B0E0E5E8F4E20C94C12FFE013C968AE0A9
:10491000DF011D928A95E9F78FE8E82E81E0F82EF5
:104920008F0194E9692E91E0792E2F01AA24A39496
:10493000B12C3AE9832E31E0932EF70181917F016A
:104940008F3F09F43EC0F894E82FE295EF70F0E055
:1049500021A18F70A50102C0440F551F8A95E2F76F
:10496000CA01922F982B91A392A18095892382A3AB
:10497000789400C0E4E9F1E031E0312C21912F3F3F
:1049800079F0A22FA295AF70A05EB0E08C9190E07C
:104990002F7002C0959587952A95E2F780FF90C009
:1049A00080E0382A330F8E169F0641F7F701829177
:1049B0008F3F11F00E94B10B50EA5A95F1F7D801E0
:1049C0003C920F5F1F4F6E147F0409F0B6CF4AE090
:1049D00050E0B2018BE493E00E94C5306C01892B5A
:1049E00041F08AE0F201ABE4B3E001900D928A95C8
:1049F000E1F70091560310E006591A4FC114D10493
:104A000009F460C081E08093F5010E945C1A9093E4
:104A1000F4018093F3018091EE05FE0131967F0150
:104A2000811509F4A8C085E0DF011D928A95E9F798
:104A30008091F6018A3008F069C049E256E1B70179
:104A4000C8010E948510811509F483C04CE956E124
:104A5000B701C8010E948510811509F47AC044EE9F
:104A600056E1B701C8010E948510811509F471C093
:104A700046E357E1B701C8010E948510811509F48A
:104A800068C049EB56E1B701C8010E948510811545
:104A900009F45FC01092F6018091550390E045E063
:104AA00050E0B70186599A4F0E94C53021E020930B
:104AB000F201892B09F041C06596E1E10C94DD2FEC
:104AC000832F6FCF8091F501811509F4A4CFE09079
:104AD000F301F090F4010E945C1A8E199F0905976A
:104AE00008F499CF45E050E06BE473E0C8010E9400
:104AF000C530892B41F085E0EBE4F3E0D80101906B
:104B00000D928A95E1F71092F50185CFC090F001E2
:104B1000D090F1010E945C1A8C199D09843F91404C
:104B200008F08BCF8091F201811531F285E0F70119
:104B300011928A95E9F71092F201A0915503B0E025
:104B4000A659BA4F85E0F70101900D928A95E1F7D9
:104B5000B3CF8091F6018F3F39F40E945C1A909395
:104B6000F1018093F001DECF8F5F8093F6018A30F0
:104B700008F492CFF2CFC0905503D12C960126595C
:104B80003A4F690185E0F801A8ECB5E001900D927B
:104B90008A95E1F765E070E088EC95E00E948F0D62
:104BA0008093C70585E0EDECF5E0D60101900D920C
:104BB0008A95E1F788E0EDE9F5E0A3EDB5E0019035
:104BC0000D928A95E1F768E070E083ED95E00E9430
:104BD0008F0D8093D2058090DB059090DC05A0902E
:104BE000DD05B090DE058091EC019091ED01A09182
:104BF000EE01B091EF0188169906AA06BB06B1F046
:104C00008092EC019092ED01A092EE01B092EF0142
:104C10000E945B0E861A970AA80AB90A8092EA05D2
:104C20009092EB05A092EC05B092ED058BE0EFEDD4
:104C3000F5E0D70101900D928A95E1F7F090E0053B
:104C4000E090E105D090E2050091E8051091E905BA
:104C50001092E905111509F42FCF10FF0DC08981BD
:104C600080FF1EC090915A06916090935A0660E0B2
:104C7000869586950E94931A11FF06C020E04D2D5F
:104C80006E2D8F2D0E94BF1712FF04C0011559F021
:104C90000E94781A13FF10CF81E080939A050CCF01
:104CA0000E949A0CE9CF0E94930CF4CFCDB7DEB7E7
:104CB0002C970FB6F894DEBF0FBECDBF85B78068C6
:104CC00085BF85B7806885BF84B7877F84BF0FB6EF
:104CD000F894A8958091600088618093600010929C
:104CE00060000FBE80E890E00FB6F89480936100FA
:104CF000909361000FBE81E080930F018FEA9BE0EB
:104D00009093E3018093E2010E94430F0E94920F6F
:104D10008091E20084608093E2007894809169053C
:104D2000811599F08091E9001091EC008F70179532
:104D300011271795182B1092E9008091E80083FD48
:104D40000E941B111F701093E90082E084BD93E064
:104D500095BD9AEF97BD80936E001092EA05109270
:104D6000EB051092EC051092ED0588EC90E0209197
:104D7000E30027FD0EC0AFE3BCE91197F1F700C0D7
:104D800000000197A1F70E94430F1092690580E08F
:104D900001C081E08093EE058093EF05811509F451
:104DA000C4C01092100184E28093110182D7EDE912
:104DB000F5E088E0DF011D928A95E9F78091EF0523
:104DC00091E0282F29272093A7059093AA05811108
:104DD00006C084EF8093160185EF8093150160E093
:104DE00080E00E94420D61E080E00E94420DEFE809
:104DF000F1E03197F1F700C0000010E08091AA05C2
:104E0000181708F498C08091EF0590E0811101C057
:104E100095E09093560385E0891B809355030FE836
:104E200011E084E9E82E81E0F82ED8018D918D0102
:104E30008F3F11F00E94B10BE016F106B1F704E9C3
:104E400011E0BAE9EB2EB1E0FB2EF80181918F0160
:104E50008F3F11F00E94B10BE016F106B1F78AE026
:104E6000EAE6F5E0DF01282F1D922A95E9F7EBE449
:104E7000F3E0DF011D928A95E9F780E090E00E945F
:104E8000E830833E9E4F61F163EE7EEF80E090E07C
:104E90000E94073160E082E090E00E94ED3081E006
:104EA00090E0909366068093650661E083E090E071
:104EB0000E94ED3060E074E184E090E00E940731F0
:104EC0000E94991740E050E0BA018FE090E00E9404
:104ED000FF3040E050E0BA0183E190E00E94FF30F3
:104EE00082E090E00E94DB3080937E0584E090E0D9
:104EF0000E94E83090936B0680936A0600DDEFEF26
:104F0000F6E721E0E150F0402040E1F700C000006A
:104F1000F6DC80916A0580FF20C06FEF7FEF80E0B4
:104F200090E00E9407310E94870E84E28093100176
:104F3000809311013CCF60E0812F0E94650D082F06
:104F400061E0812F0E94650DE12FF0E0E855FA4FF6
:104F5000880F802B80831F5F51CF83E090E00E94F9
:104F6000DB3090E00E94AA09809167069091680664
:104F70000E940B1883E08093630580E280936205B2
:104F800031D56BE070E080E990E10E94CA1881158C
:104F900009F43FC08091630565E070E081FD1FC1A9
:104FA0008BE890E10E94CA18811599F16DE070E0DC
:104FB00089E790E10E94CA18811559F10E945B0EA1
:104FC000DC01CB01805A9541AF4FBF4F80935E0506
:104FD00090935F05A0936005B0936105EBE5F3E066
:104FE00080E092E0DF019C011D9221503040E1F70A
:104FF000F0935A03E09359038FEF9FEF9093580378
:105000008093570381E080935D0580935C05109247
:105010005B0580916405811134C08AE596E00E94A9
:10502000DB198091590683608093590680915A0656
:10503000843008F0D7C00E9499178AE596E00E9454
:10504000DB1980915A06843008F0CCC083708460EC
:1050500080935A0680915D068F3618F08EE6809315
:105060005D060E94930C0E94820D80915A0680FF7B
:1050700005C060E0869586950E94931A81E0809332
:1050800064058091EE05811101C016D680915B0602
:105090008093AE068EE68093AF0687E191E0909311
:1050A000F3058093F20580916905853009F510E4D8
:1050B00001E0F0E1FF2EA2E1EA2E80916905853042
:1050C00009F498C00E94FD100E94F50D109267052A
:1050D00080916605811551F080915A068160809318
:1050E0005A0660E0869586950E94931A0E94781A67
:1050F00006DC7FE7A72E75E0B72EEAE68E2EE5E008
:105100009E2ED401F50191918D9129E835E02E175D
:105110003F0709F4D7C09817B1F34090EE0564E754
:10512000E62E65E0F62ED12CD401CD904D01F5018F
:1051300061905F016C1409F447C06C2400E010E03A
:1051400077247394862D87218115A9F15C2C572033
:10515000411411F1D7018C9190E021E030E0002E54
:1051600002C0220F331F0A94E2F782239323892B74
:1051700099F40983DA820E945C1A9C838B83B1E0E4
:10518000BD8391E0511001C090E09E8349815A8116
:105190006B817C818D812ED851100DC081E090E013
:1051A000002E01C0880F0A94EAF7982F9095F70116
:1051B000808189238083770C0F5F1F4F0630110594
:1051C00009F0C0CFF501C292D394FFEFEF1AFF0AA6
:1051D0002AE0D212A9CF0E94670E01E077C086E8CC
:1051E00090E1E0CE80915A06883108F433CF837085
:1051F00084612ECF80916905843009F434C00E9407
:10520000930C80916705811109C000936705809117
:105210005A068170809366050E949A0C0E94D718E6
:105220001092650548E150E00FB6F894A8954093B8
:1052300060000FBE1093600083B7817F846083BFDE
:1052400083B7816083BF7894889583B78E7F83BF4F
:105250000FB6F894A89580916000886180936000F3
:10526000109260000FBE4BDBEAE6F5E0A4E7B5E084
:1052700080E021912D9391E0211101C090E0892BD4
:1052800055E0E437F507A9F7811509F416CF8091A9
:105290006805811509F411CFF9BCE9BC09B400FE19
:1052A000FDCF8091D8008F7D8093D8008091E00061
:1052B00082608093E0008091E00081FDFCCF0E943D
:1052C000FD10FBCE981329CF20D800E08091EE0589
:1052D000811509F4E1C0E0905306F0905406E11402
:1052E000F10419F1C0905506D09056060E945C1A40
:1052F0008C199D09893C9105C0F053E6C52E51E0FB
:10530000D52EE11411F0C12CD12C60E08E2D0E941D
:10531000A70D1C01009749F0DC0115968C9182FDC8
:1053200004C0B101C6010E945D15C0901C06D0905A
:105330001D060D2C000CEE08FF0810912101212FF5
:1053400030E0ECE1F6E081E090E032962817390792
:105350000CF028C140909005509091056090920506
:10536000709093050E945B0E4B015C0184189508B8
:10537000A608B7089601A701F7FE04C020E030E0B8
:1053800040E050E0A0E6BAEE95D669877A878B8731
:105390009C87B8EC1B9F90011124032E000C440B3A
:1053A000550B280D391D4A1D5B1DA5E0B0E082D6C6
:1053B0009B01AC0169857A858B859C8537D629014F
:1053C0003A01213F31054105510510F040EF442ECF
:1053D000F9EC8F169104A104B10404F180914E06FA
:1053E00090E0019669E170E00ED680934E06880F3A
:1053F000991FFC01E45EF94F11821082183108F008
:1054000017E11F5F109321010E945B0E60939005CE
:1054100070939105809392059093930522E0C216B4
:10542000D104E104F1040CF4412C80908C0590909F
:105430008D05A0908E05B0908F050E945B0E6B01CC
:105440007C01C818D908EA08FB0835E6C316D10460
:10545000E104F10484F00E945B0E60938C0570936C
:105460008D0580938E0590938F0580918B05809399
:105470008A054092890510918A05A0918905A11B92
:10548000BB0BA701960120D624E630E040E050E0B7
:10549000EFD5120F10938B0580915806811509F4F2
:1054A0006AC080915706E0915A06E695E695E81B9A
:1054B000E0939905823009F081C0F0E0E556FF4E97
:1054C000E491EE2EF12C26EAC22E2CE0D22E809111
:1054D0009A05811561F010929A050E94681A9093BE
:1054E00098058093970510929C0510929B050E9449
:1054F000681A8F83988780919705909198052F81DE
:105500003885281B390B2F3F3F47A8F5209196057A
:105510002115C1F0109296052091940530919505C2
:105520004F815885421B530B4F3F5F4758F4205D16
:105530003A483093950520939405209159062860A8
:1055400020935906A0909B05B0909C058E0D9F1D41
:10555000909398058093970587E995E0F601099562
:1055600080919B0590919C05892B29F4AB2819F01B
:1055700081E0809396051091EE05111519F00E94B7
:10558000DF14182F8091B405811551F01092B405E5
:1055900080919F058093A00580919D0580939E0535
:1055A000D12C50C040815181052E000C660B770B29
:1055B000C40ED51EE61EF71E0196C7CE80EDE82E5E
:1055C00087E0F82E9EECC92E9BE0D92E80CF61E0BB
:1055D0008D2D0E94650DF82E60E08D2D0E94650DC9
:1055E000FF0CF82A2D2D30E0D901A855BA4FEC91C7
:1055F0008E2F8370F81629F1EE0FEE0FEF29EC9342
:105600008091A7058D0DEF70F0E0E656FE4FA901E1
:105610004B555A4F7A01C080DA019C91C90EB2E015
:1056200060E0CB1624F4EFEFCE161CF461E00E948C
:10563000210D8C2DCC0C990B62E070E0E4D4D701E5
:105640008C93D3948091AA05D81608F4C0CF80918A
:10565000EE05811519F00E94DF14182B111539F091
:105660000E94670E0E94AE210E94E81804C00E94AA
:10567000AE210111F9CF0E94F50D9091AB0589176C
:1056800009F411CD8093AB050E945B0E0CCD78948C
:105690001F921FB61F9211248F939F93AF93BF93B6
:1056A00080910A0290910B02A0910C02B0910D0220
:1056B0000196A11DB11D80930A0290930B02A09345
:1056C0000C02B0930D02BF91AF919F918F911F90EB
:1056D0001FBE1F9018951F920F920FB60F921124A4
:1056E0002F933F934F935F936F937F938F939F93EA
:1056F000AF93BF93EF93FF938091E10082FF09C0C6
:105700008091E20082FF05C08091E1008B7F809351
:10571000E1008091DA0080FF24C08091D80080FFF2
:1057200020C08091DA008E7F8093DA008091D900CA
:1057300080FFA9C080E189BD82E189BD09B400FE76
:10574000FDCF81E0809369058091F901811109C045
:105750000E94430F0E94920F8091E2008460809328
:10576000E2008091E10080FF1AC08091E20080FF9A
:1057700016C08091E2008E7F8093E2008091E2006B
:1057800080618093E2008091D80080628093D8008D
:1057900019BC85E08093690583E080930F018091B7
:1057A000E10084FF2FC08091E20084FF2BC080E1E4
:1057B00089BD82E189BD09B400FEFDCF8091D8008A
:1057C0008F7D8093D8008091E1008F7E8093E100EF
:1057D0008091E2008F7E8093E2008091E200816000
:1057E0008093E2008091F801811509F452C084E0B1
:1057F0008093690580916905843009F052C082E088
:1058000080930F018091E10083FF2CC08091E20022
:1058100083FF28C08091E100877F8093E10082E0D0
:10582000809369051092F8018091E1008E7F80934A
:10583000E1008091E2008E7F8093E2008091E2009F
:1058400080618093E20042E060E080E00E94620FAD
:105850008091F00088608093F00081E080930F01D8
:1058600080930E01FF91EF91BF91AF919F918F9126
:105870007F916F915F914F913F912F910F900FBE4C
:105880000F901F90189519BC109269051092F9019C
:1058900068CF8091E30087FF02C083E0A9CF81E059
:1058A000A7CF81E0ADCF1F920F920FB60F921124B8
:1058B000EF92FF920F931F932F933F934F935F931A
:1058C0006F937F938F939F93AF93BF93CF93EF93F8
:1058D000FF9309EE10E0F8018081C091EC008F7019
:1058E000C795CC27C795C82B108280EFE82EF12CE6
:1058F000F7018081877F808378940E941B11F801D3
:105900001082F701808188608083CF70F801C083A6
:10591000FF91EF91CF91BF91AF919F918F917F9127
:105920006F915F914F913F912F911F910F91FF9038
:10593000EF900F900FBE0F901F901895FF920F934E
:105940001F93CF93DF93182FEB011092BC0084EAD2
:105950008093BC000E945C1A082FF92E8091BC0035
:1059600087FF28C08091B900887F883029F0809116
:10597000B900887F803199F51093BB0084E880934B
:10598000BC000E945C1A182F092F8091BC0087FF71
:105990001EC02091B900287F80E090E0283199F066
:1059A00081E090E0203411F480E090E091958195C1
:1059B000910909C0802F9F2D0E94A521C817D907E2
:1059C00068F68EEF9FEFCDB7DEB7E5E002C3812F1B
:1059D000902F0E94A521C817D907B8F6F2CF8FEFF4
:1059E0009FEFF1CF1092B9008CE08093B80008953A
:1059F0000F931F93CF93DF93EB018093BB0084E859
:105A00008093BC000E945C1A182F092F8091BC0063
:105A100087FF11C02091B900287F81E090E02832F3
:105A200011F480E090E0919581959109DF91CF91FB
:105A30001F910F910895CF3FDC0741F3812F902FE5
:105A40000E94A521C817D90708F78EEF9FEFEECF68
:105A5000A0E0B0E0EDE2FDE298C2782EB62EA72ECF
:105A60006A01E9010E945C1A4C01C431D10510F1B0
:105A7000CF3FDC0719F1CE0164E170E06DD2F62E64
:105A8000E72E6F2D7E2D872D59DF8C01892BC9F4D0
:105A9000EB2CFA2CCE0CDF1CEC14FD0419F00115D4
:105AA0001105C9F084E98093BC00C801CDB7DEB709
:105AB000EDE087C2FF24F394E12CE3CF85E0F82EDC
:105AC000FBCFCF3FDC07E9F2C4010E94A521C81734
:105AD000D907B8F6DDCFBE01F70181917F0188DFDC
